{"contracts/token/MCT.sol":{"MCT":{"abi":[{"inputs":[{"internalType":"string","name":"name_","type":"string"},{"internalType":"string","name":"symbol_","type":"string"}],"stateMutability":"nonpayable","type":"constructor"},{"anonymous":false,"inputs":[{"indexed":true,"internalType":"address","name":"owner","type":"address"},{"indexed":true,"internalType":"address","name":"spender","type":"address"},{"indexed":false,"internalType":"uint256","name":"value","type":"uint256"}],"name":"Approval","type":"event"},{"anonymous":false,"inputs":[{"indexed":true,"internalType":"address","name":"previousOwner","type":"address"},{"indexed":true,"internalType":"address","name":"newOwner","type":"address"}],"name":"OwnershipTransferred","type":"event"},{"anonymous":false,"inputs":[{"indexed":true,"internalType":"address","name":"from","type":"address"},{"indexed":true,"internalType":"address","name":"to","type":"address"},{"indexed":false,"internalType":"uint256","name":"value","type":"uint256"}],"name":"Transfer","type":"event"},{"inputs":[],"name":"AIRDROP_ALLOCATION","outputs":[{"internalType":"uint256","name":"","type":"uint256"}],"stateMutability":"view","type":"function"},{"inputs":[],"name":"AIRDROP_POOL_RECEIVER","outputs":[{"internalType":"address","name":"","type":"address"}],"stateMutability":"view","type":"function"},{"inputs":[],"name":"AIRDROP_VESTING","outputs":[{"internalType":"uint256","name":"","type":"uint256"}],"stateMutability":"view","type":"function"},{"inputs":[],"name":"INITIAL_SUPPLY_ALLOCATION","outputs":[{"internalType":"uint256","name":"","type":"uint256"}],"stateMutability":"view","type":"function"},{"inputs":[],"name":"INITIAL_SUPPLY_RECEIVER","outputs":[{"internalType":"address","name":"","type":"address"}],"stateMutability":"view","type":"function"},{"inputs":[],"name":"INVESTOR_ALLOCATION","outputs":[{"internalType":"uint256","name":"","type":"uint256"}],"stateMutability":"view","type":"function"},{"inputs":[],"name":"INVESTOR_POOL_RECEIVER","outputs":[{"internalType":"address","name":"","type":"address"}],"stateMutability":"view","type":"function"},{"inputs":[],"name":"MAX_SUPPLY","outputs":[{"internalType":"uint256","name":"","type":"uint256"}],"stateMutability":"view","type":"function"},{"inputs":[],"name":"MINING_POOL_ALLOCATION","outputs":[{"internalType":"uint256","name":"","type":"uint256"}],"stateMutability":"view","type":"function"},{"inputs":[],"name":"MINING_POOL_RECEIVER","outputs":[{"internalType":"address","name":"","type":"address"}],"stateMutability":"view","type":"function"},{"inputs":[],"name":"MINING_POOL_VESTING","outputs":[{"internalType":"uint256","name":"","type":"uint256"}],"stateMutability":"view","type":"function"},{"inputs":[],"name":"OPERATIONAL_POOL_ALLOCATION","outputs":[{"internalType":"uint256","name":"","type":"uint256"}],"stateMutability":"view","type":"function"},{"inputs":[],"name":"OPERATIONAL_POOL_RECEIVER","outputs":[{"internalType":"address","name":"","type":"address"}],"stateMutability":"view","type":"function"},{"inputs":[],"name":"OPERATIONAL_POOL_VESTING","outputs":[{"internalType":"uint256","name":"","type":"uint256"}],"stateMutability":"view","type":"function"},{"inputs":[],"name":"RESERVE_POOL_ALLOCATION","outputs":[{"internalType":"uint256","name":"","type":"uint256"}],"stateMutability":"view","type":"function"},{"inputs":[],"name":"RESERVE_POOL_LOCKUP","outputs":[{"internalType":"uint256","name":"","type":"uint256"}],"stateMutability":"view","type":"function"},{"inputs":[],"name":"RESERVE_POOL_RECEIVER","outputs":[{"internalType":"address","name":"","type":"address"}],"stateMutability":"view","type":"function"},{"inputs":[],"name":"RESERVE_POOL_VESTING","outputs":[{"internalType":"uint256","name":"","type":"uint256"}],"stateMutability":"view","type":"function"},{"inputs":[],"name":"START_TIME","outputs":[{"internalType":"uint256","name":"","type":"uint256"}],"stateMutability":"view","type":"function"},{"inputs":[],"name":"TEAM_ALLOCATION","outputs":[{"internalType":"uint256","name":"","type":"uint256"}],"stateMutability":"view","type":"function"},{"inputs":[],"name":"TEAM_LOCKUP","outputs":[{"internalType":"uint256","name":"","type":"uint256"}],"stateMutability":"view","type":"function"},{"inputs":[],"name":"TEAM_RECEIVER","outputs":[{"internalType":"address","name":"","type":"address"}],"stateMutability":"view","type":"function"},{"inputs":[],"name":"TEAM_VESTING","outputs":[{"internalType":"uint256","name":"","type":"uint256"}],"stateMutability":"view","type":"function"},{"inputs":[{"internalType":"address","name":"newSigner","type":"address"}],"name":"addSigner","outputs":[],"stateMutability":"nonpayable","type":"function"},{"inputs":[{"internalType":"address","name":"owner","type":"address"},{"internalType":"address","name":"spender","type":"address"}],"name":"allowance","outputs":[{"internalType":"uint256","name":"","type":"uint256"}],"stateMutability":"view","type":"function"},{"inputs":[{"internalType":"address","name":"spender","type":"address"},{"internalType":"uint256","name":"amount","type":"uint256"}],"name":"approve","outputs":[{"internalType":"bool","name":"","type":"bool"}],"stateMutability":"nonpayable","type":"function"},{"inputs":[{"internalType":"uint256","name":"operationId","type":"uint256"}],"name":"approveOperation","outputs":[],"stateMutability":"nonpayable","type":"function"},{"inputs":[{"internalType":"address","name":"account","type":"address"}],"name":"balanceOf","outputs":[{"internalType":"uint256","name":"","type":"uint256"}],"stateMutability":"view","type":"function"},{"inputs":[{"internalType":"uint256","name":"operationId","type":"uint256"}],"name":"cancelOperation","outputs":[],"stateMutability":"nonpayable","type":"function"},{"inputs":[],"name":"decimals","outputs":[{"internalType":"uint8","name":"","type":"uint8"}],"stateMutability":"view","type":"function"},{"inputs":[{"internalType":"address","name":"spender","type":"address"},{"internalType":"uint256","name":"subtractedValue","type":"uint256"}],"name":"decreaseAllowance","outputs":[{"internalType":"bool","name":"","type":"bool"}],"stateMutability":"nonpayable","type":"function"},{"inputs":[{"internalType":"uint256","name":"operationId","type":"uint256"}],"name":"executeOperation","outputs":[],"stateMutability":"nonpayable","type":"function"},{"inputs":[{"internalType":"address","name":"spender","type":"address"},{"internalType":"uint256","name":"addedValue","type":"uint256"}],"name":"increaseAllowance","outputs":[{"internalType":"bool","name":"","type":"bool"}],"stateMutability":"nonpayable","type":"function"},{"inputs":[{"internalType":"address","name":"","type":"address"}],"name":"investedAt","outputs":[{"internalType":"uint256","name":"","type":"uint256"}],"stateMutability":"view","type":"function"},{"inputs":[{"internalType":"address","name":"","type":"address"}],"name":"investment","outputs":[{"internalType":"uint256","name":"","type":"uint256"}],"stateMutability":"view","type":"function"},{"inputs":[{"internalType":"address","name":"","type":"address"}],"name":"isInvestor","outputs":[{"internalType":"bool","name":"","type":"bool"}],"stateMutability":"view","type":"function"},{"inputs":[{"internalType":"address","name":"signer","type":"address"}],"name":"isSigner","outputs":[{"internalType":"bool","name":"","type":"bool"}],"stateMutability":"view","type":"function"},{"inputs":[],"name":"multiSignersAddresses","outputs":[{"internalType":"string","name":"","type":"string"}],"stateMutability":"view","type":"function"},{"inputs":[],"name":"name","outputs":[{"internalType":"string","name":"","type":"string"}],"stateMutability":"view","type":"function"},{"inputs":[],"name":"owner","outputs":[{"internalType":"address","name":"","type":"address"}],"stateMutability":"view","type":"function"},{"inputs":[{"internalType":"uint256","name":"","type":"uint256"}],"name":"poolClaimedAmount","outputs":[{"internalType":"uint256","name":"","type":"uint256"}],"stateMutability":"view","type":"function"},{"inputs":[{"internalType":"uint256","name":"","type":"uint256"}],"name":"poolLastClaimTime","outputs":[{"internalType":"uint256","name":"","type":"uint256"}],"stateMutability":"view","type":"function"},{"inputs":[{"internalType":"uint256","name":"operationId","type":"uint256"}],"name":"proposeOperation","outputs":[],"stateMutability":"nonpayable","type":"function"},{"inputs":[{"internalType":"address","name":"signerToRemove","type":"address"}],"name":"removeSigner","outputs":[],"stateMutability":"nonpayable","type":"function"},{"inputs":[],"name":"renounceOwnership","outputs":[],"stateMutability":"nonpayable","type":"function"},{"inputs":[{"internalType":"string","name":"link","type":"string"}],"name":"setTokenDistributionPlan","outputs":[],"stateMutability":"nonpayable","type":"function"},{"inputs":[{"internalType":"string","name":"link","type":"string"}],"name":"setmultiSignersAddresses","outputs":[],"stateMutability":"nonpayable","type":"function"},{"inputs":[],"name":"symbol","outputs":[{"internalType":"string","name":"","type":"string"}],"stateMutability":"view","type":"function"},{"inputs":[],"name":"tokenDistributionPlan","outputs":[{"internalType":"string","name":"","type":"string"}],"stateMutability":"view","type":"function"},{"inputs":[],"name":"totalSupply","outputs":[{"internalType":"uint256","name":"","type":"uint256"}],"stateMutability":"view","type":"function"},{"inputs":[{"internalType":"address","name":"to","type":"address"},{"internalType":"uint256","name":"amount","type":"uint256"}],"name":"transfer","outputs":[{"internalType":"bool","name":"","type":"bool"}],"stateMutability":"nonpayable","type":"function"},{"inputs":[{"internalType":"address","name":"from","type":"address"},{"internalType":"address","name":"to","type":"address"},{"internalType":"uint256","name":"amount","type":"uint256"}],"name":"transferFrom","outputs":[{"internalType":"bool","name":"","type":"bool"}],"stateMutability":"nonpayable","type":"function"},{"inputs":[{"internalType":"address","name":"newOwner","type":"address"}],"name":"transferOwnership","outputs":[],"stateMutability":"nonpayable","type":"function"}],"devdoc":{"details":"MCT is the governance token contract","kind":"dev","methods":{"allowance(address,address)":{"details":"See {IERC20-allowance}."},"approve(address,uint256)":{"details":"See {IERC20-approve}. NOTE: If `amount` is the maximum `uint256`, the allowance is not updated on `transferFrom`. This is semantically equivalent to an infinite approval. Requirements: - `spender` cannot be the zero address."},"balanceOf(address)":{"details":"See {IERC20-balanceOf}."},"decimals()":{"details":"Returns the number of decimals used to get its user representation. For example, if `decimals` equals `2`, a balance of `505` tokens should be displayed to a user as `5.05` (`505 / 10 ** 2`). Tokens usually opt for a value of 18, imitating the relationship between Ether and Wei. This is the default value returned by this function, unless it's overridden. NOTE: This information is only used for _display_ purposes: it in no way affects any of the arithmetic of the contract, including {IERC20-balanceOf} and {IERC20-transfer}."},"decreaseAllowance(address,uint256)":{"details":"Atomically decreases the allowance granted to `spender` by the caller. This is an alternative to {approve} that can be used as a mitigation for problems described in {IERC20-approve}. Emits an {Approval} event indicating the updated allowance. Requirements: - `spender` cannot be the zero address. - `spender` must have allowance for the caller of at least `subtractedValue`."},"increaseAllowance(address,uint256)":{"details":"Atomically increases the allowance granted to `spender` by the caller. This is an alternative to {approve} that can be used as a mitigation for problems described in {IERC20-approve}. Emits an {Approval} event indicating the updated allowance. Requirements: - `spender` cannot be the zero address."},"name()":{"details":"Returns the name of the token."},"owner()":{"details":"Returns the address of the current owner."},"renounceOwnership()":{"details":"Leaves the contract without owner. It will not be possible to call `onlyOwner` functions. Can only be called by the current owner. NOTE: Renouncing ownership will leave the contract without an owner, thereby disabling any functionality that is only available to the owner."},"symbol()":{"details":"Returns the symbol of the token, usually a shorter version of the name."},"totalSupply()":{"details":"See {IERC20-totalSupply}."},"transfer(address,uint256)":{"details":"See {IERC20-transfer}. Requirements: - `to` cannot be the zero address. - the caller must have a balance of at least `amount`."},"transferFrom(address,address,uint256)":{"details":"See {IERC20-transferFrom}. Emits an {Approval} event indicating the updated allowance. This is not required by the EIP. See the note at the beginning of {ERC20}. NOTE: Does not update the allowance if the current allowance is the maximum `uint256`. Requirements: - `from` and `to` cannot be the zero address. - `from` must have a balance of at least `amount`. - the caller must have allowance for ``from``'s tokens of at least `amount`."},"transferOwnership(address)":{"details":"Transfers ownership of the contract to a new account (`newOwner`). Can only be called by the current owner."}},"version":1},"evm":{"bytecode":{"linkReferences":{},"object":"60a06040523480156200001157600080fd5b50604051620025cd380380620025cd833981016040819052620000349162000242565b818160036200004483826200033b565b5060046200005382826200033b565b505050620000706200006a6200012760201b60201c565b6200012b565b6b1363156bbee3016d700000006a94e47b8d681715340000006a31a17e847807b1bc0000006b015b6a759f4835dc24000000806b025391ee35a05c54d0000000620000d46b01f04ef12cb04cf1580000006b0ba1d9a70c21cda81000000062000407565b620000e0919062000407565b620000ec919062000407565b620000f8919062000407565b62000104919062000407565b62000110919062000407565b146200011b57600080fd5b5050426080526200042f565b3390565b600580546001600160a01b038381166001600160a01b0319831681179093556040519116919082907f8be0079c531659141344cd1fd0a4f28419497f9722a3daafe3b4186f6b6457e090600090a35050565b634e487b7160e01b600052604160045260246000fd5b600082601f830112620001a557600080fd5b81516001600160401b0380821115620001c257620001c26200017d565b604051601f8301601f19908116603f01168101908282118183101715620001ed57620001ed6200017d565b816040528381526020925086838588010111156200020a57600080fd5b600091505b838210156200022e57858201830151818301840152908201906200020f565b600093810190920192909252949350505050565b600080604083850312156200025657600080fd5b82516001600160401b03808211156200026e57600080fd5b6200027c8683870162000193565b935060208501519150808211156200029357600080fd5b50620002a28582860162000193565b9150509250929050565b600181811c90821680620002c157607f821691505b602082108103620002e257634e487b7160e01b600052602260045260246000fd5b50919050565b601f8211156200033657600081815260208120601f850160051c81016020861015620003115750805b601f850160051c820191505b8181101562000332578281556001016200031d565b5050505b505050565b81516001600160401b038111156200035757620003576200017d565b6200036f81620003688454620002ac565b84620002e8565b602080601f831160018114620003a757600084156200038e5750858301515b600019600386901b1c1916600185901b17855562000332565b600085815260208120601f198616915b82811015620003d857888601518255948401946001909101908401620003b7565b5085821015620003f75787850151600019600388901b60f8161c191681555b5050505050600190811b01905550565b808201808211156200042957634e487b7160e01b600052601160045260246000fd5b92915050565b608051612174620004596000396000818161065b01528181611393015261143301526121746000f3fe608060405234801561001057600080fd5b50600436106102d75760003560e01c80638da5cb5b11610188578063bba85e0d116100e4578063df5e845211610092578063df5e84521461067d578063e2571f5d14610698578063eb12d61e146106aa578063f2fde38b146106bd578063f76b8fe2146106d0578063fd99cbed146105bc578063feeee007146106f057600080fd5b8063bba85e0d146105cf578063bea06016146105d7578063cb4b4ff9146105f2578063cee2a9cf14610605578063d95e277a14610628578063dd62ed3e14610643578063ddaa26ad1461065657600080fd5b8063aaff1f1811610141578063aaff1f1814610552578063ac0b23531461055a578063b16179bf14610565578063b179fa721461056e578063b4e5df401461058e578063b6ef599c146105a1578063ba558d61146105bc57600080fd5b80638da5cb5b146104f857806393ad411a146103bd57806395d89b41146105095780639e3299f214610511578063a457c2d71461052c578063a9059cbb1461053f57600080fd5b8063413506911161023757806370a08231116101f057806370a082311461046c578063715018a6146104955780637df73e271461049d578063831edebe146104b057806387bdc093146104cb5780638820a1fd146104dd5780638c366214146104e557600080fd5b8063413506911461040d5780634ca6a094146104205780634d703b6a146104335780635c9452271461043e57806361ff304f146104515780636338c7e91461046457600080fd5b806316a38f1f1161029457806316a38f1f146103a257806318160ddd146103b55780631940ca17146103bd57806323b872dd146103c5578063313ce567146103d857806332cb6b0c146103e757806339509351146103fa57600080fd5b80630399516d146102dc57806306fdde0314610314578063095ea7b3146103295780630bd18d7a1461034c5780630e316ab71461037a5780630e70306d1461038f575b600080fd5b6102f773a0b9fe04f0e6e44e42c90cfe30507769e91c191981565b6040516001600160a01b0390911681526020015b60405180910390f35b61031c610710565b60405161030b9190611cc0565b61033c610337366004611d2a565b6107a2565b604051901515815260200161030b565b61036c61035a366004611d54565b60096020526000908152604090205481565b60405190815260200161030b565b61038d610388366004611d54565b6107bc565b005b61038d61039d366004611d76565b61092f565b61038d6103b0366004611d76565b610c33565b60025461036c565b61036c609c81565b61033c6103d3366004611d8f565b610d09565b6040516012815260200161030b565b61036c6b1363156bbee3016d7000000081565b61033c610408366004611d2a565b610d2d565b61038d61041b366004611de1565b610d4f565b61036c6b0ba1d9a70c21cda81000000081565b61036c6303bfc40081565b61038d61044c366004611d76565b610d67565b61038d61045f366004611de1565b610dea565b61036c606881565b61036c61047a366004611d54565b6001600160a01b031660009081526020819052604090205490565b61038d610dfe565b61033c6104ab366004611d54565b610e12565b6102f773910bbe8b14dbe813ea3f0e268058b024bf5301d981565b61036c6a31a17e847807b1bc00000081565b61031c610e7b565b61038d6104f3366004611d76565b610f09565b6005546001600160a01b03166102f7565b61031c610fc0565b6102f773f32fb437a2768f02fada4d97abe76d8f306f44fe81565b61033c61053a366004611d2a565b610fcf565b61033c61054d366004611d2a565b61104a565b61036c603481565b61036c6301dfe20081565b61036c61020881565b61036c61057c366004611d76565b60066020526000908152604090205481565b61036c6b025391ee35a05c54d000000081565b6102f773d1e532c785deec90c1c69c7c5a7dcd28a8f7424881565b61036c6b015b6a759f4835dc2400000081565b61031c611058565b6102f7738a83d34fa97910b0786d8dab29c5f3aca5c1cc7681565b61036c6b01f04ef12cb04cf15800000081565b61033c610613366004611d54565b60086020526000908152604090205460ff1681565b6102f773b54e1c4b3927f4489ead5c149b7895ecd03a5ce081565b61036c610651366004611e92565b611065565b61036c7f000000000000000000000000000000000000000000000000000000000000000081565b6102f7738824fe9fa03d3716a762375867fac2052cd54a8c81565b61036c6a94e47b8d6817153400000081565b61038d6106b8366004611d54565b611090565b61038d6106cb366004611d54565b611196565b61036c6106de366004611d54565b600a6020526000908152604090205481565b61036c6106fe366004611d76565b60076020526000908152604090205481565b60606003805461071f90611ec5565b80601f016020809104026020016040519081016040528092919081815260200182805461074b90611ec5565b80156107985780601f1061076d57610100808354040283529160200191610798565b820191906000526020600020905b81548152906001019060200180831161077b57829003601f168201915b5050505050905090565b6000336107b081858561120f565b60019150505b92915050565b6107c4611333565b6107cd81610e12565b61081e5760405162461bcd60e51b815260206004820152601a60248201527f4d43543a205369676e657220646f6573206e6f7420657869737400000000000060448201526064015b60405180910390fd5b6000805b600b5481101561087d57826001600160a01b0316600b828154811061084957610849611eff565b6000918252602090912001546001600160a01b03160361086b5780915061087d565b8061087581611f2b565b915050610822565b50600b805461088e90600190611f44565b8154811061089e5761089e611eff565b600091825260209091200154600b80546001600160a01b0390921691839081106108ca576108ca611eff565b9060005260206000200160006101000a8154816001600160a01b0302191690836001600160a01b03160217905550600b80548061090957610909611f57565b600082815260209020810160001990810180546001600160a01b03191690550190555050565b61093833610e12565b6109545760405162461bcd60e51b815260040161081590611f6d565b6000818152600d602052604090205481908190610975906202a30090611fb5565b4210156109d05760405162461bcd60e51b8152602060048201526024808201527f4d43543a2054696d656c6f636b20706572696f64206e6f7420796574206578706044820152631a5c995960e21b6064820152608401610815565b6000838152600c6020526040902054839060ff16610a005760405162461bcd60e51b815260040161081590611fc8565b6000818152600e602052604090205460021115610a6f5760405162461bcd60e51b815260206004820152602760248201527f4d43543a204e6f7420656e6f75676820617070726f76616c7320666f72206f7060448201526632b930ba34b7b760c91b6064820152608401610815565b6000818152600c60209081526040808320805460ff19169055600d8252808320839055600e9091528120556001849003610ad957610ad4600160006b0ba1d9a70c21cda81000000061020873b54e1c4b3927f4489ead5c149b7895ecd03a5ce061138d565b610c2d565b83600203610b1157610ad4600260006b01f04ef12cb04cf158000000603473f32fb437a2768f02fada4d97abe76d8f306f44fe61138d565b83600303610b4c57610ad460036303bfc4006b025391ee35a05c54d0000000606873d1e532c785deec90c1c69c7c5a7dcd28a8f7424861138d565b83600403610b8457610ad4600460006b015b6a759f4835dc24000000609c73a0b9fe04f0e6e44e42c90cfe30507769e91c191961138d565b83600503610bbf57610ad460056301dfe2006b015b6a759f4835dc24000000609c738a83d34fa97910b0786d8dab29c5f3aca5c1cc7661138d565b83600603610bf657610ad4600660006a31a17e847807b1bc0000006001738824fe9fa03d3716a762375867fac2052cd54a8c61138d565b83600703610c2d57610c2d600760006a94e47b8d68171534000000600173910bbe8b14dbe813ea3f0e268058b024bf5301d961138d565b50505050565b610c3c33610e12565b610c585760405162461bcd60e51b815260040161081590611f6d565b6000818152600c6020526040902054819060ff16610c885760405162461bcd60e51b815260040161081590611fc8565b6000818152600e6020526040902054600211610ce65760405162461bcd60e51b815260206004820152601f60248201527f4d43543a204f7065726174696f6e20616c726561647920617070726f766564006044820152606401610815565b6000818152600e60205260408120805491610d0083611f2b565b91905055505050565b600033610d17858285611587565b610d228585856115fb565b506001949350505050565b6000336107b0818585610d408383611065565b610d4a9190611fb5565b61120f565b610d57611333565b600f610d638282612045565b5050565b610d7033610e12565b610d8c5760405162461bcd60e51b815260040161081590611f6d565b6000818152600c6020526040902054819060ff16610dbc5760405162461bcd60e51b815260040161081590611fc8565b6000908152600c60209081526040808320805460ff19169055600d8252808320839055600e90915281205550565b610df2611333565b6010610d638282612045565b610e06611333565b610e1060006117aa565b565b6000805b600b54811015610e7257826001600160a01b0316600b8281548110610e3d57610e3d611eff565b6000918252602090912001546001600160a01b031603610e605750600192915050565b80610e6a81611f2b565b915050610e16565b50600092915050565b600f8054610e8890611ec5565b80601f0160208091040260200160405190810160405280929190818152602001828054610eb490611ec5565b8015610f015780601f10610ed657610100808354040283529160200191610f01565b820191906000526020600020905b815481529060010190602001808311610ee457829003601f168201915b505050505081565b610f1233610e12565b610f2e5760405162461bcd60e51b815260040161081590611f6d565b6000818152600c6020526040902054819060ff1615610f8f5760405162461bcd60e51b815260206004820152601f60248201527f4d43543a204f7065726174696f6e20616c72656164792070726f706f736564006044820152606401610815565b6000908152600c60209081526040808320805460ff19166001179055600d8252808320429055600e90915281205550565b60606004805461071f90611ec5565b60003381610fdd8286611065565b90508381101561103d5760405162461bcd60e51b815260206004820152602560248201527f45524332303a2064656372656173656420616c6c6f77616e63652062656c6f77604482015264207a65726f60d81b6064820152608401610815565b610d22828686840361120f565b6000336107b08185856115fb565b60108054610e8890611ec5565b6001600160a01b03918216600090815260016020908152604080832093909416825291909152205490565b611098611333565b6001600160a01b0381166110ee5760405162461bcd60e51b815260206004820152601b60248201527f4d43543a20496e76616c6964207369676e6572206164647265737300000000006044820152606401610815565b6110f781610e12565b156111445760405162461bcd60e51b815260206004820152601a60248201527f4d43543a205369676e657220616c7265616479206578697374730000000000006044820152606401610815565b600b80546001810182556000919091527f0175b7a638427703f0dbe7bb9bbf987a2551717b34e79f33b5b1008d1fa01db90180546001600160a01b0319166001600160a01b0392909216919091179055565b61119e611333565b6001600160a01b0381166112035760405162461bcd60e51b815260206004820152602660248201527f4f776e61626c653a206e6577206f776e657220697320746865207a65726f206160448201526564647265737360d01b6064820152608401610815565b61120c816117aa565b50565b6001600160a01b0383166112715760405162461bcd60e51b8152602060048201526024808201527f45524332303a20617070726f76652066726f6d20746865207a65726f206164646044820152637265737360e01b6064820152608401610815565b6001600160a01b0382166112d25760405162461bcd60e51b815260206004820152602260248201527f45524332303a20617070726f766520746f20746865207a65726f206164647265604482015261737360f01b6064820152608401610815565b6001600160a01b0383811660008181526001602090815260408083209487168084529482529182902085905590518481527f8c5be1e5ebec7d5bd14f71427d1e84f3dd0314c0f7b2291e5b200ac8c7c3b925910160405180910390a3505050565b6005546001600160a01b03163314610e105760405162461bcd60e51b815260206004820181905260248201527f4f776e61626c653a2063616c6c6572206973206e6f7420746865206f776e65726044820152606401610815565b6113b7847f0000000000000000000000000000000000000000000000000000000000000000611fb5565b4210156113fc5760405162461bcd60e51b81526020600482015260136024820152721350d50e88131bd8dacb5a5b8814195c9a5bd9606a1b6044820152606401610815565b6000856006148061140d5750856007145b156114195750826114f6565b600086815260066020526040812054810361145f576114587f000000000000000000000000000000000000000000000000000000000000000042611f44565b905061147b565b6000878152600660205260409020546114789042611f44565b90505b600061148a62093a8083612105565b9050600081116114d85760405162461bcd60e51b81526020600482015260196024820152781350d50e8810db185a5b4814195c9a5bd908125b9d985b1a59603a1b6044820152606401610815565b60006114e48688612105565b90506114f08183612127565b93505050505b838111156115415760405162461bcd60e51b81526020600482015260186024820152771350d50e8810db185a5b48131a5b5a5d0814995858da195960421b6044820152606401610815565b6000868152600760205260408120805483929061155f908490611fb5565b9091555050600086815260066020526040902042905561157f82826117fc565b505050505050565b60006115938484611065565b90506000198114610c2d57818110156115ee5760405162461bcd60e51b815260206004820152601d60248201527f45524332303a20696e73756666696369656e7420616c6c6f77616e63650000006044820152606401610815565b610c2d848484840361120f565b6001600160a01b03831661165f5760405162461bcd60e51b815260206004820152602560248201527f45524332303a207472616e736665722066726f6d20746865207a65726f206164604482015264647265737360d81b6064820152608401610815565b6001600160a01b0382166116c15760405162461bcd60e51b815260206004820152602360248201527f45524332303a207472616e7366657220746f20746865207a65726f206164647260448201526265737360e81b6064820152608401610815565b6116cc83838361186f565b6001600160a01b038316600090815260208190526040902054818110156117445760405162461bcd60e51b815260206004820152602660248201527f45524332303a207472616e7366657220616d6f756e7420657863656564732062604482015265616c616e636560d01b6064820152608401610815565b6001600160a01b03848116600081815260208181526040808320878703905593871680835291849020805487019055925185815290927fddf252ad1be2c89b69c2b068fc378daa952ba7f163c4a11628f55a4df523b3ef910160405180910390a3610c2d565b600580546001600160a01b038381166001600160a01b0319831681179093556040519116919082907f8be0079c531659141344cd1fd0a4f28419497f9722a3daafe3b4186f6b6457e090600090a35050565b6b1363156bbee3016d700000008161181360025490565b61181d9190611fb5565b11156118655760405162461bcd60e51b81526020600482015260176024820152761350d50e8813585e0814dd5c1c1b1e4814995858da1959604a1b6044820152606401610815565b610d638282611bf5565b6001600160a01b03831673910bbe8b14dbe813ea3f0e268058b024bf5301d91480156118ad5750826001600160a01b0316826001600160a01b031614155b15611986576001600160a01b03821660009081526008602052604090205460ff1615611955576001600160a01b0382166000908152600a6020526040902054156119505760405162461bcd60e51b815260206004820152602e60248201527f4d43543a20596f752061726520616c726561647920726567697374657265642060448201526d30b99030b71034b73b32b9ba37b960911b6064820152608401610815565b611986565b6001600160a01b0382166000908152600860209081526040808320805460ff19166001179055600a90915290204290555b6001600160a01b03831660009081526008602052604090205460ff1615611bf0576001600160a01b0383166000908152600a60205260408120546119cd9062eff100611fb5565b6119d79042611f44565b905060006119e862093a8083612105565b905060348110611a2c576001600160a01b0385166000908152600860209081526040808320805460ff1916905560098252808320839055600a909152812055611bed565b601a8110158015611a3e575060348111155b8015611a7757506001600160a01b0385166000908152600960209081526040808320549183905290912054611a739190611f44565b8311155b15611bed576001600160a01b0385166000908152600a6020526040902054611aa29062eff100611fb5565b421015611b045760405162461bcd60e51b815260206004820152602a60248201527f4d43543a20546865206c6f636b646f776e20706572696f6420686173206e6f74604482015269081e595d08195b99195960b21b6064820152608401610815565b60008111611b545760405162461bcd60e51b815260206004820181905260248201527f4d43543a2056657374696e6720706572696f6420697320696e636f72726563746044820152606401610815565b6001600160a01b038516600090815260096020526040812054611b7c906301dfe20090612105565b90506000611b8a8383612127565b905080851115611bea5760405162461bcd60e51b815260206004820152602560248201527f4d43543a20457863656564732070726576696f75736c792076657374656420616044820152641b5bdd5b9d60da1b6064820152608401610815565b50505b50505b505050565b6001600160a01b038216611c4b5760405162461bcd60e51b815260206004820152601f60248201527f45524332303a206d696e7420746f20746865207a65726f2061646472657373006044820152606401610815565b611c576000838361186f565b8060026000828254611c699190611fb5565b90915550506001600160a01b038216600081815260208181526040808320805486019055518481527fddf252ad1be2c89b69c2b068fc378daa952ba7f163c4a11628f55a4df523b3ef910160405180910390a35050565b600060208083528351808285015260005b81811015611ced57858101830151858201604001528201611cd1565b506000604082860101526040601f19601f8301168501019250505092915050565b80356001600160a01b0381168114611d2557600080fd5b919050565b60008060408385031215611d3d57600080fd5b611d4683611d0e565b946020939093013593505050565b600060208284031215611d6657600080fd5b611d6f82611d0e565b9392505050565b600060208284031215611d8857600080fd5b5035919050565b600080600060608486031215611da457600080fd5b611dad84611d0e565b9250611dbb60208501611d0e565b9150604084013590509250925092565b634e487b7160e01b600052604160045260246000fd5b600060208284031215611df357600080fd5b813567ffffffffffffffff80821115611e0b57600080fd5b818401915084601f830112611e1f57600080fd5b813581811115611e3157611e31611dcb565b604051601f8201601f19908116603f01168101908382118183101715611e5957611e59611dcb565b81604052828152876020848701011115611e7257600080fd5b826020860160208301376000928101602001929092525095945050505050565b60008060408385031215611ea557600080fd5b611eae83611d0e565b9150611ebc60208401611d0e565b90509250929050565b600181811c90821680611ed957607f821691505b602082108103611ef957634e487b7160e01b600052602260045260246000fd5b50919050565b634e487b7160e01b600052603260045260246000fd5b634e487b7160e01b600052601160045260246000fd5b600060018201611f3d57611f3d611f15565b5060010190565b818103818111156107b6576107b6611f15565b634e487b7160e01b600052603160045260246000fd5b60208082526028908201527f4d43543a204f6e6c79207369676e6572732063616e2063616c6c207468697320604082015267333ab731ba34b7b760c11b606082015260800190565b808201808211156107b6576107b6611f15565b6020808252601b908201527f4d43543a204f7065726174696f6e206e6f742070726f706f7365640000000000604082015260600190565b601f821115611bf057600081815260208120601f850160051c810160208610156120265750805b601f850160051c820191505b8181101561157f57828155600101612032565b815167ffffffffffffffff81111561205f5761205f611dcb565b6120738161206d8454611ec5565b84611fff565b602080601f8311600181146120a857600084156120905750858301515b600019600386901b1c1916600185901b17855561157f565b600085815260208120601f198616915b828110156120d7578886015182559484019460019091019084016120b8565b50858210156120f55787850151600019600388901b60f8161c191681555b5050505050600190811b01905550565b60008261212257634e487b7160e01b600052601260045260246000fd5b500490565b80820281158282048414176107b6576107b6611f1556fea26469706673582212204bb94f88727dc485479d144770d90c6323457b233ed3c2e7a7eaf0f8fdaebd9b64736f6c63430008110033","opcodes":"PUSH1 0xA0 PUSH1 0x40 MSTORE CALLVALUE DUP1 ISZERO PUSH3 0x11 JUMPI PUSH1 0x0 DUP1 REVERT JUMPDEST POP PUSH1 0x40 MLOAD PUSH3 0x25CD CODESIZE SUB DUP1 PUSH3 0x25CD DUP4 CODECOPY DUP2 ADD PUSH1 0x40 DUP2 SWAP1 MSTORE PUSH3 0x34 SWAP2 PUSH3 0x242 JUMP JUMPDEST DUP2 DUP2 PUSH1 0x3 PUSH3 0x44 DUP4 DUP3 PUSH3 0x33B JUMP JUMPDEST POP PUSH1 0x4 PUSH3 0x53 DUP3 DUP3 PUSH3 0x33B JUMP JUMPDEST POP POP POP PUSH3 0x70 PUSH3 0x6A PUSH3 0x127 PUSH1 0x20 SHL PUSH1 0x20 SHR JUMP JUMPDEST PUSH3 0x12B JUMP JUMPDEST PUSH12 0x1363156BBEE3016D70000000 PUSH11 0x94E47B8D68171534000000 PUSH11 0x31A17E847807B1BC000000 PUSH12 0x15B6A759F4835DC24000000 DUP1 PUSH12 0x25391EE35A05C54D0000000 PUSH3 0xD4 PUSH12 0x1F04EF12CB04CF158000000 PUSH12 0xBA1D9A70C21CDA810000000 PUSH3 0x407 JUMP JUMPDEST PUSH3 0xE0 SWAP2 SWAP1 PUSH3 0x407 JUMP JUMPDEST PUSH3 0xEC SWAP2 SWAP1 PUSH3 0x407 JUMP JUMPDEST PUSH3 0xF8 SWAP2 SWAP1 PUSH3 0x407 JUMP JUMPDEST PUSH3 0x104 SWAP2 SWAP1 PUSH3 0x407 JUMP JUMPDEST PUSH3 0x110 SWAP2 SWAP1 PUSH3 0x407 JUMP JUMPDEST EQ PUSH3 0x11B JUMPI PUSH1 0x0 DUP1 REVERT JUMPDEST POP POP TIMESTAMP PUSH1 0x80 MSTORE PUSH3 0x42F JUMP JUMPDEST CALLER SWAP1 JUMP JUMPDEST PUSH1 0x5 DUP1 SLOAD PUSH1 0x1 PUSH1 0x1 PUSH1 0xA0 SHL SUB DUP4 DUP2 AND PUSH1 0x1 PUSH1 0x1 PUSH1 0xA0 SHL SUB NOT DUP4 AND DUP2 OR SWAP1 SWAP4 SSTORE PUSH1 0x40 MLOAD SWAP2 AND SWAP2 SWAP1 DUP3 SWAP1 PUSH32 0x8BE0079C531659141344CD1FD0A4F28419497F9722A3DAAFE3B4186F6B6457E0 SWAP1 PUSH1 0x0 SWAP1 LOG3 POP POP JUMP JUMPDEST PUSH4 0x4E487B71 PUSH1 0xE0 SHL PUSH1 0x0 MSTORE PUSH1 0x41 PUSH1 0x4 MSTORE PUSH1 0x24 PUSH1 0x0 REVERT JUMPDEST PUSH1 0x0 DUP3 PUSH1 0x1F DUP4 ADD SLT PUSH3 0x1A5 JUMPI PUSH1 0x0 DUP1 REVERT JUMPDEST DUP2 MLOAD PUSH1 0x1 PUSH1 0x1 PUSH1 0x40 SHL SUB DUP1 DUP3 GT ISZERO PUSH3 0x1C2 JUMPI PUSH3 0x1C2 PUSH3 0x17D JUMP JUMPDEST PUSH1 0x40 MLOAD PUSH1 0x1F DUP4 ADD PUSH1 0x1F NOT SWAP1 DUP2 AND PUSH1 0x3F ADD AND DUP2 ADD SWAP1 DUP3 DUP3 GT DUP2 DUP4 LT OR ISZERO PUSH3 0x1ED JUMPI PUSH3 0x1ED PUSH3 0x17D JUMP JUMPDEST DUP2 PUSH1 0x40 MSTORE DUP4 DUP2 MSTORE PUSH1 0x20 SWAP3 POP DUP7 DUP4 DUP6 DUP9 ADD ADD GT ISZERO PUSH3 0x20A JUMPI PUSH1 0x0 DUP1 REVERT JUMPDEST PUSH1 0x0 SWAP2 POP JUMPDEST DUP4 DUP3 LT ISZERO PUSH3 0x22E JUMPI DUP6 DUP3 ADD DUP4 ADD MLOAD DUP2 DUP4 ADD DUP5 ADD MSTORE SWAP1 DUP3 ADD SWAP1 PUSH3 0x20F JUMP JUMPDEST PUSH1 0x0 SWAP4 DUP2 ADD SWAP1 SWAP3 ADD SWAP3 SWAP1 SWAP3 MSTORE SWAP5 SWAP4 POP POP POP POP JUMP JUMPDEST PUSH1 0x0 DUP1 PUSH1 0x40 DUP4 DUP6 SUB SLT ISZERO PUSH3 0x256 JUMPI PUSH1 0x0 DUP1 REVERT JUMPDEST DUP3 MLOAD PUSH1 0x1 PUSH1 0x1 PUSH1 0x40 SHL SUB DUP1 DUP3 GT ISZERO PUSH3 0x26E JUMPI PUSH1 0x0 DUP1 REVERT JUMPDEST PUSH3 0x27C DUP7 DUP4 DUP8 ADD PUSH3 0x193 JUMP JUMPDEST SWAP4 POP PUSH1 0x20 DUP6 ADD MLOAD SWAP2 POP DUP1 DUP3 GT ISZERO PUSH3 0x293 JUMPI PUSH1 0x0 DUP1 REVERT JUMPDEST POP PUSH3 0x2A2 DUP6 DUP3 DUP7 ADD PUSH3 0x193 JUMP JUMPDEST SWAP2 POP POP SWAP3 POP SWAP3 SWAP1 POP JUMP JUMPDEST PUSH1 0x1 DUP2 DUP2 SHR SWAP1 DUP3 AND DUP1 PUSH3 0x2C1 JUMPI PUSH1 0x7F DUP3 AND SWAP2 POP JUMPDEST PUSH1 0x20 DUP3 LT DUP2 SUB PUSH3 0x2E2 JUMPI PUSH4 0x4E487B71 PUSH1 0xE0 SHL PUSH1 0x0 MSTORE PUSH1 0x22 PUSH1 0x4 MSTORE PUSH1 0x24 PUSH1 0x0 REVERT JUMPDEST POP SWAP2 SWAP1 POP JUMP JUMPDEST PUSH1 0x1F DUP3 GT ISZERO PUSH3 0x336 JUMPI PUSH1 0x0 DUP2 DUP2 MSTORE PUSH1 0x20 DUP2 KECCAK256 PUSH1 0x1F DUP6 ADD PUSH1 0x5 SHR DUP2 ADD PUSH1 0x20 DUP7 LT ISZERO PUSH3 0x311 JUMPI POP DUP1 JUMPDEST PUSH1 0x1F DUP6 ADD PUSH1 0x5 SHR DUP3 ADD SWAP2 POP JUMPDEST DUP2 DUP2 LT ISZERO PUSH3 0x332 JUMPI DUP3 DUP2 SSTORE PUSH1 0x1 ADD PUSH3 0x31D JUMP JUMPDEST POP POP POP JUMPDEST POP POP POP JUMP JUMPDEST DUP2 MLOAD PUSH1 0x1 PUSH1 0x1 PUSH1 0x40 SHL SUB DUP2 GT ISZERO PUSH3 0x357 JUMPI PUSH3 0x357 PUSH3 0x17D JUMP JUMPDEST PUSH3 0x36F DUP2 PUSH3 0x368 DUP5 SLOAD PUSH3 0x2AC JUMP JUMPDEST DUP5 PUSH3 0x2E8 JUMP JUMPDEST PUSH1 0x20 DUP1 PUSH1 0x1F DUP4 GT PUSH1 0x1 DUP2 EQ PUSH3 0x3A7 JUMPI PUSH1 0x0 DUP5 ISZERO PUSH3 0x38E JUMPI POP DUP6 DUP4 ADD MLOAD JUMPDEST PUSH1 0x0 NOT PUSH1 0x3 DUP7 SWAP1 SHL SHR NOT AND PUSH1 0x1 DUP6 SWAP1 SHL OR DUP6 SSTORE PUSH3 0x332 JUMP JUMPDEST PUSH1 0x0 DUP6 DUP2 MSTORE PUSH1 0x20 DUP2 KECCAK256 PUSH1 0x1F NOT DUP7 AND SWAP2 JUMPDEST DUP3 DUP2 LT ISZERO PUSH3 0x3D8 JUMPI DUP9 DUP7 ADD MLOAD DUP3 SSTORE SWAP5 DUP5 ADD SWAP5 PUSH1 0x1 SWAP1 SWAP2 ADD SWAP1 DUP5 ADD PUSH3 0x3B7 JUMP JUMPDEST POP DUP6 DUP3 LT ISZERO PUSH3 0x3F7 JUMPI DUP8 DUP6 ADD MLOAD PUSH1 0x0 NOT PUSH1 0x3 DUP9 SWAP1 SHL PUSH1 0xF8 AND SHR NOT AND DUP2 SSTORE JUMPDEST POP POP POP POP POP PUSH1 0x1 SWAP1 DUP2 SHL ADD SWAP1 SSTORE POP JUMP JUMPDEST DUP1 DUP3 ADD DUP1 DUP3 GT ISZERO PUSH3 0x429 JUMPI PUSH4 0x4E487B71 PUSH1 0xE0 SHL PUSH1 0x0 MSTORE PUSH1 0x11 PUSH1 0x4 MSTORE PUSH1 0x24 PUSH1 0x0 REVERT JUMPDEST SWAP3 SWAP2 POP POP JUMP JUMPDEST PUSH1 0x80 MLOAD PUSH2 0x2174 PUSH3 0x459 PUSH1 0x0 CODECOPY PUSH1 0x0 DUP2 DUP2 PUSH2 0x65B ADD MSTORE DUP2 DUP2 PUSH2 0x1393 ADD MSTORE PUSH2 0x1433 ADD MSTORE PUSH2 0x2174 PUSH1 0x0 RETURN INVALID PUSH1 0x80 PUSH1 0x40 MSTORE CALLVALUE DUP1 ISZERO PUSH2 0x10 JUMPI PUSH1 0x0 DUP1 REVERT JUMPDEST POP PUSH1 0x4 CALLDATASIZE LT PUSH2 0x2D7 JUMPI PUSH1 0x0 CALLDATALOAD PUSH1 0xE0 SHR DUP1 PUSH4 0x8DA5CB5B GT PUSH2 0x188 JUMPI DUP1 PUSH4 0xBBA85E0D GT PUSH2 0xE4 JUMPI DUP1 PUSH4 0xDF5E8452 GT PUSH2 0x92 JUMPI DUP1 PUSH4 0xDF5E8452 EQ PUSH2 0x67D JUMPI DUP1 PUSH4 0xE2571F5D EQ PUSH2 0x698 JUMPI DUP1 PUSH4 0xEB12D61E EQ PUSH2 0x6AA JUMPI DUP1 PUSH4 0xF2FDE38B EQ PUSH2 0x6BD JUMPI DUP1 PUSH4 0xF76B8FE2 EQ PUSH2 0x6D0 JUMPI DUP1 PUSH4 0xFD99CBED EQ PUSH2 0x5BC JUMPI DUP1 PUSH4 0xFEEEE007 EQ PUSH2 0x6F0 JUMPI PUSH1 0x0 DUP1 REVERT JUMPDEST DUP1 PUSH4 0xBBA85E0D EQ PUSH2 0x5CF JUMPI DUP1 PUSH4 0xBEA06016 EQ PUSH2 0x5D7 JUMPI DUP1 PUSH4 0xCB4B4FF9 EQ PUSH2 0x5F2 JUMPI DUP1 PUSH4 0xCEE2A9CF EQ PUSH2 0x605 JUMPI DUP1 PUSH4 0xD95E277A EQ PUSH2 0x628 JUMPI DUP1 PUSH4 0xDD62ED3E EQ PUSH2 0x643 JUMPI DUP1 PUSH4 0xDDAA26AD EQ PUSH2 0x656 JUMPI PUSH1 0x0 DUP1 REVERT JUMPDEST DUP1 PUSH4 0xAAFF1F18 GT PUSH2 0x141 JUMPI DUP1 PUSH4 0xAAFF1F18 EQ PUSH2 0x552 JUMPI DUP1 PUSH4 0xAC0B2353 EQ PUSH2 0x55A JUMPI DUP1 PUSH4 0xB16179BF EQ PUSH2 0x565 JUMPI DUP1 PUSH4 0xB179FA72 EQ PUSH2 0x56E JUMPI DUP1 PUSH4 0xB4E5DF40 EQ PUSH2 0x58E JUMPI DUP1 PUSH4 0xB6EF599C EQ PUSH2 0x5A1 JUMPI DUP1 PUSH4 0xBA558D61 EQ PUSH2 0x5BC JUMPI PUSH1 0x0 DUP1 REVERT JUMPDEST DUP1 PUSH4 0x8DA5CB5B EQ PUSH2 0x4F8 JUMPI DUP1 PUSH4 0x93AD411A EQ PUSH2 0x3BD JUMPI DUP1 PUSH4 0x95D89B41 EQ PUSH2 0x509 JUMPI DUP1 PUSH4 0x9E3299F2 EQ PUSH2 0x511 JUMPI DUP1 PUSH4 0xA457C2D7 EQ PUSH2 0x52C JUMPI DUP1 PUSH4 0xA9059CBB EQ PUSH2 0x53F JUMPI PUSH1 0x0 DUP1 REVERT JUMPDEST DUP1 PUSH4 0x41350691 GT PUSH2 0x237 JUMPI DUP1 PUSH4 0x70A08231 GT PUSH2 0x1F0 JUMPI DUP1 PUSH4 0x70A08231 EQ PUSH2 0x46C JUMPI DUP1 PUSH4 0x715018A6 EQ PUSH2 0x495 JUMPI DUP1 PUSH4 0x7DF73E27 EQ PUSH2 0x49D JUMPI DUP1 PUSH4 0x831EDEBE EQ PUSH2 0x4B0 JUMPI DUP1 PUSH4 0x87BDC093 EQ PUSH2 0x4CB JUMPI DUP1 PUSH4 0x8820A1FD EQ PUSH2 0x4DD JUMPI DUP1 PUSH4 0x8C366214 EQ PUSH2 0x4E5 JUMPI PUSH1 0x0 DUP1 REVERT JUMPDEST DUP1 PUSH4 0x41350691 EQ PUSH2 0x40D JUMPI DUP1 PUSH4 0x4CA6A094 EQ PUSH2 0x420 JUMPI DUP1 PUSH4 0x4D703B6A EQ PUSH2 0x433 JUMPI DUP1 PUSH4 0x5C945227 EQ PUSH2 0x43E JUMPI DUP1 PUSH4 0x61FF304F EQ PUSH2 0x451 JUMPI DUP1 PUSH4 0x6338C7E9 EQ PUSH2 0x464 JUMPI PUSH1 0x0 DUP1 REVERT JUMPDEST DUP1 PUSH4 0x16A38F1F GT PUSH2 0x294 JUMPI DUP1 PUSH4 0x16A38F1F EQ PUSH2 0x3A2 JUMPI DUP1 PUSH4 0x18160DDD EQ PUSH2 0x3B5 JUMPI DUP1 PUSH4 0x1940CA17 EQ PUSH2 0x3BD JUMPI DUP1 PUSH4 0x23B872DD EQ PUSH2 0x3C5 JUMPI DUP1 PUSH4 0x313CE567 EQ PUSH2 0x3D8 JUMPI DUP1 PUSH4 0x32CB6B0C EQ PUSH2 0x3E7 JUMPI DUP1 PUSH4 0x39509351 EQ PUSH2 0x3FA JUMPI PUSH1 0x0 DUP1 REVERT JUMPDEST DUP1 PUSH4 0x399516D EQ PUSH2 0x2DC JUMPI DUP1 PUSH4 0x6FDDE03 EQ PUSH2 0x314 JUMPI DUP1 PUSH4 0x95EA7B3 EQ PUSH2 0x329 JUMPI DUP1 PUSH4 0xBD18D7A EQ PUSH2 0x34C JUMPI DUP1 PUSH4 0xE316AB7 EQ PUSH2 0x37A JUMPI DUP1 PUSH4 0xE70306D EQ PUSH2 0x38F JUMPI JUMPDEST PUSH1 0x0 DUP1 REVERT JUMPDEST PUSH2 0x2F7 PUSH20 0xA0B9FE04F0E6E44E42C90CFE30507769E91C1919 DUP2 JUMP JUMPDEST PUSH1 0x40 MLOAD PUSH1 0x1 PUSH1 0x1 PUSH1 0xA0 SHL SUB SWAP1 SWAP2 AND DUP2 MSTORE PUSH1 0x20 ADD JUMPDEST PUSH1 0x40 MLOAD DUP1 SWAP2 SUB SWAP1 RETURN JUMPDEST PUSH2 0x31C PUSH2 0x710 JUMP JUMPDEST PUSH1 0x40 MLOAD PUSH2 0x30B SWAP2 SWAP1 PUSH2 0x1CC0 JUMP JUMPDEST PUSH2 0x33C PUSH2 0x337 CALLDATASIZE PUSH1 0x4 PUSH2 0x1D2A JUMP JUMPDEST PUSH2 0x7A2 JUMP JUMPDEST PUSH1 0x40 MLOAD SWAP1 ISZERO ISZERO DUP2 MSTORE PUSH1 0x20 ADD PUSH2 0x30B JUMP JUMPDEST PUSH2 0x36C PUSH2 0x35A CALLDATASIZE PUSH1 0x4 PUSH2 0x1D54 JUMP JUMPDEST PUSH1 0x9 PUSH1 0x20 MSTORE PUSH1 0x0 SWAP1 DUP2 MSTORE PUSH1 0x40 SWAP1 KECCAK256 SLOAD DUP2 JUMP JUMPDEST PUSH1 0x40 MLOAD SWAP1 DUP2 MSTORE PUSH1 0x20 ADD PUSH2 0x30B JUMP JUMPDEST PUSH2 0x38D PUSH2 0x388 CALLDATASIZE PUSH1 0x4 PUSH2 0x1D54 JUMP JUMPDEST PUSH2 0x7BC JUMP JUMPDEST STOP JUMPDEST PUSH2 0x38D PUSH2 0x39D CALLDATASIZE PUSH1 0x4 PUSH2 0x1D76 JUMP JUMPDEST PUSH2 0x92F JUMP JUMPDEST PUSH2 0x38D PUSH2 0x3B0 CALLDATASIZE PUSH1 0x4 PUSH2 0x1D76 JUMP JUMPDEST PUSH2 0xC33 JUMP JUMPDEST PUSH1 0x2 SLOAD PUSH2 0x36C JUMP JUMPDEST PUSH2 0x36C PUSH1 0x9C DUP2 JUMP JUMPDEST PUSH2 0x33C PUSH2 0x3D3 CALLDATASIZE PUSH1 0x4 PUSH2 0x1D8F JUMP JUMPDEST PUSH2 0xD09 JUMP JUMPDEST PUSH1 0x40 MLOAD PUSH1 0x12 DUP2 MSTORE PUSH1 0x20 ADD PUSH2 0x30B JUMP JUMPDEST PUSH2 0x36C PUSH12 0x1363156BBEE3016D70000000 DUP2 JUMP JUMPDEST PUSH2 0x33C PUSH2 0x408 CALLDATASIZE PUSH1 0x4 PUSH2 0x1D2A JUMP JUMPDEST PUSH2 0xD2D JUMP JUMPDEST PUSH2 0x38D PUSH2 0x41B CALLDATASIZE PUSH1 0x4 PUSH2 0x1DE1 JUMP JUMPDEST PUSH2 0xD4F JUMP JUMPDEST PUSH2 0x36C PUSH12 0xBA1D9A70C21CDA810000000 DUP2 JUMP JUMPDEST PUSH2 0x36C PUSH4 0x3BFC400 DUP2 JUMP JUMPDEST PUSH2 0x38D PUSH2 0x44C CALLDATASIZE PUSH1 0x4 PUSH2 0x1D76 JUMP JUMPDEST PUSH2 0xD67 JUMP JUMPDEST PUSH2 0x38D PUSH2 0x45F CALLDATASIZE PUSH1 0x4 PUSH2 0x1DE1 JUMP JUMPDEST PUSH2 0xDEA JUMP JUMPDEST PUSH2 0x36C PUSH1 0x68 DUP2 JUMP JUMPDEST PUSH2 0x36C PUSH2 0x47A CALLDATASIZE PUSH1 0x4 PUSH2 0x1D54 JUMP JUMPDEST PUSH1 0x1 PUSH1 0x1 PUSH1 0xA0 SHL SUB AND PUSH1 0x0 SWAP1 DUP2 MSTORE PUSH1 0x20 DUP2 SWAP1 MSTORE PUSH1 0x40 SWAP1 KECCAK256 SLOAD SWAP1 JUMP JUMPDEST PUSH2 0x38D PUSH2 0xDFE JUMP JUMPDEST PUSH2 0x33C PUSH2 0x4AB CALLDATASIZE PUSH1 0x4 PUSH2 0x1D54 JUMP JUMPDEST PUSH2 0xE12 JUMP JUMPDEST PUSH2 0x2F7 PUSH20 0x910BBE8B14DBE813EA3F0E268058B024BF5301D9 DUP2 JUMP JUMPDEST PUSH2 0x36C PUSH11 0x31A17E847807B1BC000000 DUP2 JUMP JUMPDEST PUSH2 0x31C PUSH2 0xE7B JUMP JUMPDEST PUSH2 0x38D PUSH2 0x4F3 CALLDATASIZE PUSH1 0x4 PUSH2 0x1D76 JUMP JUMPDEST PUSH2 0xF09 JUMP JUMPDEST PUSH1 0x5 SLOAD PUSH1 0x1 PUSH1 0x1 PUSH1 0xA0 SHL SUB AND PUSH2 0x2F7 JUMP JUMPDEST PUSH2 0x31C PUSH2 0xFC0 JUMP JUMPDEST PUSH2 0x2F7 PUSH20 0xF32FB437A2768F02FADA4D97ABE76D8F306F44FE DUP2 JUMP JUMPDEST PUSH2 0x33C PUSH2 0x53A CALLDATASIZE PUSH1 0x4 PUSH2 0x1D2A JUMP JUMPDEST PUSH2 0xFCF JUMP JUMPDEST PUSH2 0x33C PUSH2 0x54D CALLDATASIZE PUSH1 0x4 PUSH2 0x1D2A JUMP JUMPDEST PUSH2 0x104A JUMP JUMPDEST PUSH2 0x36C PUSH1 0x34 DUP2 JUMP JUMPDEST PUSH2 0x36C PUSH4 0x1DFE200 DUP2 JUMP JUMPDEST PUSH2 0x36C PUSH2 0x208 DUP2 JUMP JUMPDEST PUSH2 0x36C PUSH2 0x57C CALLDATASIZE PUSH1 0x4 PUSH2 0x1D76 JUMP JUMPDEST PUSH1 0x6 PUSH1 0x20 MSTORE PUSH1 0x0 SWAP1 DUP2 MSTORE PUSH1 0x40 SWAP1 KECCAK256 SLOAD DUP2 JUMP JUMPDEST PUSH2 0x36C PUSH12 0x25391EE35A05C54D0000000 DUP2 JUMP JUMPDEST PUSH2 0x2F7 PUSH20 0xD1E532C785DEEC90C1C69C7C5A7DCD28A8F74248 DUP2 JUMP JUMPDEST PUSH2 0x36C PUSH12 0x15B6A759F4835DC24000000 DUP2 JUMP JUMPDEST PUSH2 0x31C PUSH2 0x1058 JUMP JUMPDEST PUSH2 0x2F7 PUSH20 0x8A83D34FA97910B0786D8DAB29C5F3ACA5C1CC76 DUP2 JUMP JUMPDEST PUSH2 0x36C PUSH12 0x1F04EF12CB04CF158000000 DUP2 JUMP JUMPDEST PUSH2 0x33C PUSH2 0x613 CALLDATASIZE PUSH1 0x4 PUSH2 0x1D54 JUMP JUMPDEST PUSH1 0x8 PUSH1 0x20 MSTORE PUSH1 0x0 SWAP1 DUP2 MSTORE PUSH1 0x40 SWAP1 KECCAK256 SLOAD PUSH1 0xFF AND DUP2 JUMP JUMPDEST PUSH2 0x2F7 PUSH20 0xB54E1C4B3927F4489EAD5C149B7895ECD03A5CE0 DUP2 JUMP JUMPDEST PUSH2 0x36C PUSH2 0x651 CALLDATASIZE PUSH1 0x4 PUSH2 0x1E92 JUMP JUMPDEST PUSH2 0x1065 JUMP JUMPDEST PUSH2 0x36C PUSH32 0x0 DUP2 JUMP JUMPDEST PUSH2 0x2F7 PUSH20 0x8824FE9FA03D3716A762375867FAC2052CD54A8C DUP2 JUMP JUMPDEST PUSH2 0x36C PUSH11 0x94E47B8D68171534000000 DUP2 JUMP JUMPDEST PUSH2 0x38D PUSH2 0x6B8 CALLDATASIZE PUSH1 0x4 PUSH2 0x1D54 JUMP JUMPDEST PUSH2 0x1090 JUMP JUMPDEST PUSH2 0x38D PUSH2 0x6CB CALLDATASIZE PUSH1 0x4 PUSH2 0x1D54 JUMP JUMPDEST PUSH2 0x1196 JUMP JUMPDEST PUSH2 0x36C PUSH2 0x6DE CALLDATASIZE PUSH1 0x4 PUSH2 0x1D54 JUMP JUMPDEST PUSH1 0xA PUSH1 0x20 MSTORE PUSH1 0x0 SWAP1 DUP2 MSTORE PUSH1 0x40 SWAP1 KECCAK256 SLOAD DUP2 JUMP JUMPDEST PUSH2 0x36C PUSH2 0x6FE CALLDATASIZE PUSH1 0x4 PUSH2 0x1D76 JUMP JUMPDEST PUSH1 0x7 PUSH1 0x20 MSTORE PUSH1 0x0 SWAP1 DUP2 MSTORE PUSH1 0x40 SWAP1 KECCAK256 SLOAD DUP2 JUMP JUMPDEST PUSH1 0x60 PUSH1 0x3 DUP1 SLOAD PUSH2 0x71F SWAP1 PUSH2 0x1EC5 JUMP JUMPDEST DUP1 PUSH1 0x1F ADD PUSH1 0x20 DUP1 SWAP2 DIV MUL PUSH1 0x20 ADD PUSH1 0x40 MLOAD SWAP1 DUP2 ADD PUSH1 0x40 MSTORE DUP1 SWAP3 SWAP2 SWAP1 DUP2 DUP2 MSTORE PUSH1 0x20 ADD DUP3 DUP1 SLOAD PUSH2 0x74B SWAP1 PUSH2 0x1EC5 JUMP JUMPDEST DUP1 ISZERO PUSH2 0x798 JUMPI DUP1 PUSH1 0x1F LT PUSH2 0x76D JUMPI PUSH2 0x100 DUP1 DUP4 SLOAD DIV MUL DUP4 MSTORE SWAP2 PUSH1 0x20 ADD SWAP2 PUSH2 0x798 JUMP JUMPDEST DUP3 ADD SWAP2 SWAP1 PUSH1 0x0 MSTORE PUSH1 0x20 PUSH1 0x0 KECCAK256 SWAP1 JUMPDEST DUP2 SLOAD DUP2 MSTORE SWAP1 PUSH1 0x1 ADD SWAP1 PUSH1 0x20 ADD DUP1 DUP4 GT PUSH2 0x77B JUMPI DUP3 SWAP1 SUB PUSH1 0x1F AND DUP3 ADD SWAP2 JUMPDEST POP POP POP POP POP SWAP1 POP SWAP1 JUMP JUMPDEST PUSH1 0x0 CALLER PUSH2 0x7B0 DUP2 DUP6 DUP6 PUSH2 0x120F JUMP JUMPDEST PUSH1 0x1 SWAP2 POP POP JUMPDEST SWAP3 SWAP2 POP POP JUMP JUMPDEST PUSH2 0x7C4 PUSH2 0x1333 JUMP JUMPDEST PUSH2 0x7CD DUP2 PUSH2 0xE12 JUMP JUMPDEST PUSH2 0x81E JUMPI PUSH1 0x40 MLOAD PUSH3 0x461BCD PUSH1 0xE5 SHL DUP2 MSTORE PUSH1 0x20 PUSH1 0x4 DUP3 ADD MSTORE PUSH1 0x1A PUSH1 0x24 DUP3 ADD MSTORE PUSH32 0x4D43543A205369676E657220646F6573206E6F74206578697374000000000000 PUSH1 0x44 DUP3 ADD MSTORE PUSH1 0x64 ADD JUMPDEST PUSH1 0x40 MLOAD DUP1 SWAP2 SUB SWAP1 REVERT JUMPDEST PUSH1 0x0 DUP1 JUMPDEST PUSH1 0xB SLOAD DUP2 LT ISZERO PUSH2 0x87D JUMPI DUP3 PUSH1 0x1 PUSH1 0x1 PUSH1 0xA0 SHL SUB AND PUSH1 0xB DUP3 DUP2 SLOAD DUP2 LT PUSH2 0x849 JUMPI PUSH2 0x849 PUSH2 0x1EFF JUMP JUMPDEST PUSH1 0x0 SWAP2 DUP3 MSTORE PUSH1 0x20 SWAP1 SWAP2 KECCAK256 ADD SLOAD PUSH1 0x1 PUSH1 0x1 PUSH1 0xA0 SHL SUB AND SUB PUSH2 0x86B JUMPI DUP1 SWAP2 POP PUSH2 0x87D JUMP JUMPDEST DUP1 PUSH2 0x875 DUP2 PUSH2 0x1F2B JUMP JUMPDEST SWAP2 POP POP PUSH2 0x822 JUMP JUMPDEST POP PUSH1 0xB DUP1 SLOAD PUSH2 0x88E SWAP1 PUSH1 0x1 SWAP1 PUSH2 0x1F44 JUMP JUMPDEST DUP2 SLOAD DUP2 LT PUSH2 0x89E JUMPI PUSH2 0x89E PUSH2 0x1EFF JUMP JUMPDEST PUSH1 0x0 SWAP2 DUP3 MSTORE PUSH1 0x20 SWAP1 SWAP2 KECCAK256 ADD SLOAD PUSH1 0xB DUP1 SLOAD PUSH1 0x1 PUSH1 0x1 PUSH1 0xA0 SHL SUB SWAP1 SWAP3 AND SWAP2 DUP4 SWAP1 DUP2 LT PUSH2 0x8CA JUMPI PUSH2 0x8CA PUSH2 0x1EFF JUMP JUMPDEST SWAP1 PUSH1 0x0 MSTORE PUSH1 0x20 PUSH1 0x0 KECCAK256 ADD PUSH1 0x0 PUSH2 0x100 EXP DUP2 SLOAD DUP2 PUSH1 0x1 PUSH1 0x1 PUSH1 0xA0 SHL SUB MUL NOT AND SWAP1 DUP4 PUSH1 0x1 PUSH1 0x1 PUSH1 0xA0 SHL SUB AND MUL OR SWAP1 SSTORE POP PUSH1 0xB DUP1 SLOAD DUP1 PUSH2 0x909 JUMPI PUSH2 0x909 PUSH2 0x1F57 JUMP JUMPDEST PUSH1 0x0 DUP3 DUP2 MSTORE PUSH1 0x20 SWAP1 KECCAK256 DUP2 ADD PUSH1 0x0 NOT SWAP1 DUP2 ADD DUP1 SLOAD PUSH1 0x1 PUSH1 0x1 PUSH1 0xA0 SHL SUB NOT AND SWAP1 SSTORE ADD SWAP1 SSTORE POP POP JUMP JUMPDEST PUSH2 0x938 CALLER PUSH2 0xE12 JUMP JUMPDEST PUSH2 0x954 JUMPI PUSH1 0x40 MLOAD PUSH3 0x461BCD PUSH1 0xE5 SHL DUP2 MSTORE PUSH1 0x4 ADD PUSH2 0x815 SWAP1 PUSH2 0x1F6D JUMP JUMPDEST PUSH1 0x0 DUP2 DUP2 MSTORE PUSH1 0xD PUSH1 0x20 MSTORE PUSH1 0x40 SWAP1 KECCAK256 SLOAD DUP2 SWAP1 DUP2 SWAP1 PUSH2 0x975 SWAP1 PUSH3 0x2A300 SWAP1 PUSH2 0x1FB5 JUMP JUMPDEST TIMESTAMP LT ISZERO PUSH2 0x9D0 JUMPI PUSH1 0x40 MLOAD PUSH3 0x461BCD PUSH1 0xE5 SHL DUP2 MSTORE PUSH1 0x20 PUSH1 0x4 DUP3 ADD MSTORE PUSH1 0x24 DUP1 DUP3 ADD MSTORE PUSH32 0x4D43543A2054696D656C6F636B20706572696F64206E6F742079657420657870 PUSH1 0x44 DUP3 ADD MSTORE PUSH4 0x1A5C9959 PUSH1 0xE2 SHL PUSH1 0x64 DUP3 ADD MSTORE PUSH1 0x84 ADD PUSH2 0x815 JUMP JUMPDEST PUSH1 0x0 DUP4 DUP2 MSTORE PUSH1 0xC PUSH1 0x20 MSTORE PUSH1 0x40 SWAP1 KECCAK256 SLOAD DUP4 SWAP1 PUSH1 0xFF AND PUSH2 0xA00 JUMPI PUSH1 0x40 MLOAD PUSH3 0x461BCD PUSH1 0xE5 SHL DUP2 MSTORE PUSH1 0x4 ADD PUSH2 0x815 SWAP1 PUSH2 0x1FC8 JUMP JUMPDEST PUSH1 0x0 DUP2 DUP2 MSTORE PUSH1 0xE PUSH1 0x20 MSTORE PUSH1 0x40 SWAP1 KECCAK256 SLOAD PUSH1 0x2 GT ISZERO PUSH2 0xA6F JUMPI PUSH1 0x40 MLOAD PUSH3 0x461BCD PUSH1 0xE5 SHL DUP2 MSTORE PUSH1 0x20 PUSH1 0x4 DUP3 ADD MSTORE PUSH1 0x27 PUSH1 0x24 DUP3 ADD MSTORE PUSH32 0x4D43543A204E6F7420656E6F75676820617070726F76616C7320666F72206F70 PUSH1 0x44 DUP3 ADD MSTORE PUSH7 0x32B930BA34B7B7 PUSH1 0xC9 SHL PUSH1 0x64 DUP3 ADD MSTORE PUSH1 0x84 ADD PUSH2 0x815 JUMP JUMPDEST PUSH1 0x0 DUP2 DUP2 MSTORE PUSH1 0xC PUSH1 0x20 SWAP1 DUP2 MSTORE PUSH1 0x40 DUP1 DUP4 KECCAK256 DUP1 SLOAD PUSH1 0xFF NOT AND SWAP1 SSTORE PUSH1 0xD DUP3 MSTORE DUP1 DUP4 KECCAK256 DUP4 SWAP1 SSTORE PUSH1 0xE SWAP1 SWAP2 MSTORE DUP2 KECCAK256 SSTORE PUSH1 0x1 DUP5 SWAP1 SUB PUSH2 0xAD9 JUMPI PUSH2 0xAD4 PUSH1 0x1 PUSH1 0x0 PUSH12 0xBA1D9A70C21CDA810000000 PUSH2 0x208 PUSH20 0xB54E1C4B3927F4489EAD5C149B7895ECD03A5CE0 PUSH2 0x138D JUMP JUMPDEST PUSH2 0xC2D JUMP JUMPDEST DUP4 PUSH1 0x2 SUB PUSH2 0xB11 JUMPI PUSH2 0xAD4 PUSH1 0x2 PUSH1 0x0 PUSH12 0x1F04EF12CB04CF158000000 PUSH1 0x34 PUSH20 0xF32FB437A2768F02FADA4D97ABE76D8F306F44FE PUSH2 0x138D JUMP JUMPDEST DUP4 PUSH1 0x3 SUB PUSH2 0xB4C JUMPI PUSH2 0xAD4 PUSH1 0x3 PUSH4 0x3BFC400 PUSH12 0x25391EE35A05C54D0000000 PUSH1 0x68 PUSH20 0xD1E532C785DEEC90C1C69C7C5A7DCD28A8F74248 PUSH2 0x138D JUMP JUMPDEST DUP4 PUSH1 0x4 SUB PUSH2 0xB84 JUMPI PUSH2 0xAD4 PUSH1 0x4 PUSH1 0x0 PUSH12 0x15B6A759F4835DC24000000 PUSH1 0x9C PUSH20 0xA0B9FE04F0E6E44E42C90CFE30507769E91C1919 PUSH2 0x138D JUMP JUMPDEST DUP4 PUSH1 0x5 SUB PUSH2 0xBBF JUMPI PUSH2 0xAD4 PUSH1 0x5 PUSH4 0x1DFE200 PUSH12 0x15B6A759F4835DC24000000 PUSH1 0x9C PUSH20 0x8A83D34FA97910B0786D8DAB29C5F3ACA5C1CC76 PUSH2 0x138D JUMP JUMPDEST DUP4 PUSH1 0x6 SUB PUSH2 0xBF6 JUMPI PUSH2 0xAD4 PUSH1 0x6 PUSH1 0x0 PUSH11 0x31A17E847807B1BC000000 PUSH1 0x1 PUSH20 0x8824FE9FA03D3716A762375867FAC2052CD54A8C PUSH2 0x138D JUMP JUMPDEST DUP4 PUSH1 0x7 SUB PUSH2 0xC2D JUMPI PUSH2 0xC2D PUSH1 0x7 PUSH1 0x0 PUSH11 0x94E47B8D68171534000000 PUSH1 0x1 PUSH20 0x910BBE8B14DBE813EA3F0E268058B024BF5301D9 PUSH2 0x138D JUMP JUMPDEST POP POP POP POP JUMP JUMPDEST PUSH2 0xC3C CALLER PUSH2 0xE12 JUMP JUMPDEST PUSH2 0xC58 JUMPI PUSH1 0x40 MLOAD PUSH3 0x461BCD PUSH1 0xE5 SHL DUP2 MSTORE PUSH1 0x4 ADD PUSH2 0x815 SWAP1 PUSH2 0x1F6D JUMP JUMPDEST PUSH1 0x0 DUP2 DUP2 MSTORE PUSH1 0xC PUSH1 0x20 MSTORE PUSH1 0x40 SWAP1 KECCAK256 SLOAD DUP2 SWAP1 PUSH1 0xFF AND PUSH2 0xC88 JUMPI PUSH1 0x40 MLOAD PUSH3 0x461BCD PUSH1 0xE5 SHL DUP2 MSTORE PUSH1 0x4 ADD PUSH2 0x815 SWAP1 PUSH2 0x1FC8 JUMP JUMPDEST PUSH1 0x0 DUP2 DUP2 MSTORE PUSH1 0xE PUSH1 0x20 MSTORE PUSH1 0x40 SWAP1 KECCAK256 SLOAD PUSH1 0x2 GT PUSH2 0xCE6 JUMPI PUSH1 0x40 MLOAD PUSH3 0x461BCD PUSH1 0xE5 SHL DUP2 MSTORE PUSH1 0x20 PUSH1 0x4 DUP3 ADD MSTORE PUSH1 0x1F PUSH1 0x24 DUP3 ADD MSTORE PUSH32 0x4D43543A204F7065726174696F6E20616C726561647920617070726F76656400 PUSH1 0x44 DUP3 ADD MSTORE PUSH1 0x64 ADD PUSH2 0x815 JUMP JUMPDEST PUSH1 0x0 DUP2 DUP2 MSTORE PUSH1 0xE PUSH1 0x20 MSTORE PUSH1 0x40 DUP2 KECCAK256 DUP1 SLOAD SWAP2 PUSH2 0xD00 DUP4 PUSH2 0x1F2B JUMP JUMPDEST SWAP2 SWAP1 POP SSTORE POP POP POP JUMP JUMPDEST PUSH1 0x0 CALLER PUSH2 0xD17 DUP6 DUP3 DUP6 PUSH2 0x1587 JUMP JUMPDEST PUSH2 0xD22 DUP6 DUP6 DUP6 PUSH2 0x15FB JUMP JUMPDEST POP PUSH1 0x1 SWAP5 SWAP4 POP POP POP POP JUMP JUMPDEST PUSH1 0x0 CALLER PUSH2 0x7B0 DUP2 DUP6 DUP6 PUSH2 0xD40 DUP4 DUP4 PUSH2 0x1065 JUMP JUMPDEST PUSH2 0xD4A SWAP2 SWAP1 PUSH2 0x1FB5 JUMP JUMPDEST PUSH2 0x120F JUMP JUMPDEST PUSH2 0xD57 PUSH2 0x1333 JUMP JUMPDEST PUSH1 0xF PUSH2 0xD63 DUP3 DUP3 PUSH2 0x2045 JUMP JUMPDEST POP POP JUMP JUMPDEST PUSH2 0xD70 CALLER PUSH2 0xE12 JUMP JUMPDEST PUSH2 0xD8C JUMPI PUSH1 0x40 MLOAD PUSH3 0x461BCD PUSH1 0xE5 SHL DUP2 MSTORE PUSH1 0x4 ADD PUSH2 0x815 SWAP1 PUSH2 0x1F6D JUMP JUMPDEST PUSH1 0x0 DUP2 DUP2 MSTORE PUSH1 0xC PUSH1 0x20 MSTORE PUSH1 0x40 SWAP1 KECCAK256 SLOAD DUP2 SWAP1 PUSH1 0xFF AND PUSH2 0xDBC JUMPI PUSH1 0x40 MLOAD PUSH3 0x461BCD PUSH1 0xE5 SHL DUP2 MSTORE PUSH1 0x4 ADD PUSH2 0x815 SWAP1 PUSH2 0x1FC8 JUMP JUMPDEST PUSH1 0x0 SWAP1 DUP2 MSTORE PUSH1 0xC PUSH1 0x20 SWAP1 DUP2 MSTORE PUSH1 0x40 DUP1 DUP4 KECCAK256 DUP1 SLOAD PUSH1 0xFF NOT AND SWAP1 SSTORE PUSH1 0xD DUP3 MSTORE DUP1 DUP4 KECCAK256 DUP4 SWAP1 SSTORE PUSH1 0xE SWAP1 SWAP2 MSTORE DUP2 KECCAK256 SSTORE POP JUMP JUMPDEST PUSH2 0xDF2 PUSH2 0x1333 JUMP JUMPDEST PUSH1 0x10 PUSH2 0xD63 DUP3 DUP3 PUSH2 0x2045 JUMP JUMPDEST PUSH2 0xE06 PUSH2 0x1333 JUMP JUMPDEST PUSH2 0xE10 PUSH1 0x0 PUSH2 0x17AA JUMP JUMPDEST JUMP JUMPDEST PUSH1 0x0 DUP1 JUMPDEST PUSH1 0xB SLOAD DUP2 LT ISZERO PUSH2 0xE72 JUMPI DUP3 PUSH1 0x1 PUSH1 0x1 PUSH1 0xA0 SHL SUB AND PUSH1 0xB DUP3 DUP2 SLOAD DUP2 LT PUSH2 0xE3D JUMPI PUSH2 0xE3D PUSH2 0x1EFF JUMP JUMPDEST PUSH1 0x0 SWAP2 DUP3 MSTORE PUSH1 0x20 SWAP1 SWAP2 KECCAK256 ADD SLOAD PUSH1 0x1 PUSH1 0x1 PUSH1 0xA0 SHL SUB AND SUB PUSH2 0xE60 JUMPI POP PUSH1 0x1 SWAP3 SWAP2 POP POP JUMP JUMPDEST DUP1 PUSH2 0xE6A DUP2 PUSH2 0x1F2B JUMP JUMPDEST SWAP2 POP POP PUSH2 0xE16 JUMP JUMPDEST POP PUSH1 0x0 SWAP3 SWAP2 POP POP JUMP JUMPDEST PUSH1 0xF DUP1 SLOAD PUSH2 0xE88 SWAP1 PUSH2 0x1EC5 JUMP JUMPDEST DUP1 PUSH1 0x1F ADD PUSH1 0x20 DUP1 SWAP2 DIV MUL PUSH1 0x20 ADD PUSH1 0x40 MLOAD SWAP1 DUP2 ADD PUSH1 0x40 MSTORE DUP1 SWAP3 SWAP2 SWAP1 DUP2 DUP2 MSTORE PUSH1 0x20 ADD DUP3 DUP1 SLOAD PUSH2 0xEB4 SWAP1 PUSH2 0x1EC5 JUMP JUMPDEST DUP1 ISZERO PUSH2 0xF01 JUMPI DUP1 PUSH1 0x1F LT PUSH2 0xED6 JUMPI PUSH2 0x100 DUP1 DUP4 SLOAD DIV MUL DUP4 MSTORE SWAP2 PUSH1 0x20 ADD SWAP2 PUSH2 0xF01 JUMP JUMPDEST DUP3 ADD SWAP2 SWAP1 PUSH1 0x0 MSTORE PUSH1 0x20 PUSH1 0x0 KECCAK256 SWAP1 JUMPDEST DUP2 SLOAD DUP2 MSTORE SWAP1 PUSH1 0x1 ADD SWAP1 PUSH1 0x20 ADD DUP1 DUP4 GT PUSH2 0xEE4 JUMPI DUP3 SWAP1 SUB PUSH1 0x1F AND DUP3 ADD SWAP2 JUMPDEST POP POP POP POP POP DUP2 JUMP JUMPDEST PUSH2 0xF12 CALLER PUSH2 0xE12 JUMP JUMPDEST PUSH2 0xF2E JUMPI PUSH1 0x40 MLOAD PUSH3 0x461BCD PUSH1 0xE5 SHL DUP2 MSTORE PUSH1 0x4 ADD PUSH2 0x815 SWAP1 PUSH2 0x1F6D JUMP JUMPDEST PUSH1 0x0 DUP2 DUP2 MSTORE PUSH1 0xC PUSH1 0x20 MSTORE PUSH1 0x40 SWAP1 KECCAK256 SLOAD DUP2 SWAP1 PUSH1 0xFF AND ISZERO PUSH2 0xF8F JUMPI PUSH1 0x40 MLOAD PUSH3 0x461BCD PUSH1 0xE5 SHL DUP2 MSTORE PUSH1 0x20 PUSH1 0x4 DUP3 ADD MSTORE PUSH1 0x1F PUSH1 0x24 DUP3 ADD MSTORE PUSH32 0x4D43543A204F7065726174696F6E20616C72656164792070726F706F73656400 PUSH1 0x44 DUP3 ADD MSTORE PUSH1 0x64 ADD PUSH2 0x815 JUMP JUMPDEST PUSH1 0x0 SWAP1 DUP2 MSTORE PUSH1 0xC PUSH1 0x20 SWAP1 DUP2 MSTORE PUSH1 0x40 DUP1 DUP4 KECCAK256 DUP1 SLOAD PUSH1 0xFF NOT AND PUSH1 0x1 OR SWAP1 SSTORE PUSH1 0xD DUP3 MSTORE DUP1 DUP4 KECCAK256 TIMESTAMP SWAP1 SSTORE PUSH1 0xE SWAP1 SWAP2 MSTORE DUP2 KECCAK256 SSTORE POP JUMP JUMPDEST PUSH1 0x60 PUSH1 0x4 DUP1 SLOAD PUSH2 0x71F SWAP1 PUSH2 0x1EC5 JUMP JUMPDEST PUSH1 0x0 CALLER DUP2 PUSH2 0xFDD DUP3 DUP7 PUSH2 0x1065 JUMP JUMPDEST SWAP1 POP DUP4 DUP2 LT ISZERO PUSH2 0x103D JUMPI PUSH1 0x40 MLOAD PUSH3 0x461BCD PUSH1 0xE5 SHL DUP2 MSTORE PUSH1 0x20 PUSH1 0x4 DUP3 ADD MSTORE PUSH1 0x25 PUSH1 0x24 DUP3 ADD MSTORE PUSH32 0x45524332303A2064656372656173656420616C6C6F77616E63652062656C6F77 PUSH1 0x44 DUP3 ADD MSTORE PUSH5 0x207A65726F PUSH1 0xD8 SHL PUSH1 0x64 DUP3 ADD MSTORE PUSH1 0x84 ADD PUSH2 0x815 JUMP JUMPDEST PUSH2 0xD22 DUP3 DUP7 DUP7 DUP5 SUB PUSH2 0x120F JUMP JUMPDEST PUSH1 0x0 CALLER PUSH2 0x7B0 DUP2 DUP6 DUP6 PUSH2 0x15FB JUMP JUMPDEST PUSH1 0x10 DUP1 SLOAD PUSH2 0xE88 SWAP1 PUSH2 0x1EC5 JUMP JUMPDEST PUSH1 0x1 PUSH1 0x1 PUSH1 0xA0 SHL SUB SWAP2 DUP3 AND PUSH1 0x0 SWAP1 DUP2 MSTORE PUSH1 0x1 PUSH1 0x20 SWAP1 DUP2 MSTORE PUSH1 0x40 DUP1 DUP4 KECCAK256 SWAP4 SWAP1 SWAP5 AND DUP3 MSTORE SWAP2 SWAP1 SWAP2 MSTORE KECCAK256 SLOAD SWAP1 JUMP JUMPDEST PUSH2 0x1098 PUSH2 0x1333 JUMP JUMPDEST PUSH1 0x1 PUSH1 0x1 PUSH1 0xA0 SHL SUB DUP2 AND PUSH2 0x10EE JUMPI PUSH1 0x40 MLOAD PUSH3 0x461BCD PUSH1 0xE5 SHL DUP2 MSTORE PUSH1 0x20 PUSH1 0x4 DUP3 ADD MSTORE PUSH1 0x1B PUSH1 0x24 DUP3 ADD MSTORE PUSH32 0x4D43543A20496E76616C6964207369676E657220616464726573730000000000 PUSH1 0x44 DUP3 ADD MSTORE PUSH1 0x64 ADD PUSH2 0x815 JUMP JUMPDEST PUSH2 0x10F7 DUP2 PUSH2 0xE12 JUMP JUMPDEST ISZERO PUSH2 0x1144 JUMPI PUSH1 0x40 MLOAD PUSH3 0x461BCD PUSH1 0xE5 SHL DUP2 MSTORE PUSH1 0x20 PUSH1 0x4 DUP3 ADD MSTORE PUSH1 0x1A PUSH1 0x24 DUP3 ADD MSTORE PUSH32 0x4D43543A205369676E657220616C726561647920657869737473000000000000 PUSH1 0x44 DUP3 ADD MSTORE PUSH1 0x64 ADD PUSH2 0x815 JUMP JUMPDEST PUSH1 0xB DUP1 SLOAD PUSH1 0x1 DUP2 ADD DUP3 SSTORE PUSH1 0x0 SWAP2 SWAP1 SWAP2 MSTORE PUSH32 0x175B7A638427703F0DBE7BB9BBF987A2551717B34E79F33B5B1008D1FA01DB9 ADD DUP1 SLOAD PUSH1 0x1 PUSH1 0x1 PUSH1 0xA0 SHL SUB NOT AND PUSH1 0x1 PUSH1 0x1 PUSH1 0xA0 SHL SUB SWAP3 SWAP1 SWAP3 AND SWAP2 SWAP1 SWAP2 OR SWAP1 SSTORE JUMP JUMPDEST PUSH2 0x119E PUSH2 0x1333 JUMP JUMPDEST PUSH1 0x1 PUSH1 0x1 PUSH1 0xA0 SHL SUB DUP2 AND PUSH2 0x1203 JUMPI PUSH1 0x40 MLOAD PUSH3 0x461BCD PUSH1 0xE5 SHL DUP2 MSTORE PUSH1 0x20 PUSH1 0x4 DUP3 ADD MSTORE PUSH1 0x26 PUSH1 0x24 DUP3 ADD MSTORE PUSH32 0x4F776E61626C653A206E6577206F776E657220697320746865207A65726F2061 PUSH1 0x44 DUP3 ADD MSTORE PUSH6 0x646472657373 PUSH1 0xD0 SHL PUSH1 0x64 DUP3 ADD MSTORE PUSH1 0x84 ADD PUSH2 0x815 JUMP JUMPDEST PUSH2 0x120C DUP2 PUSH2 0x17AA JUMP JUMPDEST POP JUMP JUMPDEST PUSH1 0x1 PUSH1 0x1 PUSH1 0xA0 SHL SUB DUP4 AND PUSH2 0x1271 JUMPI PUSH1 0x40 MLOAD PUSH3 0x461BCD PUSH1 0xE5 SHL DUP2 MSTORE PUSH1 0x20 PUSH1 0x4 DUP3 ADD MSTORE PUSH1 0x24 DUP1 DUP3 ADD MSTORE PUSH32 0x45524332303A20617070726F76652066726F6D20746865207A65726F20616464 PUSH1 0x44 DUP3 ADD MSTORE PUSH4 0x72657373 PUSH1 0xE0 SHL PUSH1 0x64 DUP3 ADD MSTORE PUSH1 0x84 ADD PUSH2 0x815 JUMP JUMPDEST PUSH1 0x1 PUSH1 0x1 PUSH1 0xA0 SHL SUB DUP3 AND PUSH2 0x12D2 JUMPI PUSH1 0x40 MLOAD PUSH3 0x461BCD PUSH1 0xE5 SHL DUP2 MSTORE PUSH1 0x20 PUSH1 0x4 DUP3 ADD MSTORE PUSH1 0x22 PUSH1 0x24 DUP3 ADD MSTORE PUSH32 0x45524332303A20617070726F766520746F20746865207A65726F206164647265 PUSH1 0x44 DUP3 ADD MSTORE PUSH2 0x7373 PUSH1 0xF0 SHL PUSH1 0x64 DUP3 ADD MSTORE PUSH1 0x84 ADD PUSH2 0x815 JUMP JUMPDEST PUSH1 0x1 PUSH1 0x1 PUSH1 0xA0 SHL SUB DUP4 DUP2 AND PUSH1 0x0 DUP2 DUP2 MSTORE PUSH1 0x1 PUSH1 0x20 SWAP1 DUP2 MSTORE PUSH1 0x40 DUP1 DUP4 KECCAK256 SWAP5 DUP8 AND DUP1 DUP5 MSTORE SWAP5 DUP3 MSTORE SWAP2 DUP3 SWAP1 KECCAK256 DUP6 SWAP1 SSTORE SWAP1 MLOAD DUP5 DUP2 MSTORE PUSH32 0x8C5BE1E5EBEC7D5BD14F71427D1E84F3DD0314C0F7B2291E5B200AC8C7C3B925 SWAP2 ADD PUSH1 0x40 MLOAD DUP1 SWAP2 SUB SWAP1 LOG3 POP POP POP JUMP JUMPDEST PUSH1 0x5 SLOAD PUSH1 0x1 PUSH1 0x1 PUSH1 0xA0 SHL SUB AND CALLER EQ PUSH2 0xE10 JUMPI PUSH1 0x40 MLOAD PUSH3 0x461BCD PUSH1 0xE5 SHL DUP2 MSTORE PUSH1 0x20 PUSH1 0x4 DUP3 ADD DUP2 SWAP1 MSTORE PUSH1 0x24 DUP3 ADD MSTORE PUSH32 0x4F776E61626C653A2063616C6C6572206973206E6F7420746865206F776E6572 PUSH1 0x44 DUP3 ADD MSTORE PUSH1 0x64 ADD PUSH2 0x815 JUMP JUMPDEST PUSH2 0x13B7 DUP5 PUSH32 0x0 PUSH2 0x1FB5 JUMP JUMPDEST TIMESTAMP LT ISZERO PUSH2 0x13FC JUMPI PUSH1 0x40 MLOAD PUSH3 0x461BCD PUSH1 0xE5 SHL DUP2 MSTORE PUSH1 0x20 PUSH1 0x4 DUP3 ADD MSTORE PUSH1 0x13 PUSH1 0x24 DUP3 ADD MSTORE PUSH19 0x1350D50E88131BD8DACB5A5B8814195C9A5BD9 PUSH1 0x6A SHL PUSH1 0x44 DUP3 ADD MSTORE PUSH1 0x64 ADD PUSH2 0x815 JUMP JUMPDEST PUSH1 0x0 DUP6 PUSH1 0x6 EQ DUP1 PUSH2 0x140D JUMPI POP DUP6 PUSH1 0x7 EQ JUMPDEST ISZERO PUSH2 0x1419 JUMPI POP DUP3 PUSH2 0x14F6 JUMP JUMPDEST PUSH1 0x0 DUP7 DUP2 MSTORE PUSH1 0x6 PUSH1 0x20 MSTORE PUSH1 0x40 DUP2 KECCAK256 SLOAD DUP2 SUB PUSH2 0x145F JUMPI PUSH2 0x1458 PUSH32 0x0 TIMESTAMP PUSH2 0x1F44 JUMP JUMPDEST SWAP1 POP PUSH2 0x147B JUMP JUMPDEST PUSH1 0x0 DUP8 DUP2 MSTORE PUSH1 0x6 PUSH1 0x20 MSTORE PUSH1 0x40 SWAP1 KECCAK256 SLOAD PUSH2 0x1478 SWAP1 TIMESTAMP PUSH2 0x1F44 JUMP JUMPDEST SWAP1 POP JUMPDEST PUSH1 0x0 PUSH2 0x148A PUSH3 0x93A80 DUP4 PUSH2 0x2105 JUMP JUMPDEST SWAP1 POP PUSH1 0x0 DUP2 GT PUSH2 0x14D8 JUMPI PUSH1 0x40 MLOAD PUSH3 0x461BCD PUSH1 0xE5 SHL DUP2 MSTORE PUSH1 0x20 PUSH1 0x4 DUP3 ADD MSTORE PUSH1 0x19 PUSH1 0x24 DUP3 ADD MSTORE PUSH25 0x1350D50E8810DB185A5B4814195C9A5BD908125B9D985B1A59 PUSH1 0x3A SHL PUSH1 0x44 DUP3 ADD MSTORE PUSH1 0x64 ADD PUSH2 0x815 JUMP JUMPDEST PUSH1 0x0 PUSH2 0x14E4 DUP7 DUP9 PUSH2 0x2105 JUMP JUMPDEST SWAP1 POP PUSH2 0x14F0 DUP2 DUP4 PUSH2 0x2127 JUMP JUMPDEST SWAP4 POP POP POP POP JUMPDEST DUP4 DUP2 GT ISZERO PUSH2 0x1541 JUMPI PUSH1 0x40 MLOAD PUSH3 0x461BCD PUSH1 0xE5 SHL DUP2 MSTORE PUSH1 0x20 PUSH1 0x4 DUP3 ADD MSTORE PUSH1 0x18 PUSH1 0x24 DUP3 ADD MSTORE PUSH24 0x1350D50E8810DB185A5B48131A5B5A5D0814995858DA1959 PUSH1 0x42 SHL PUSH1 0x44 DUP3 ADD MSTORE PUSH1 0x64 ADD PUSH2 0x815 JUMP JUMPDEST PUSH1 0x0 DUP7 DUP2 MSTORE PUSH1 0x7 PUSH1 0x20 MSTORE PUSH1 0x40 DUP2 KECCAK256 DUP1 SLOAD DUP4 SWAP3 SWAP1 PUSH2 0x155F SWAP1 DUP5 SWAP1 PUSH2 0x1FB5 JUMP JUMPDEST SWAP1 SWAP2 SSTORE POP POP PUSH1 0x0 DUP7 DUP2 MSTORE PUSH1 0x6 PUSH1 0x20 MSTORE PUSH1 0x40 SWAP1 KECCAK256 TIMESTAMP SWAP1 SSTORE PUSH2 0x157F DUP3 DUP3 PUSH2 0x17FC JUMP JUMPDEST POP POP POP POP POP POP JUMP JUMPDEST PUSH1 0x0 PUSH2 0x1593 DUP5 DUP5 PUSH2 0x1065 JUMP JUMPDEST SWAP1 POP PUSH1 0x0 NOT DUP2 EQ PUSH2 0xC2D JUMPI DUP2 DUP2 LT ISZERO PUSH2 0x15EE JUMPI PUSH1 0x40 MLOAD PUSH3 0x461BCD PUSH1 0xE5 SHL DUP2 MSTORE PUSH1 0x20 PUSH1 0x4 DUP3 ADD MSTORE PUSH1 0x1D PUSH1 0x24 DUP3 ADD MSTORE PUSH32 0x45524332303A20696E73756666696369656E7420616C6C6F77616E6365000000 PUSH1 0x44 DUP3 ADD MSTORE PUSH1 0x64 ADD PUSH2 0x815 JUMP JUMPDEST PUSH2 0xC2D DUP5 DUP5 DUP5 DUP5 SUB PUSH2 0x120F JUMP JUMPDEST PUSH1 0x1 PUSH1 0x1 PUSH1 0xA0 SHL SUB DUP4 AND PUSH2 0x165F JUMPI PUSH1 0x40 MLOAD PUSH3 0x461BCD PUSH1 0xE5 SHL DUP2 MSTORE PUSH1 0x20 PUSH1 0x4 DUP3 ADD MSTORE PUSH1 0x25 PUSH1 0x24 DUP3 ADD MSTORE PUSH32 0x45524332303A207472616E736665722066726F6D20746865207A65726F206164 PUSH1 0x44 DUP3 ADD MSTORE PUSH5 0x6472657373 PUSH1 0xD8 SHL PUSH1 0x64 DUP3 ADD MSTORE PUSH1 0x84 ADD PUSH2 0x815 JUMP JUMPDEST PUSH1 0x1 PUSH1 0x1 PUSH1 0xA0 SHL SUB DUP3 AND PUSH2 0x16C1 JUMPI PUSH1 0x40 MLOAD PUSH3 0x461BCD PUSH1 0xE5 SHL DUP2 MSTORE PUSH1 0x20 PUSH1 0x4 DUP3 ADD MSTORE PUSH1 0x23 PUSH1 0x24 DUP3 ADD MSTORE PUSH32 0x45524332303A207472616E7366657220746F20746865207A65726F2061646472 PUSH1 0x44 DUP3 ADD MSTORE PUSH3 0x657373 PUSH1 0xE8 SHL PUSH1 0x64 DUP3 ADD MSTORE PUSH1 0x84 ADD PUSH2 0x815 JUMP JUMPDEST PUSH2 0x16CC DUP4 DUP4 DUP4 PUSH2 0x186F JUMP JUMPDEST PUSH1 0x1 PUSH1 0x1 PUSH1 0xA0 SHL SUB DUP4 AND PUSH1 0x0 SWAP1 DUP2 MSTORE PUSH1 0x20 DUP2 SWAP1 MSTORE PUSH1 0x40 SWAP1 KECCAK256 SLOAD DUP2 DUP2 LT ISZERO PUSH2 0x1744 JUMPI PUSH1 0x40 MLOAD PUSH3 0x461BCD PUSH1 0xE5 SHL DUP2 MSTORE PUSH1 0x20 PUSH1 0x4 DUP3 ADD MSTORE PUSH1 0x26 PUSH1 0x24 DUP3 ADD MSTORE PUSH32 0x45524332303A207472616E7366657220616D6F756E7420657863656564732062 PUSH1 0x44 DUP3 ADD MSTORE PUSH6 0x616C616E6365 PUSH1 0xD0 SHL PUSH1 0x64 DUP3 ADD MSTORE PUSH1 0x84 ADD PUSH2 0x815 JUMP JUMPDEST PUSH1 0x1 PUSH1 0x1 PUSH1 0xA0 SHL SUB DUP5 DUP2 AND PUSH1 0x0 DUP2 DUP2 MSTORE PUSH1 0x20 DUP2 DUP2 MSTORE PUSH1 0x40 DUP1 DUP4 KECCAK256 DUP8 DUP8 SUB SWAP1 SSTORE SWAP4 DUP8 AND DUP1 DUP4 MSTORE SWAP2 DUP5 SWAP1 KECCAK256 DUP1 SLOAD DUP8 ADD SWAP1 SSTORE SWAP3 MLOAD DUP6 DUP2 MSTORE SWAP1 SWAP3 PUSH32 0xDDF252AD1BE2C89B69C2B068FC378DAA952BA7F163C4A11628F55A4DF523B3EF SWAP2 ADD PUSH1 0x40 MLOAD DUP1 SWAP2 SUB SWAP1 LOG3 PUSH2 0xC2D JUMP JUMPDEST PUSH1 0x5 DUP1 SLOAD PUSH1 0x1 PUSH1 0x1 PUSH1 0xA0 SHL SUB DUP4 DUP2 AND PUSH1 0x1 PUSH1 0x1 PUSH1 0xA0 SHL SUB NOT DUP4 AND DUP2 OR SWAP1 SWAP4 SSTORE PUSH1 0x40 MLOAD SWAP2 AND SWAP2 SWAP1 DUP3 SWAP1 PUSH32 0x8BE0079C531659141344CD1FD0A4F28419497F9722A3DAAFE3B4186F6B6457E0 SWAP1 PUSH1 0x0 SWAP1 LOG3 POP POP JUMP JUMPDEST PUSH12 0x1363156BBEE3016D70000000 DUP2 PUSH2 0x1813 PUSH1 0x2 SLOAD SWAP1 JUMP JUMPDEST PUSH2 0x181D SWAP2 SWAP1 PUSH2 0x1FB5 JUMP JUMPDEST GT ISZERO PUSH2 0x1865 JUMPI PUSH1 0x40 MLOAD PUSH3 0x461BCD PUSH1 0xE5 SHL DUP2 MSTORE PUSH1 0x20 PUSH1 0x4 DUP3 ADD MSTORE PUSH1 0x17 PUSH1 0x24 DUP3 ADD MSTORE PUSH23 0x1350D50E8813585E0814DD5C1C1B1E4814995858DA1959 PUSH1 0x4A SHL PUSH1 0x44 DUP3 ADD MSTORE PUSH1 0x64 ADD PUSH2 0x815 JUMP JUMPDEST PUSH2 0xD63 DUP3 DUP3 PUSH2 0x1BF5 JUMP JUMPDEST PUSH1 0x1 PUSH1 0x1 PUSH1 0xA0 SHL SUB DUP4 AND PUSH20 0x910BBE8B14DBE813EA3F0E268058B024BF5301D9 EQ DUP1 ISZERO PUSH2 0x18AD JUMPI POP DUP3 PUSH1 0x1 PUSH1 0x1 PUSH1 0xA0 SHL SUB AND DUP3 PUSH1 0x1 PUSH1 0x1 PUSH1 0xA0 SHL SUB AND EQ ISZERO JUMPDEST ISZERO PUSH2 0x1986 JUMPI PUSH1 0x1 PUSH1 0x1 PUSH1 0xA0 SHL SUB DUP3 AND PUSH1 0x0 SWAP1 DUP2 MSTORE PUSH1 0x8 PUSH1 0x20 MSTORE PUSH1 0x40 SWAP1 KECCAK256 SLOAD PUSH1 0xFF AND ISZERO PUSH2 0x1955 JUMPI PUSH1 0x1 PUSH1 0x1 PUSH1 0xA0 SHL SUB DUP3 AND PUSH1 0x0 SWAP1 DUP2 MSTORE PUSH1 0xA PUSH1 0x20 MSTORE PUSH1 0x40 SWAP1 KECCAK256 SLOAD ISZERO PUSH2 0x1950 JUMPI PUSH1 0x40 MLOAD PUSH3 0x461BCD PUSH1 0xE5 SHL DUP2 MSTORE PUSH1 0x20 PUSH1 0x4 DUP3 ADD MSTORE PUSH1 0x2E PUSH1 0x24 DUP3 ADD MSTORE PUSH32 0x4D43543A20596F752061726520616C7265616479207265676973746572656420 PUSH1 0x44 DUP3 ADD MSTORE PUSH14 0x30B99030B71034B73B32B9BA37B9 PUSH1 0x91 SHL PUSH1 0x64 DUP3 ADD MSTORE PUSH1 0x84 ADD PUSH2 0x815 JUMP JUMPDEST PUSH2 0x1986 JUMP JUMPDEST PUSH1 0x1 PUSH1 0x1 PUSH1 0xA0 SHL SUB DUP3 AND PUSH1 0x0 SWAP1 DUP2 MSTORE PUSH1 0x8 PUSH1 0x20 SWAP1 DUP2 MSTORE PUSH1 0x40 DUP1 DUP4 KECCAK256 DUP1 SLOAD PUSH1 0xFF NOT AND PUSH1 0x1 OR SWAP1 SSTORE PUSH1 0xA SWAP1 SWAP2 MSTORE SWAP1 KECCAK256 TIMESTAMP SWAP1 SSTORE JUMPDEST PUSH1 0x1 PUSH1 0x1 PUSH1 0xA0 SHL SUB DUP4 AND PUSH1 0x0 SWAP1 DUP2 MSTORE PUSH1 0x8 PUSH1 0x20 MSTORE PUSH1 0x40 SWAP1 KECCAK256 SLOAD PUSH1 0xFF AND ISZERO PUSH2 0x1BF0 JUMPI PUSH1 0x1 PUSH1 0x1 PUSH1 0xA0 SHL SUB DUP4 AND PUSH1 0x0 SWAP1 DUP2 MSTORE PUSH1 0xA PUSH1 0x20 MSTORE PUSH1 0x40 DUP2 KECCAK256 SLOAD PUSH2 0x19CD SWAP1 PUSH3 0xEFF100 PUSH2 0x1FB5 JUMP JUMPDEST PUSH2 0x19D7 SWAP1 TIMESTAMP PUSH2 0x1F44 JUMP JUMPDEST SWAP1 POP PUSH1 0x0 PUSH2 0x19E8 PUSH3 0x93A80 DUP4 PUSH2 0x2105 JUMP JUMPDEST SWAP1 POP PUSH1 0x34 DUP2 LT PUSH2 0x1A2C JUMPI PUSH1 0x1 PUSH1 0x1 PUSH1 0xA0 SHL SUB DUP6 AND PUSH1 0x0 SWAP1 DUP2 MSTORE PUSH1 0x8 PUSH1 0x20 SWAP1 DUP2 MSTORE PUSH1 0x40 DUP1 DUP4 KECCAK256 DUP1 SLOAD PUSH1 0xFF NOT AND SWAP1 SSTORE PUSH1 0x9 DUP3 MSTORE DUP1 DUP4 KECCAK256 DUP4 SWAP1 SSTORE PUSH1 0xA SWAP1 SWAP2 MSTORE DUP2 KECCAK256 SSTORE PUSH2 0x1BED JUMP JUMPDEST PUSH1 0x1A DUP2 LT ISZERO DUP1 ISZERO PUSH2 0x1A3E JUMPI POP PUSH1 0x34 DUP2 GT ISZERO JUMPDEST DUP1 ISZERO PUSH2 0x1A77 JUMPI POP PUSH1 0x1 PUSH1 0x1 PUSH1 0xA0 SHL SUB DUP6 AND PUSH1 0x0 SWAP1 DUP2 MSTORE PUSH1 0x9 PUSH1 0x20 SWAP1 DUP2 MSTORE PUSH1 0x40 DUP1 DUP4 KECCAK256 SLOAD SWAP2 DUP4 SWAP1 MSTORE SWAP1 SWAP2 KECCAK256 SLOAD PUSH2 0x1A73 SWAP2 SWAP1 PUSH2 0x1F44 JUMP JUMPDEST DUP4 GT ISZERO JUMPDEST ISZERO PUSH2 0x1BED JUMPI PUSH1 0x1 PUSH1 0x1 PUSH1 0xA0 SHL SUB DUP6 AND PUSH1 0x0 SWAP1 DUP2 MSTORE PUSH1 0xA PUSH1 0x20 MSTORE PUSH1 0x40 SWAP1 KECCAK256 SLOAD PUSH2 0x1AA2 SWAP1 PUSH3 0xEFF100 PUSH2 0x1FB5 JUMP JUMPDEST TIMESTAMP LT ISZERO PUSH2 0x1B04 JUMPI PUSH1 0x40 MLOAD PUSH3 0x461BCD PUSH1 0xE5 SHL DUP2 MSTORE PUSH1 0x20 PUSH1 0x4 DUP3 ADD MSTORE PUSH1 0x2A PUSH1 0x24 DUP3 ADD MSTORE PUSH32 0x4D43543A20546865206C6F636B646F776E20706572696F6420686173206E6F74 PUSH1 0x44 DUP3 ADD MSTORE PUSH10 0x81E595D08195B991959 PUSH1 0xB2 SHL PUSH1 0x64 DUP3 ADD MSTORE PUSH1 0x84 ADD PUSH2 0x815 JUMP JUMPDEST PUSH1 0x0 DUP2 GT PUSH2 0x1B54 JUMPI PUSH1 0x40 MLOAD PUSH3 0x461BCD PUSH1 0xE5 SHL DUP2 MSTORE PUSH1 0x20 PUSH1 0x4 DUP3 ADD DUP2 SWAP1 MSTORE PUSH1 0x24 DUP3 ADD MSTORE PUSH32 0x4D43543A2056657374696E6720706572696F6420697320696E636F7272656374 PUSH1 0x44 DUP3 ADD MSTORE PUSH1 0x64 ADD PUSH2 0x815 JUMP JUMPDEST PUSH1 0x1 PUSH1 0x1 PUSH1 0xA0 SHL SUB DUP6 AND PUSH1 0x0 SWAP1 DUP2 MSTORE PUSH1 0x9 PUSH1 0x20 MSTORE PUSH1 0x40 DUP2 KECCAK256 SLOAD PUSH2 0x1B7C SWAP1 PUSH4 0x1DFE200 SWAP1 PUSH2 0x2105 JUMP JUMPDEST SWAP1 POP PUSH1 0x0 PUSH2 0x1B8A DUP4 DUP4 PUSH2 0x2127 JUMP JUMPDEST SWAP1 POP DUP1 DUP6 GT ISZERO PUSH2 0x1BEA JUMPI PUSH1 0x40 MLOAD PUSH3 0x461BCD PUSH1 0xE5 SHL DUP2 MSTORE PUSH1 0x20 PUSH1 0x4 DUP3 ADD MSTORE PUSH1 0x25 PUSH1 0x24 DUP3 ADD MSTORE PUSH32 0x4D43543A20457863656564732070726576696F75736C79207665737465642061 PUSH1 0x44 DUP3 ADD MSTORE PUSH5 0x1B5BDD5B9D PUSH1 0xDA SHL PUSH1 0x64 DUP3 ADD MSTORE PUSH1 0x84 ADD PUSH2 0x815 JUMP JUMPDEST POP POP JUMPDEST POP POP JUMPDEST POP POP POP JUMP JUMPDEST PUSH1 0x1 PUSH1 0x1 PUSH1 0xA0 SHL SUB DUP3 AND PUSH2 0x1C4B JUMPI PUSH1 0x40 MLOAD PUSH3 0x461BCD PUSH1 0xE5 SHL DUP2 MSTORE PUSH1 0x20 PUSH1 0x4 DUP3 ADD MSTORE PUSH1 0x1F PUSH1 0x24 DUP3 ADD MSTORE PUSH32 0x45524332303A206D696E7420746F20746865207A65726F206164647265737300 PUSH1 0x44 DUP3 ADD MSTORE PUSH1 0x64 ADD PUSH2 0x815 JUMP JUMPDEST PUSH2 0x1C57 PUSH1 0x0 DUP4 DUP4 PUSH2 0x186F JUMP JUMPDEST DUP1 PUSH1 0x2 PUSH1 0x0 DUP3 DUP3 SLOAD PUSH2 0x1C69 SWAP2 SWAP1 PUSH2 0x1FB5 JUMP JUMPDEST SWAP1 SWAP2 SSTORE POP POP PUSH1 0x1 PUSH1 0x1 PUSH1 0xA0 SHL SUB DUP3 AND PUSH1 0x0 DUP2 DUP2 MSTORE PUSH1 0x20 DUP2 DUP2 MSTORE PUSH1 0x40 DUP1 DUP4 KECCAK256 DUP1 SLOAD DUP7 ADD SWAP1 SSTORE MLOAD DUP5 DUP2 MSTORE PUSH32 0xDDF252AD1BE2C89B69C2B068FC378DAA952BA7F163C4A11628F55A4DF523B3EF SWAP2 ADD PUSH1 0x40 MLOAD DUP1 SWAP2 SUB SWAP1 LOG3 POP POP JUMP JUMPDEST PUSH1 0x0 PUSH1 0x20 DUP1 DUP4 MSTORE DUP4 MLOAD DUP1 DUP3 DUP6 ADD MSTORE PUSH1 0x0 JUMPDEST DUP2 DUP2 LT ISZERO PUSH2 0x1CED JUMPI DUP6 DUP2 ADD DUP4 ADD MLOAD DUP6 DUP3 ADD PUSH1 0x40 ADD MSTORE DUP3 ADD PUSH2 0x1CD1 JUMP JUMPDEST POP PUSH1 0x0 PUSH1 0x40 DUP3 DUP7 ADD ADD MSTORE PUSH1 0x40 PUSH1 0x1F NOT PUSH1 0x1F DUP4 ADD AND DUP6 ADD ADD SWAP3 POP POP POP SWAP3 SWAP2 POP POP JUMP JUMPDEST DUP1 CALLDATALOAD PUSH1 0x1 PUSH1 0x1 PUSH1 0xA0 SHL SUB DUP2 AND DUP2 EQ PUSH2 0x1D25 JUMPI PUSH1 0x0 DUP1 REVERT JUMPDEST SWAP2 SWAP1 POP JUMP JUMPDEST PUSH1 0x0 DUP1 PUSH1 0x40 DUP4 DUP6 SUB SLT ISZERO PUSH2 0x1D3D JUMPI PUSH1 0x0 DUP1 REVERT JUMPDEST PUSH2 0x1D46 DUP4 PUSH2 0x1D0E JUMP JUMPDEST SWAP5 PUSH1 0x20 SWAP4 SWAP1 SWAP4 ADD CALLDATALOAD SWAP4 POP POP POP JUMP JUMPDEST PUSH1 0x0 PUSH1 0x20 DUP3 DUP5 SUB SLT ISZERO PUSH2 0x1D66 JUMPI PUSH1 0x0 DUP1 REVERT JUMPDEST PUSH2 0x1D6F DUP3 PUSH2 0x1D0E JUMP JUMPDEST SWAP4 SWAP3 POP POP POP JUMP JUMPDEST PUSH1 0x0 PUSH1 0x20 DUP3 DUP5 SUB SLT ISZERO PUSH2 0x1D88 JUMPI PUSH1 0x0 DUP1 REVERT JUMPDEST POP CALLDATALOAD SWAP2 SWAP1 POP JUMP JUMPDEST PUSH1 0x0 DUP1 PUSH1 0x0 PUSH1 0x60 DUP5 DUP7 SUB SLT ISZERO PUSH2 0x1DA4 JUMPI PUSH1 0x0 DUP1 REVERT JUMPDEST PUSH2 0x1DAD DUP5 PUSH2 0x1D0E JUMP JUMPDEST SWAP3 POP PUSH2 0x1DBB PUSH1 0x20 DUP6 ADD PUSH2 0x1D0E JUMP JUMPDEST SWAP2 POP PUSH1 0x40 DUP5 ADD CALLDATALOAD SWAP1 POP SWAP3 POP SWAP3 POP SWAP3 JUMP JUMPDEST PUSH4 0x4E487B71 PUSH1 0xE0 SHL PUSH1 0x0 MSTORE PUSH1 0x41 PUSH1 0x4 MSTORE PUSH1 0x24 PUSH1 0x0 REVERT JUMPDEST PUSH1 0x0 PUSH1 0x20 DUP3 DUP5 SUB SLT ISZERO PUSH2 0x1DF3 JUMPI PUSH1 0x0 DUP1 REVERT JUMPDEST DUP2 CALLDATALOAD PUSH8 0xFFFFFFFFFFFFFFFF DUP1 DUP3 GT ISZERO PUSH2 0x1E0B JUMPI PUSH1 0x0 DUP1 REVERT JUMPDEST DUP2 DUP5 ADD SWAP2 POP DUP5 PUSH1 0x1F DUP4 ADD SLT PUSH2 0x1E1F JUMPI PUSH1 0x0 DUP1 REVERT JUMPDEST DUP2 CALLDATALOAD DUP2 DUP2 GT ISZERO PUSH2 0x1E31 JUMPI PUSH2 0x1E31 PUSH2 0x1DCB JUMP JUMPDEST PUSH1 0x40 MLOAD PUSH1 0x1F DUP3 ADD PUSH1 0x1F NOT SWAP1 DUP2 AND PUSH1 0x3F ADD AND DUP2 ADD SWAP1 DUP4 DUP3 GT DUP2 DUP4 LT OR ISZERO PUSH2 0x1E59 JUMPI PUSH2 0x1E59 PUSH2 0x1DCB JUMP JUMPDEST DUP2 PUSH1 0x40 MSTORE DUP3 DUP2 MSTORE DUP8 PUSH1 0x20 DUP5 DUP8 ADD ADD GT ISZERO PUSH2 0x1E72 JUMPI PUSH1 0x0 DUP1 REVERT JUMPDEST DUP3 PUSH1 0x20 DUP7 ADD PUSH1 0x20 DUP4 ADD CALLDATACOPY PUSH1 0x0 SWAP3 DUP2 ADD PUSH1 0x20 ADD SWAP3 SWAP1 SWAP3 MSTORE POP SWAP6 SWAP5 POP POP POP POP POP JUMP JUMPDEST PUSH1 0x0 DUP1 PUSH1 0x40 DUP4 DUP6 SUB SLT ISZERO PUSH2 0x1EA5 JUMPI PUSH1 0x0 DUP1 REVERT JUMPDEST PUSH2 0x1EAE DUP4 PUSH2 0x1D0E JUMP JUMPDEST SWAP2 POP PUSH2 0x1EBC PUSH1 0x20 DUP5 ADD PUSH2 0x1D0E JUMP JUMPDEST SWAP1 POP SWAP3 POP SWAP3 SWAP1 POP JUMP JUMPDEST PUSH1 0x1 DUP2 DUP2 SHR SWAP1 DUP3 AND DUP1 PUSH2 0x1ED9 JUMPI PUSH1 0x7F DUP3 AND SWAP2 POP JUMPDEST PUSH1 0x20 DUP3 LT DUP2 SUB PUSH2 0x1EF9 JUMPI PUSH4 0x4E487B71 PUSH1 0xE0 SHL PUSH1 0x0 MSTORE PUSH1 0x22 PUSH1 0x4 MSTORE PUSH1 0x24 PUSH1 0x0 REVERT JUMPDEST POP SWAP2 SWAP1 POP JUMP JUMPDEST PUSH4 0x4E487B71 PUSH1 0xE0 SHL PUSH1 0x0 MSTORE PUSH1 0x32 PUSH1 0x4 MSTORE PUSH1 0x24 PUSH1 0x0 REVERT JUMPDEST PUSH4 0x4E487B71 PUSH1 0xE0 SHL PUSH1 0x0 MSTORE PUSH1 0x11 PUSH1 0x4 MSTORE PUSH1 0x24 PUSH1 0x0 REVERT JUMPDEST PUSH1 0x0 PUSH1 0x1 DUP3 ADD PUSH2 0x1F3D JUMPI PUSH2 0x1F3D PUSH2 0x1F15 JUMP JUMPDEST POP PUSH1 0x1 ADD SWAP1 JUMP JUMPDEST DUP2 DUP2 SUB DUP2 DUP2 GT ISZERO PUSH2 0x7B6 JUMPI PUSH2 0x7B6 PUSH2 0x1F15 JUMP JUMPDEST PUSH4 0x4E487B71 PUSH1 0xE0 SHL PUSH1 0x0 MSTORE PUSH1 0x31 PUSH1 0x4 MSTORE PUSH1 0x24 PUSH1 0x0 REVERT JUMPDEST PUSH1 0x20 DUP1 DUP3 MSTORE PUSH1 0x28 SWAP1 DUP3 ADD MSTORE PUSH32 0x4D43543A204F6E6C79207369676E6572732063616E2063616C6C207468697320 PUSH1 0x40 DUP3 ADD MSTORE PUSH8 0x333AB731BA34B7B7 PUSH1 0xC1 SHL PUSH1 0x60 DUP3 ADD MSTORE PUSH1 0x80 ADD SWAP1 JUMP JUMPDEST DUP1 DUP3 ADD DUP1 DUP3 GT ISZERO PUSH2 0x7B6 JUMPI PUSH2 0x7B6 PUSH2 0x1F15 JUMP JUMPDEST PUSH1 0x20 DUP1 DUP3 MSTORE PUSH1 0x1B SWAP1 DUP3 ADD MSTORE PUSH32 0x4D43543A204F7065726174696F6E206E6F742070726F706F7365640000000000 PUSH1 0x40 DUP3 ADD MSTORE PUSH1 0x60 ADD SWAP1 JUMP JUMPDEST PUSH1 0x1F DUP3 GT ISZERO PUSH2 0x1BF0 JUMPI PUSH1 0x0 DUP2 DUP2 MSTORE PUSH1 0x20 DUP2 KECCAK256 PUSH1 0x1F DUP6 ADD PUSH1 0x5 SHR DUP2 ADD PUSH1 0x20 DUP7 LT ISZERO PUSH2 0x2026 JUMPI POP DUP1 JUMPDEST PUSH1 0x1F DUP6 ADD PUSH1 0x5 SHR DUP3 ADD SWAP2 POP JUMPDEST DUP2 DUP2 LT ISZERO PUSH2 0x157F JUMPI DUP3 DUP2 SSTORE PUSH1 0x1 ADD PUSH2 0x2032 JUMP JUMPDEST DUP2 MLOAD PUSH8 0xFFFFFFFFFFFFFFFF DUP2 GT ISZERO PUSH2 0x205F JUMPI PUSH2 0x205F PUSH2 0x1DCB JUMP JUMPDEST PUSH2 0x2073 DUP2 PUSH2 0x206D DUP5 SLOAD PUSH2 0x1EC5 JUMP JUMPDEST DUP5 PUSH2 0x1FFF JUMP JUMPDEST PUSH1 0x20 DUP1 PUSH1 0x1F DUP4 GT PUSH1 0x1 DUP2 EQ PUSH2 0x20A8 JUMPI PUSH1 0x0 DUP5 ISZERO PUSH2 0x2090 JUMPI POP DUP6 DUP4 ADD MLOAD JUMPDEST PUSH1 0x0 NOT PUSH1 0x3 DUP7 SWAP1 SHL SHR NOT AND PUSH1 0x1 DUP6 SWAP1 SHL OR DUP6 SSTORE PUSH2 0x157F JUMP JUMPDEST PUSH1 0x0 DUP6 DUP2 MSTORE PUSH1 0x20 DUP2 KECCAK256 PUSH1 0x1F NOT DUP7 AND SWAP2 JUMPDEST DUP3 DUP2 LT ISZERO PUSH2 0x20D7 JUMPI DUP9 DUP7 ADD MLOAD DUP3 SSTORE SWAP5 DUP5 ADD SWAP5 PUSH1 0x1 SWAP1 SWAP2 ADD SWAP1 DUP5 ADD PUSH2 0x20B8 JUMP JUMPDEST POP DUP6 DUP3 LT ISZERO PUSH2 0x20F5 JUMPI DUP8 DUP6 ADD MLOAD PUSH1 0x0 NOT PUSH1 0x3 DUP9 SWAP1 SHL PUSH1 0xF8 AND SHR NOT AND DUP2 SSTORE JUMPDEST POP POP POP POP POP PUSH1 0x1 SWAP1 DUP2 SHL ADD SWAP1 SSTORE POP JUMP JUMPDEST PUSH1 0x0 DUP3 PUSH2 0x2122 JUMPI PUSH4 0x4E487B71 PUSH1 0xE0 SHL PUSH1 0x0 MSTORE PUSH1 0x12 PUSH1 0x4 MSTORE PUSH1 0x24 PUSH1 0x0 REVERT JUMPDEST POP DIV SWAP1 JUMP JUMPDEST DUP1 DUP3 MUL DUP2 ISZERO DUP3 DUP3 DIV DUP5 EQ OR PUSH2 0x7B6 JUMPI PUSH2 0x7B6 PUSH2 0x1F15 JUMP INVALID LOG2 PUSH5 0x6970667358 0x22 SLT KECCAK256 0x4B 0xB9 0x4F DUP9 PUSH19 0x7DC485479D144770D90C6323457B233ED3C2E7 0xA7 0xEA CREATE 0xF8 REVERT 0xAE 0xBD SWAP12 PUSH5 0x736F6C6343 STOP ADDMOD GT STOP CALLER "},"methodIdentifiers":{"AIRDROP_ALLOCATION()":"cb4b4ff9","AIRDROP_POOL_RECEIVER()":"9e3299f2","AIRDROP_VESTING()":"aaff1f18","INITIAL_SUPPLY_ALLOCATION()":"87bdc093","INITIAL_SUPPLY_RECEIVER()":"df5e8452","INVESTOR_ALLOCATION()":"e2571f5d","INVESTOR_POOL_RECEIVER()":"831edebe","MAX_SUPPLY()":"32cb6b0c","MINING_POOL_ALLOCATION()":"4ca6a094","MINING_POOL_RECEIVER()":"d95e277a","MINING_POOL_VESTING()":"b16179bf","OPERATIONAL_POOL_ALLOCATION()":"ba558d61","OPERATIONAL_POOL_RECEIVER()":"0399516d","OPERATIONAL_POOL_VESTING()":"93ad411a","RESERVE_POOL_ALLOCATION()":"b4e5df40","RESERVE_POOL_LOCKUP()":"4d703b6a","RESERVE_POOL_RECEIVER()":"b6ef599c","RESERVE_POOL_VESTING()":"6338c7e9","START_TIME()":"ddaa26ad","TEAM_ALLOCATION()":"fd99cbed","TEAM_LOCKUP()":"ac0b2353","TEAM_RECEIVER()":"bea06016","TEAM_VESTING()":"1940ca17","addSigner(address)":"eb12d61e","allowance(address,address)":"dd62ed3e","approve(address,uint256)":"095ea7b3","approveOperation(uint256)":"16a38f1f","balanceOf(address)":"70a08231","cancelOperation(uint256)":"5c945227","decimals()":"313ce567","decreaseAllowance(address,uint256)":"a457c2d7","executeOperation(uint256)":"0e70306d","increaseAllowance(address,uint256)":"39509351","investedAt(address)":"f76b8fe2","investment(address)":"0bd18d7a","isInvestor(address)":"cee2a9cf","isSigner(address)":"7df73e27","multiSignersAddresses()":"8820a1fd","name()":"06fdde03","owner()":"8da5cb5b","poolClaimedAmount(uint256)":"feeee007","poolLastClaimTime(uint256)":"b179fa72","proposeOperation(uint256)":"8c366214","removeSigner(address)":"0e316ab7","renounceOwnership()":"715018a6","setTokenDistributionPlan(string)":"61ff304f","setmultiSignersAddresses(string)":"41350691","symbol()":"95d89b41","tokenDistributionPlan()":"bba85e0d","totalSupply()":"18160ddd","transfer(address,uint256)":"a9059cbb","transferFrom(address,address,uint256)":"23b872dd","transferOwnership(address)":"f2fde38b"}},"userdoc":{"kind":"user","methods":{},"notice":"fixed supply token","version":1}}}}