{"contracts/token/MCT.sol":{"MCT":{"abi":[{"inputs":[{"internalType":"string","name":"name_","type":"string"},{"internalType":"string","name":"symbol_","type":"string"}],"stateMutability":"nonpayable","type":"constructor"},{"anonymous":false,"inputs":[{"indexed":true,"internalType":"address","name":"owner","type":"address"},{"indexed":true,"internalType":"address","name":"spender","type":"address"},{"indexed":false,"internalType":"uint256","name":"value","type":"uint256"}],"name":"Approval","type":"event"},{"anonymous":false,"inputs":[{"indexed":false,"internalType":"string","name":"addresses","type":"string"}],"name":"MultiSignerAddressesUpdated","type":"event"},{"anonymous":false,"inputs":[{"indexed":false,"internalType":"address","name":"newSigner","type":"address"}],"name":"NewSignerAdded","type":"event"},{"anonymous":false,"inputs":[{"indexed":false,"internalType":"address","name":"oldSigner","type":"address"}],"name":"OldSignerRemoved","type":"event"},{"anonymous":false,"inputs":[{"indexed":true,"internalType":"address","name":"previousOwner","type":"address"},{"indexed":true,"internalType":"address","name":"newOwner","type":"address"}],"name":"OwnershipTransferred","type":"event"},{"anonymous":false,"inputs":[{"indexed":false,"internalType":"string","name":"newPlan","type":"string"}],"name":"TokenDistributionPlanUpdate","type":"event"},{"anonymous":false,"inputs":[{"indexed":true,"internalType":"address","name":"from","type":"address"},{"indexed":true,"internalType":"address","name":"to","type":"address"},{"indexed":false,"internalType":"uint256","name":"value","type":"uint256"}],"name":"Transfer","type":"event"},{"inputs":[],"name":"AIRDROP_ALLOCATION","outputs":[{"internalType":"uint256","name":"","type":"uint256"}],"stateMutability":"view","type":"function"},{"inputs":[],"name":"AIRDROP_POOL_RECEIVER","outputs":[{"internalType":"address","name":"","type":"address"}],"stateMutability":"view","type":"function"},{"inputs":[],"name":"AIRDROP_VESTING","outputs":[{"internalType":"uint256","name":"","type":"uint256"}],"stateMutability":"view","type":"function"},{"inputs":[],"name":"INITIAL_SUPPLY_ALLOCATION","outputs":[{"internalType":"uint256","name":"","type":"uint256"}],"stateMutability":"view","type":"function"},{"inputs":[],"name":"INITIAL_SUPPLY_RECEIVER","outputs":[{"internalType":"address","name":"","type":"address"}],"stateMutability":"view","type":"function"},{"inputs":[],"name":"INVESTOR_ALLOCATION","outputs":[{"internalType":"uint256","name":"","type":"uint256"}],"stateMutability":"view","type":"function"},{"inputs":[],"name":"INVESTOR_POOL_RECEIVER","outputs":[{"internalType":"address","name":"","type":"address"}],"stateMutability":"view","type":"function"},{"inputs":[],"name":"MAX_SUPPLY","outputs":[{"internalType":"uint256","name":"","type":"uint256"}],"stateMutability":"view","type":"function"},{"inputs":[],"name":"MINING_POOL_ALLOCATION","outputs":[{"internalType":"uint256","name":"","type":"uint256"}],"stateMutability":"view","type":"function"},{"inputs":[],"name":"MINING_POOL_RECEIVER","outputs":[{"internalType":"address","name":"","type":"address"}],"stateMutability":"view","type":"function"},{"inputs":[],"name":"MINING_POOL_VESTING","outputs":[{"internalType":"uint256","name":"","type":"uint256"}],"stateMutability":"view","type":"function"},{"inputs":[],"name":"OPERATIONAL_POOL_ALLOCATION","outputs":[{"internalType":"uint256","name":"","type":"uint256"}],"stateMutability":"view","type":"function"},{"inputs":[],"name":"OPERATIONAL_POOL_RECEIVER","outputs":[{"internalType":"address","name":"","type":"address"}],"stateMutability":"view","type":"function"},{"inputs":[],"name":"OPERATIONAL_POOL_VESTING","outputs":[{"internalType":"uint256","name":"","type":"uint256"}],"stateMutability":"view","type":"function"},{"inputs":[],"name":"RESERVE_POOL_ALLOCATION","outputs":[{"internalType":"uint256","name":"","type":"uint256"}],"stateMutability":"view","type":"function"},{"inputs":[],"name":"RESERVE_POOL_LOCKUP","outputs":[{"internalType":"uint256","name":"","type":"uint256"}],"stateMutability":"view","type":"function"},{"inputs":[],"name":"RESERVE_POOL_RECEIVER","outputs":[{"internalType":"address","name":"","type":"address"}],"stateMutability":"view","type":"function"},{"inputs":[],"name":"RESERVE_POOL_VESTING","outputs":[{"internalType":"uint256","name":"","type":"uint256"}],"stateMutability":"view","type":"function"},{"inputs":[],"name":"START_TIME","outputs":[{"internalType":"uint256","name":"","type":"uint256"}],"stateMutability":"view","type":"function"},{"inputs":[],"name":"TEAM_ALLOCATION","outputs":[{"internalType":"uint256","name":"","type":"uint256"}],"stateMutability":"view","type":"function"},{"inputs":[],"name":"TEAM_LOCKUP","outputs":[{"internalType":"uint256","name":"","type":"uint256"}],"stateMutability":"view","type":"function"},{"inputs":[],"name":"TEAM_RECEIVER","outputs":[{"internalType":"address","name":"","type":"address"}],"stateMutability":"view","type":"function"},{"inputs":[],"name":"TEAM_VESTING","outputs":[{"internalType":"uint256","name":"","type":"uint256"}],"stateMutability":"view","type":"function"},{"inputs":[{"internalType":"address","name":"newSigner","type":"address"}],"name":"addSigner","outputs":[],"stateMutability":"nonpayable","type":"function"},{"inputs":[{"internalType":"address","name":"owner","type":"address"},{"internalType":"address","name":"spender","type":"address"}],"name":"allowance","outputs":[{"internalType":"uint256","name":"","type":"uint256"}],"stateMutability":"view","type":"function"},{"inputs":[{"internalType":"address","name":"spender","type":"address"},{"internalType":"uint256","name":"amount","type":"uint256"}],"name":"approve","outputs":[{"internalType":"bool","name":"","type":"bool"}],"stateMutability":"nonpayable","type":"function"},{"inputs":[{"internalType":"uint256","name":"operationId","type":"uint256"}],"name":"approveOperation","outputs":[],"stateMutability":"nonpayable","type":"function"},{"inputs":[{"internalType":"address","name":"account","type":"address"}],"name":"balanceOf","outputs":[{"internalType":"uint256","name":"","type":"uint256"}],"stateMutability":"view","type":"function"},{"inputs":[{"internalType":"uint256","name":"operationId","type":"uint256"}],"name":"cancelOperation","outputs":[],"stateMutability":"nonpayable","type":"function"},{"inputs":[],"name":"decimals","outputs":[{"internalType":"uint8","name":"","type":"uint8"}],"stateMutability":"view","type":"function"},{"inputs":[{"internalType":"address","name":"spender","type":"address"},{"internalType":"uint256","name":"subtractedValue","type":"uint256"}],"name":"decreaseAllowance","outputs":[{"internalType":"bool","name":"","type":"bool"}],"stateMutability":"nonpayable","type":"function"},{"inputs":[{"internalType":"uint256","name":"operationId","type":"uint256"}],"name":"executeOperation","outputs":[],"stateMutability":"nonpayable","type":"function"},{"inputs":[{"internalType":"address","name":"spender","type":"address"},{"internalType":"uint256","name":"addedValue","type":"uint256"}],"name":"increaseAllowance","outputs":[{"internalType":"bool","name":"","type":"bool"}],"stateMutability":"nonpayable","type":"function"},{"inputs":[{"internalType":"address","name":"","type":"address"}],"name":"investedAt","outputs":[{"internalType":"uint256","name":"","type":"uint256"}],"stateMutability":"view","type":"function"},{"inputs":[{"internalType":"address","name":"","type":"address"}],"name":"investment","outputs":[{"internalType":"uint256","name":"","type":"uint256"}],"stateMutability":"view","type":"function"},{"inputs":[{"internalType":"address","name":"","type":"address"}],"name":"isInvestor","outputs":[{"internalType":"bool","name":"","type":"bool"}],"stateMutability":"view","type":"function"},{"inputs":[{"internalType":"address","name":"","type":"address"}],"name":"isSigner","outputs":[{"internalType":"bool","name":"","type":"bool"}],"stateMutability":"view","type":"function"},{"inputs":[],"name":"multiSigAddressesLink","outputs":[{"internalType":"string","name":"","type":"string"}],"stateMutability":"view","type":"function"},{"inputs":[],"name":"name","outputs":[{"internalType":"string","name":"","type":"string"}],"stateMutability":"view","type":"function"},{"inputs":[],"name":"owner","outputs":[{"internalType":"address","name":"","type":"address"}],"stateMutability":"view","type":"function"},{"inputs":[{"internalType":"uint256","name":"","type":"uint256"}],"name":"poolClaimedAmount","outputs":[{"internalType":"uint256","name":"","type":"uint256"}],"stateMutability":"view","type":"function"},{"inputs":[{"internalType":"uint256","name":"","type":"uint256"}],"name":"poolLastClaimTime","outputs":[{"internalType":"uint256","name":"","type":"uint256"}],"stateMutability":"view","type":"function"},{"inputs":[{"internalType":"uint256","name":"operationId","type":"uint256"}],"name":"proposeOperation","outputs":[],"stateMutability":"nonpayable","type":"function"},{"inputs":[{"internalType":"address","name":"signerToRemove","type":"address"}],"name":"removeSigner","outputs":[],"stateMutability":"nonpayable","type":"function"},{"inputs":[],"name":"renounceOwnership","outputs":[],"stateMutability":"nonpayable","type":"function"},{"inputs":[{"internalType":"string","name":"link","type":"string"}],"name":"setMultiSigAddressesLink","outputs":[],"stateMutability":"nonpayable","type":"function"},{"inputs":[{"internalType":"string","name":"link","type":"string"}],"name":"setTokenDistributionPlanLink","outputs":[],"stateMutability":"nonpayable","type":"function"},{"inputs":[],"name":"symbol","outputs":[{"internalType":"string","name":"","type":"string"}],"stateMutability":"view","type":"function"},{"inputs":[],"name":"tokenDistributionPlanLink","outputs":[{"internalType":"string","name":"","type":"string"}],"stateMutability":"view","type":"function"},{"inputs":[],"name":"totalSupply","outputs":[{"internalType":"uint256","name":"","type":"uint256"}],"stateMutability":"view","type":"function"},{"inputs":[{"internalType":"address","name":"to","type":"address"},{"internalType":"uint256","name":"amount","type":"uint256"}],"name":"transfer","outputs":[{"internalType":"bool","name":"","type":"bool"}],"stateMutability":"nonpayable","type":"function"},{"inputs":[{"internalType":"address","name":"from","type":"address"},{"internalType":"address","name":"to","type":"address"},{"internalType":"uint256","name":"amount","type":"uint256"}],"name":"transferFrom","outputs":[{"internalType":"bool","name":"","type":"bool"}],"stateMutability":"nonpayable","type":"function"},{"inputs":[{"internalType":"address","name":"newOwner","type":"address"}],"name":"transferOwnership","outputs":[],"stateMutability":"nonpayable","type":"function"}],"devdoc":{"details":"MCT is the governance token contract","kind":"dev","methods":{"addSigner(address)":{"details":"allows owner to add new signers"},"allowance(address,address)":{"details":"See {IERC20-allowance}."},"approve(address,uint256)":{"details":"See {IERC20-approve}. NOTE: If `amount` is the maximum `uint256`, the allowance is not updated on `transferFrom`. This is semantically equivalent to an infinite approval. Requirements: - `spender` cannot be the zero address."},"approveOperation(uint256)":{"details":"allows signer to approve an operation"},"balanceOf(address)":{"details":"See {IERC20-balanceOf}."},"cancelOperation(uint256)":{"details":"allows signer to propose an operation"},"decimals()":{"details":"Returns the number of decimals used to get its user representation. For example, if `decimals` equals `2`, a balance of `505` tokens should be displayed to a user as `5.05` (`505 / 10 ** 2`). Tokens usually opt for a value of 18, imitating the relationship between Ether and Wei. This is the default value returned by this function, unless it's overridden. NOTE: This information is only used for _display_ purposes: it in no way affects any of the arithmetic of the contract, including {IERC20-balanceOf} and {IERC20-transfer}."},"decreaseAllowance(address,uint256)":{"details":"Atomically decreases the allowance granted to `spender` by the caller. This is an alternative to {approve} that can be used as a mitigation for problems described in {IERC20-approve}. Emits an {Approval} event indicating the updated allowance. Requirements: - `spender` cannot be the zero address. - `spender` must have allowance for the caller of at least `subtractedValue`."},"executeOperation(uint256)":{"details":"allows signer to execute an operation"},"increaseAllowance(address,uint256)":{"details":"Atomically increases the allowance granted to `spender` by the caller. This is an alternative to {approve} that can be used as a mitigation for problems described in {IERC20-approve}. Emits an {Approval} event indicating the updated allowance. Requirements: - `spender` cannot be the zero address."},"name()":{"details":"Returns the name of the token."},"owner()":{"details":"Returns the address of the current owner."},"proposeOperation(uint256)":{"details":"allows signer to propose an operation"},"removeSigner(address)":{"details":"allows owner to remove existing signer"},"renounceOwnership()":{"details":"Leaves the contract without owner. It will not be possible to call `onlyOwner` functions. Can only be called by the current owner. NOTE: Renouncing ownership will leave the contract without an owner, thereby disabling any functionality that is only available to the owner."},"setMultiSigAddressesLink(string)":{"details":"allows owner to add external link that contains multi-sig info"},"setTokenDistributionPlanLink(string)":{"details":"allows owner to add external link that contains token distribution plan"},"symbol()":{"details":"Returns the symbol of the token, usually a shorter version of the name."},"totalSupply()":{"details":"See {IERC20-totalSupply}."},"transfer(address,uint256)":{"details":"See {IERC20-transfer}. Requirements: - `to` cannot be the zero address. - the caller must have a balance of at least `amount`."},"transferFrom(address,address,uint256)":{"details":"See {IERC20-transferFrom}. Emits an {Approval} event indicating the updated allowance. This is not required by the EIP. See the note at the beginning of {ERC20}. NOTE: Does not update the allowance if the current allowance is the maximum `uint256`. Requirements: - `from` and `to` cannot be the zero address. - `from` must have a balance of at least `amount`. - the caller must have allowance for ``from``'s tokens of at least `amount`."},"transferOwnership(address)":{"details":"Transfers ownership of the contract to a new account (`newOwner`). Can only be called by the current owner."}},"stateVariables":{"MINING_POOL_ALLOCATION":{"details":"allocation amounts"},"MINING_POOL_RECEIVER":{"details":"allowed pool allocation receivers"},"MINING_POOL_VESTING":{"details":"Vesting periods"},"REQUIRED_SIGNATURES":{"details":"is the minimum number of required signatures"},"TIMELOCK_DELAY":{"details":"Timelock and Multi-signature wallet"},"multiSigAddressesLink":{"details":"A web link for sharing the timelock contract and multi-signers addresses information"},"tokenDistributionPlanLink":{"details":"A web link for share the token distribution plan and multi-signature wallet address"}},"version":1},"evm":{"bytecode":{"linkReferences":{},"object":"60a06040523480156200001157600080fd5b506040516200247438038062002474833981016040819052620000349162000242565b818160036200004483826200033b565b5060046200005382826200033b565b505050620000706200006a6200012760201b60201c565b6200012b565b6b1363156bbee3016d700000006a94e47b8d681715340000006a31a17e847807b1bc0000006b015b6a759f4835dc24000000806b025391ee35a05c54d0000000620000d46b01f04ef12cb04cf1580000006b0ba1d9a70c21cda81000000062000407565b620000e0919062000407565b620000ec919062000407565b620000f8919062000407565b62000104919062000407565b62000110919062000407565b146200011b57600080fd5b5050426080526200042f565b3390565b600580546001600160a01b038381166001600160a01b0319831681179093556040519116919082907f8be0079c531659141344cd1fd0a4f28419497f9722a3daafe3b4186f6b6457e090600090a35050565b634e487b7160e01b600052604160045260246000fd5b600082601f830112620001a557600080fd5b81516001600160401b0380821115620001c257620001c26200017d565b604051601f8301601f19908116603f01168101908282118183101715620001ed57620001ed6200017d565b816040528381526020925086838588010111156200020a57600080fd5b600091505b838210156200022e57858201830151818301840152908201906200020f565b600093810190920192909252949350505050565b600080604083850312156200025657600080fd5b82516001600160401b03808211156200026e57600080fd5b6200027c8683870162000193565b935060208501519150808211156200029357600080fd5b50620002a28582860162000193565b9150509250929050565b600181811c90821680620002c157607f821691505b602082108103620002e257634e487b7160e01b600052602260045260246000fd5b50919050565b601f8211156200033657600081815260208120601f850160051c81016020861015620003115750805b601f850160051c820191505b8181101562000332578281556001016200031d565b5050505b505050565b81516001600160401b038111156200035757620003576200017d565b6200036f81620003688454620002ac565b84620002e8565b602080601f831160018114620003a757600084156200038e5750858301515b600019600386901b1c1916600185901b17855562000332565b600085815260208120601f198616915b82811015620003d857888601518255948401946001909101908401620003b7565b5085821015620003f75787850151600019600388901b60f8161c191681555b5050505050600190811b01905550565b808201808211156200042957634e487b7160e01b600052601160045260246000fd5b92915050565b60805161201b6200045960003960008181610664015281816114940152611533015261201b6000f3fe608060405234801561001057600080fd5b50600436106102d75760003560e01c80638da5cb5b11610188578063ba558d61116100e4578063df5e845211610092578063df5e845214610686578063e2571f5d146106a1578063eb12d61e146106b3578063f2fde38b146106c6578063f76b8fe2146106d9578063fd99cbed146105cd578063feeee007146106f957600080fd5b8063ba558d61146105cd578063bea06016146105e0578063cb4b4ff9146105fb578063cee2a9cf1461060e578063d95e277a14610631578063dd62ed3e1461064c578063ddaa26ad1461065f57600080fd5b8063a9059cbb11610141578063a9059cbb14610550578063aaff1f1814610563578063ac0b23531461056b578063b16179bf14610576578063b179fa721461057f578063b4e5df401461059f578063b6ef599c146105b257600080fd5b80638da5cb5b146104f657806393ad411a146103b657806395d89b41146105075780639e3299f21461050f578063a340a0171461052a578063a457c2d71461053d57600080fd5b806338a418b0116102375780636338c7e9116101f05780636338c7e91461045a57806370a0823114610462578063715018a61461048b5780637df73e2714610493578063831edebe146104b657806387bdc093146104d15780638c366214146104e357600080fd5b806338a418b0146103fb578063395093511461040e5780634ca6a094146104215780634d703b6a146104345780635c5dd2221461043f5780635c9452271461044757600080fd5b806316a38f1f1161029457806316a38f1f1461039b57806318160ddd146103ae5780631940ca17146103b657806323b872dd146103be578063313ce567146103d157806332cb6b0c146103e0578063374b227d146103f357600080fd5b80630399516d146102dc57806306fdde031461030d578063095ea7b3146103225780630bd18d7a146103455780630e316ab7146103735780630e70306d14610388575b600080fd5b6102f773a0b9fe04f0e6e44e42c90cfe30507769e91c191981565b6040516103049190611b32565b60405180910390f35b610315610719565b6040516103049190611b46565b610335610330366004611bb0565b6107ab565b6040519015158152602001610304565b610365610353366004611bda565b60096020526000908152604090205481565b604051908152602001610304565b610386610381366004611bda565b6107c5565b005b610386610396366004611bfc565b610895565b6103866103a9366004611bfc565b610ba8565b600254610365565b610365609c81565b6103356103cc366004611c15565b610d83565b60405160128152602001610304565b6103656b1363156bbee3016d7000000081565b610315610da7565b610386610409366004611c67565b610e35565b61033561041c366004611bb0565b610e79565b6103656b0ba1d9a70c21cda81000000081565b6103656303bfc40081565b610315610e9b565b610386610455366004611bfc565b610ea8565b610365606881565b610365610470366004611bda565b6001600160a01b031660009081526020819052604090205490565b610386610fa4565b6103356104a1366004611bda565b600c6020526000908152604090205460ff1681565b6102f773910bbe8b14dbe813ea3f0e268058b024bf5301d981565b6103656a31a17e847807b1bc00000081565b6103866104f1366004611bfc565b610fb8565b6005546001600160a01b03166102f7565b610315611076565b6102f773f32fb437a2768f02fada4d97abe76d8f306f44fe81565b610386610538366004611c67565b611085565b61033561054b366004611bb0565b6110c9565b61033561055e366004611bb0565b611144565b610365603481565b6103656301dfe20081565b61036561020881565b61036561058d366004611bfc565b60066020526000908152604090205481565b6103656b025391ee35a05c54d000000081565b6102f773d1e532c785deec90c1c69c7c5a7dcd28a8f7424881565b6103656b015b6a759f4835dc2400000081565b6102f7738a83d34fa97910b0786d8dab29c5f3aca5c1cc7681565b6103656b01f04ef12cb04cf15800000081565b61033561061c366004611bda565b60086020526000908152604090205460ff1681565b6102f773b54e1c4b3927f4489ead5c149b7895ecd03a5ce081565b61036561065a366004611d18565b611152565b6103657f000000000000000000000000000000000000000000000000000000000000000081565b6102f7738824fe9fa03d3716a762375867fac2052cd54a8c81565b6103656a94e47b8d6817153400000081565b6103866106c1366004611bda565b61117d565b6103866106d4366004611bda565b611297565b6103656106e7366004611bda565b600a6020526000908152604090205481565b610365610707366004611bfc565b60076020526000908152604090205481565b60606003805461072890611d4b565b80601f016020809104026020016040519081016040528092919081815260200182805461075490611d4b565b80156107a15780601f10610776576101008083540402835291602001916107a1565b820191906000526020600020905b81548152906001019060200180831161078457829003601f168201915b5050505050905090565b6000336107b9818585611310565b60019150505b92915050565b6107cd611434565b6001600160a01b0381166000908152600c602052604090205460ff1661083a5760405162461bcd60e51b815260206004820152601a60248201527f4d43543a205369676e657220646f6573206e6f7420657869737400000000000060448201526064015b60405180910390fd5b6001600160a01b0381166000908152600c602052604090819020805460ff19169055517fce376785ca01132d547f73809127e07afeaf9d5e73694947b35137d17332f03a9061088a908390611b32565b60405180910390a150565b336000908152600c602052604090205460ff166108c45760405162461bcd60e51b815260040161083190611d85565b6000818152600e602052604090205481906108e3906202a30090611de3565b421161093d5760405162461bcd60e51b8152602060048201526024808201527f4d43543a2054696d656c6f636b20706572696f64206e6f7420796574206578706044820152631a5c995960e21b6064820152608401610831565b6000828152600d602052604090205460ff1661096b5760405162461bcd60e51b815260040161083190611df6565b6000828152600f6020526040902054600211156109da5760405162461bcd60e51b815260206004820152602760248201527f4d43543a204e6f7420656e6f75676820617070726f76616c7320666f72206f7060448201526632b930ba34b7b760c91b6064820152608401610831565b6000828152600d60209081526040808320805460ff19169055600e8252808320839055600f825280832083905560109091528120610a1791611b00565b81600103610a5457610a50600160006b0ba1d9a70c21cda81000000061020873b54e1c4b3927f4489ead5c149b7895ecd03a5ce061148e565b5050565b81600203610a8c57610a50600260006b01f04ef12cb04cf158000000603473f32fb437a2768f02fada4d97abe76d8f306f44fe61148e565b81600303610ac757610a5060036303bfc4006b025391ee35a05c54d0000000606873d1e532c785deec90c1c69c7c5a7dcd28a8f7424861148e565b81600403610aff57610a50600460006b015b6a759f4835dc24000000609c73a0b9fe04f0e6e44e42c90cfe30507769e91c191961148e565b81600503610b3a57610a5060056301dfe2006b015b6a759f4835dc24000000609c738a83d34fa97910b0786d8dab29c5f3aca5c1cc7661148e565b81600603610b7157610a50600660006a31a17e847807b1bc0000006001738824fe9fa03d3716a762375867fac2052cd54a8c61148e565b81600703610a5057610a50600760006a94e47b8d68171534000000600173910bbe8b14dbe813ea3f0e268058b024bf5301d961148e565b336000908152600c602052604090205460ff16610bd75760405162461bcd60e51b815260040161083190611d85565b6000818152600d602052604090205460ff16610c055760405162461bcd60e51b815260040161083190611df6565b6000818152600f6020526040902054600211610c335760405162461bcd60e51b815260040161083190611e2d565b600081815260106020908152604080832080548251818502810185019093528083529192909190830182828015610c9357602002820191906000526020600020905b81546001600160a01b03168152600190910190602001808311610c75575b5050505050905060005b8151811015610d3257336001600160a01b0316828281518110610cc257610cc2611e64565b60200260200101516001600160a01b031603610d205760405162461bcd60e51b815260206004820152601a60248201527f4d43543a205369676e657220616c7265616479207369676e65640000000000006044820152606401610831565b80610d2a81611e7a565b915050610c9d565b506000828152600f60205260408120805491610d4d83611e7a565b90915550505060009081526010602090815260408220805460018101825590835291200180546001600160a01b03191633179055565b600033610d918582856116f3565b610d9c85858561176d565b506001949350505050565b60118054610db490611d4b565b80601f0160208091040260200160405190810160405280929190818152602001828054610de090611d4b565b8015610e2d5780601f10610e0257610100808354040283529160200191610e2d565b820191906000526020600020905b815481529060010190602001808311610e1057829003601f168201915b505050505081565b610e3d611434565b6011610e498282611ed9565b507f244b98c0deef2393ec403278ed60386765b5d6f59f3e4412c8909d0de66b20218160405161088a9190611b46565b6000336107b9818585610e8c8383611152565b610e969190611de3565b611310565b60128054610db490611d4b565b610eb0611434565b6000818152600e6020526040902054610ecd906203f48090611de3565b4211610f1b5760405162461bcd60e51b815260206004820181905260248201527f4d43543a204f7065726174696f6e206f7574206f662074696d6520626f756e646044820152606401610831565b6000818152600f6020526040902054600211610f495760405162461bcd60e51b815260040161083190611e2d565b6000818152600d602052604090205460ff16610f775760405162461bcd60e51b815260040161083190611df6565b6000908152600d60209081526040808320805460ff19169055600e8252808320839055600f909152812055565b610fac611434565b610fb66000611911565b565b336000908152600c602052604090205460ff16610fe75760405162461bcd60e51b815260040161083190611d85565b6000818152600d602052604090205460ff16156110465760405162461bcd60e51b815260206004820152601f60248201527f4d43543a204f7065726174696f6e20616c72656164792070726f706f736564006044820152606401610831565b6000908152600d60209081526040808320805460ff19166001179055600e8252808320429055600f909152812055565b60606004805461072890611d4b565b61108d611434565b60126110998282611ed9565b507fe0ab386401771f5a4e068348a2d8e279b1530d152681890b0d3243c96b2cc78b8160405161088a9190611b46565b600033816110d78286611152565b9050838110156111375760405162461bcd60e51b815260206004820152602560248201527f45524332303a2064656372656173656420616c6c6f77616e63652062656c6f77604482015264207a65726f60d81b6064820152608401610831565b610d9c8286868403611310565b6000336107b981858561176d565b6001600160a01b03918216600090815260016020908152604080832093909416825291909152205490565b611185611434565b6001600160a01b0381166111db5760405162461bcd60e51b815260206004820152601b60248201527f4d43543a20496e76616c6964207369676e6572206164647265737300000000006044820152606401610831565b6001600160a01b0381166000908152600c602052604090205460ff16156112445760405162461bcd60e51b815260206004820152601a60248201527f4d43543a205369676e657220616c7265616479206578697374730000000000006044820152606401610831565b6001600160a01b0381166000908152600c602052604090819020805460ff19166001179055517f72d4003e8f1ad99f4f488c703a1d183dee364a6337cb77f8fba50088cb0fbfa39061088a908390611b32565b61129f611434565b6001600160a01b0381166113045760405162461bcd60e51b815260206004820152602660248201527f4f776e61626c653a206e6577206f776e657220697320746865207a65726f206160448201526564647265737360d01b6064820152608401610831565b61130d81611911565b50565b6001600160a01b0383166113725760405162461bcd60e51b8152602060048201526024808201527f45524332303a20617070726f76652066726f6d20746865207a65726f206164646044820152637265737360e01b6064820152608401610831565b6001600160a01b0382166113d35760405162461bcd60e51b815260206004820152602260248201527f45524332303a20617070726f766520746f20746865207a65726f206164647265604482015261737360f01b6064820152608401610831565b6001600160a01b0383811660008181526001602090815260408083209487168084529482529182902085905590518481527f8c5be1e5ebec7d5bd14f71427d1e84f3dd0314c0f7b2291e5b200ac8c7c3b925910160405180910390a3505050565b6005546001600160a01b03163314610fb65760405162461bcd60e51b815260206004820181905260248201527f4f776e61626c653a2063616c6c6572206973206e6f7420746865206f776e65726044820152606401610831565b6114b8847f0000000000000000000000000000000000000000000000000000000000000000611de3565b42116114fc5760405162461bcd60e51b81526020600482015260136024820152721350d50e88131bd8dacb5a5b8814195c9a5bd9606a1b6044820152606401610831565b6000856006148061150d5750856007145b156115195750826115ff565b600086815260066020526040812054810361155f576115587f000000000000000000000000000000000000000000000000000000000000000042611f99565b905061157b565b6000878152600660205260409020546115789042611f99565b90505b600061158a62093a8083611fac565b905061159581611963565b600081116115e15760405162461bcd60e51b81526020600482015260196024820152781350d50e8810db185a5b4814195c9a5bd908125b9d985b1a59603a1b6044820152606401610831565b60006115ed8688611fac565b90506115f98183611fce565b93505050505b600081116116485760405162461bcd60e51b81526020600482015260166024820152751350d50e8816995c9bc810db185a5b48105b5bdd5b9d60521b6044820152606401610831565b6000868152600760205260409020548490611664908390611de3565b11156116ad5760405162461bcd60e51b81526020600482015260186024820152771350d50e8810db185a5b48131a5b5a5d0814995858da195960421b6044820152606401610831565b600086815260076020526040812080548392906116cb908490611de3565b909155505060008681526006602052604090204290556116eb82826119a8565b505050505050565b60006116ff8484611152565b90506000198114611767578181101561175a5760405162461bcd60e51b815260206004820152601d60248201527f45524332303a20696e73756666696369656e7420616c6c6f77616e63650000006044820152606401610831565b6117678484848403611310565b50505050565b6001600160a01b0383166117d15760405162461bcd60e51b815260206004820152602560248201527f45524332303a207472616e736665722066726f6d20746865207a65726f206164604482015264647265737360d81b6064820152608401610831565b6001600160a01b0382166118335760405162461bcd60e51b815260206004820152602360248201527f45524332303a207472616e7366657220746f20746865207a65726f206164647260448201526265737360e81b6064820152608401610831565b6001600160a01b038316600090815260208190526040902054818110156118ab5760405162461bcd60e51b815260206004820152602660248201527f45524332303a207472616e7366657220616d6f756e7420657863656564732062604482015265616c616e636560d01b6064820152608401610831565b6001600160a01b03848116600081815260208181526040808320878703905593871680835291849020805487019055925185815290927fddf252ad1be2c89b69c2b068fc378daa952ba7f163c4a11628f55a4df523b3ef910160405180910390a3611767565b600580546001600160a01b038381166001600160a01b0319831681179093556040519116919082907f8be0079c531659141344cd1fd0a4f28419497f9722a3daafe3b4186f6b6457e090600090a35050565b61130d8160405160240161197991815260200190565b60408051601f198184030181529190526020810180516001600160e01b031663f82c50f160e01b179052611a20565b6b1363156bbee3016d70000000816119bf60025490565b6119c99190611de3565b1115611a115760405162461bcd60e51b81526020600482015260176024820152761350d50e8813585e0814dd5c1c1b1e4814995858da1959604a1b6044820152606401610831565b610a508282611a41565b505050565b80516a636f6e736f6c652e6c6f67602083016000808483855afa5050505050565b6001600160a01b038216611a975760405162461bcd60e51b815260206004820152601f60248201527f45524332303a206d696e7420746f20746865207a65726f2061646472657373006044820152606401610831565b8060026000828254611aa99190611de3565b90915550506001600160a01b038216600081815260208181526040808320805486019055518481527fddf252ad1be2c89b69c2b068fc378daa952ba7f163c4a11628f55a4df523b3ef910160405180910390a35050565b508054600082559060005260206000209081019061130d91905b80821115611b2e5760008155600101611b1a565b5090565b6001600160a01b0391909116815260200190565b600060208083528351808285015260005b81811015611b7357858101830151858201604001528201611b57565b506000604082860101526040601f19601f8301168501019250505092915050565b80356001600160a01b0381168114611bab57600080fd5b919050565b60008060408385031215611bc357600080fd5b611bcc83611b94565b946020939093013593505050565b600060208284031215611bec57600080fd5b611bf582611b94565b9392505050565b600060208284031215611c0e57600080fd5b5035919050565b600080600060608486031215611c2a57600080fd5b611c3384611b94565b9250611c4160208501611b94565b9150604084013590509250925092565b634e487b7160e01b600052604160045260246000fd5b600060208284031215611c7957600080fd5b813567ffffffffffffffff80821115611c9157600080fd5b818401915084601f830112611ca557600080fd5b813581811115611cb757611cb7611c51565b604051601f8201601f19908116603f01168101908382118183101715611cdf57611cdf611c51565b81604052828152876020848701011115611cf857600080fd5b826020860160208301376000928101602001929092525095945050505050565b60008060408385031215611d2b57600080fd5b611d3483611b94565b9150611d4260208401611b94565b90509250929050565b600181811c90821680611d5f57607f821691505b602082108103611d7f57634e487b7160e01b600052602260045260246000fd5b50919050565b60208082526028908201527f4d43543a204f6e6c79207369676e6572732063616e2063616c6c207468697320604082015267333ab731ba34b7b760c11b606082015260800190565b634e487b7160e01b600052601160045260246000fd5b808201808211156107bf576107bf611dcd565b6020808252601b908201527f4d43543a204f7065726174696f6e206e6f742070726f706f7365640000000000604082015260600190565b6020808252601f908201527f4d43543a204f7065726174696f6e20616c726561647920617070726f76656400604082015260600190565b634e487b7160e01b600052603260045260246000fd5b600060018201611e8c57611e8c611dcd565b5060010190565b601f821115611a1b57600081815260208120601f850160051c81016020861015611eba5750805b601f850160051c820191505b818110156116eb57828155600101611ec6565b815167ffffffffffffffff811115611ef357611ef3611c51565b611f0781611f018454611d4b565b84611e93565b602080601f831160018114611f3c5760008415611f245750858301515b600019600386901b1c1916600185901b1785556116eb565b600085815260208120601f198616915b82811015611f6b57888601518255948401946001909101908401611f4c565b5085821015611f895787850151600019600388901b60f8161c191681555b5050505050600190811b01905550565b818103818111156107bf576107bf611dcd565b600082611fc957634e487b7160e01b600052601260045260246000fd5b500490565b80820281158282048414176107bf576107bf611dcd56fea2646970667358221220444633e134639b42a554220acfeead4296c93d2a4e5bd226c8006964a2721b8464736f6c63430008110033","opcodes":"PUSH1 0xA0 PUSH1 0x40 MSTORE CALLVALUE DUP1 ISZERO PUSH3 0x11 JUMPI PUSH1 0x0 DUP1 REVERT JUMPDEST POP PUSH1 0x40 MLOAD PUSH3 0x2474 CODESIZE SUB DUP1 PUSH3 0x2474 DUP4 CODECOPY DUP2 ADD PUSH1 0x40 DUP2 SWAP1 MSTORE PUSH3 0x34 SWAP2 PUSH3 0x242 JUMP JUMPDEST DUP2 DUP2 PUSH1 0x3 PUSH3 0x44 DUP4 DUP3 PUSH3 0x33B JUMP JUMPDEST POP PUSH1 0x4 PUSH3 0x53 DUP3 DUP3 PUSH3 0x33B JUMP JUMPDEST POP POP POP PUSH3 0x70 PUSH3 0x6A PUSH3 0x127 PUSH1 0x20 SHL PUSH1 0x20 SHR JUMP JUMPDEST PUSH3 0x12B JUMP JUMPDEST PUSH12 0x1363156BBEE3016D70000000 PUSH11 0x94E47B8D68171534000000 PUSH11 0x31A17E847807B1BC000000 PUSH12 0x15B6A759F4835DC24000000 DUP1 PUSH12 0x25391EE35A05C54D0000000 PUSH3 0xD4 PUSH12 0x1F04EF12CB04CF158000000 PUSH12 0xBA1D9A70C21CDA810000000 PUSH3 0x407 JUMP JUMPDEST PUSH3 0xE0 SWAP2 SWAP1 PUSH3 0x407 JUMP JUMPDEST PUSH3 0xEC SWAP2 SWAP1 PUSH3 0x407 JUMP JUMPDEST PUSH3 0xF8 SWAP2 SWAP1 PUSH3 0x407 JUMP JUMPDEST PUSH3 0x104 SWAP2 SWAP1 PUSH3 0x407 JUMP JUMPDEST PUSH3 0x110 SWAP2 SWAP1 PUSH3 0x407 JUMP JUMPDEST EQ PUSH3 0x11B JUMPI PUSH1 0x0 DUP1 REVERT JUMPDEST POP POP TIMESTAMP PUSH1 0x80 MSTORE PUSH3 0x42F JUMP JUMPDEST CALLER SWAP1 JUMP JUMPDEST PUSH1 0x5 DUP1 SLOAD PUSH1 0x1 PUSH1 0x1 PUSH1 0xA0 SHL SUB DUP4 DUP2 AND PUSH1 0x1 PUSH1 0x1 PUSH1 0xA0 SHL SUB NOT DUP4 AND DUP2 OR SWAP1 SWAP4 SSTORE PUSH1 0x40 MLOAD SWAP2 AND SWAP2 SWAP1 DUP3 SWAP1 PUSH32 0x8BE0079C531659141344CD1FD0A4F28419497F9722A3DAAFE3B4186F6B6457E0 SWAP1 PUSH1 0x0 SWAP1 LOG3 POP POP JUMP JUMPDEST PUSH4 0x4E487B71 PUSH1 0xE0 SHL PUSH1 0x0 MSTORE PUSH1 0x41 PUSH1 0x4 MSTORE PUSH1 0x24 PUSH1 0x0 REVERT JUMPDEST PUSH1 0x0 DUP3 PUSH1 0x1F DUP4 ADD SLT PUSH3 0x1A5 JUMPI PUSH1 0x0 DUP1 REVERT JUMPDEST DUP2 MLOAD PUSH1 0x1 PUSH1 0x1 PUSH1 0x40 SHL SUB DUP1 DUP3 GT ISZERO PUSH3 0x1C2 JUMPI PUSH3 0x1C2 PUSH3 0x17D JUMP JUMPDEST PUSH1 0x40 MLOAD PUSH1 0x1F DUP4 ADD PUSH1 0x1F NOT SWAP1 DUP2 AND PUSH1 0x3F ADD AND DUP2 ADD SWAP1 DUP3 DUP3 GT DUP2 DUP4 LT OR ISZERO PUSH3 0x1ED JUMPI PUSH3 0x1ED PUSH3 0x17D JUMP JUMPDEST DUP2 PUSH1 0x40 MSTORE DUP4 DUP2 MSTORE PUSH1 0x20 SWAP3 POP DUP7 DUP4 DUP6 DUP9 ADD ADD GT ISZERO PUSH3 0x20A JUMPI PUSH1 0x0 DUP1 REVERT JUMPDEST PUSH1 0x0 SWAP2 POP JUMPDEST DUP4 DUP3 LT ISZERO PUSH3 0x22E JUMPI DUP6 DUP3 ADD DUP4 ADD MLOAD DUP2 DUP4 ADD DUP5 ADD MSTORE SWAP1 DUP3 ADD SWAP1 PUSH3 0x20F JUMP JUMPDEST PUSH1 0x0 SWAP4 DUP2 ADD SWAP1 SWAP3 ADD SWAP3 SWAP1 SWAP3 MSTORE SWAP5 SWAP4 POP POP POP POP JUMP JUMPDEST PUSH1 0x0 DUP1 PUSH1 0x40 DUP4 DUP6 SUB SLT ISZERO PUSH3 0x256 JUMPI PUSH1 0x0 DUP1 REVERT JUMPDEST DUP3 MLOAD PUSH1 0x1 PUSH1 0x1 PUSH1 0x40 SHL SUB DUP1 DUP3 GT ISZERO PUSH3 0x26E JUMPI PUSH1 0x0 DUP1 REVERT JUMPDEST PUSH3 0x27C DUP7 DUP4 DUP8 ADD PUSH3 0x193 JUMP JUMPDEST SWAP4 POP PUSH1 0x20 DUP6 ADD MLOAD SWAP2 POP DUP1 DUP3 GT ISZERO PUSH3 0x293 JUMPI PUSH1 0x0 DUP1 REVERT JUMPDEST POP PUSH3 0x2A2 DUP6 DUP3 DUP7 ADD PUSH3 0x193 JUMP JUMPDEST SWAP2 POP POP SWAP3 POP SWAP3 SWAP1 POP JUMP JUMPDEST PUSH1 0x1 DUP2 DUP2 SHR SWAP1 DUP3 AND DUP1 PUSH3 0x2C1 JUMPI PUSH1 0x7F DUP3 AND SWAP2 POP JUMPDEST PUSH1 0x20 DUP3 LT DUP2 SUB PUSH3 0x2E2 JUMPI PUSH4 0x4E487B71 PUSH1 0xE0 SHL PUSH1 0x0 MSTORE PUSH1 0x22 PUSH1 0x4 MSTORE PUSH1 0x24 PUSH1 0x0 REVERT JUMPDEST POP SWAP2 SWAP1 POP JUMP JUMPDEST PUSH1 0x1F DUP3 GT ISZERO PUSH3 0x336 JUMPI PUSH1 0x0 DUP2 DUP2 MSTORE PUSH1 0x20 DUP2 KECCAK256 PUSH1 0x1F DUP6 ADD PUSH1 0x5 SHR DUP2 ADD PUSH1 0x20 DUP7 LT ISZERO PUSH3 0x311 JUMPI POP DUP1 JUMPDEST PUSH1 0x1F DUP6 ADD PUSH1 0x5 SHR DUP3 ADD SWAP2 POP JUMPDEST DUP2 DUP2 LT ISZERO PUSH3 0x332 JUMPI DUP3 DUP2 SSTORE PUSH1 0x1 ADD PUSH3 0x31D JUMP JUMPDEST POP POP POP JUMPDEST POP POP POP JUMP JUMPDEST DUP2 MLOAD PUSH1 0x1 PUSH1 0x1 PUSH1 0x40 SHL SUB DUP2 GT ISZERO PUSH3 0x357 JUMPI PUSH3 0x357 PUSH3 0x17D JUMP JUMPDEST PUSH3 0x36F DUP2 PUSH3 0x368 DUP5 SLOAD PUSH3 0x2AC JUMP JUMPDEST DUP5 PUSH3 0x2E8 JUMP JUMPDEST PUSH1 0x20 DUP1 PUSH1 0x1F DUP4 GT PUSH1 0x1 DUP2 EQ PUSH3 0x3A7 JUMPI PUSH1 0x0 DUP5 ISZERO PUSH3 0x38E JUMPI POP DUP6 DUP4 ADD MLOAD JUMPDEST PUSH1 0x0 NOT PUSH1 0x3 DUP7 SWAP1 SHL SHR NOT AND PUSH1 0x1 DUP6 SWAP1 SHL OR DUP6 SSTORE PUSH3 0x332 JUMP JUMPDEST PUSH1 0x0 DUP6 DUP2 MSTORE PUSH1 0x20 DUP2 KECCAK256 PUSH1 0x1F NOT DUP7 AND SWAP2 JUMPDEST DUP3 DUP2 LT ISZERO PUSH3 0x3D8 JUMPI DUP9 DUP7 ADD MLOAD DUP3 SSTORE SWAP5 DUP5 ADD SWAP5 PUSH1 0x1 SWAP1 SWAP2 ADD SWAP1 DUP5 ADD PUSH3 0x3B7 JUMP JUMPDEST POP DUP6 DUP3 LT ISZERO PUSH3 0x3F7 JUMPI DUP8 DUP6 ADD MLOAD PUSH1 0x0 NOT PUSH1 0x3 DUP9 SWAP1 SHL PUSH1 0xF8 AND SHR NOT AND DUP2 SSTORE JUMPDEST POP POP POP POP POP PUSH1 0x1 SWAP1 DUP2 SHL ADD SWAP1 SSTORE POP JUMP JUMPDEST DUP1 DUP3 ADD DUP1 DUP3 GT ISZERO PUSH3 0x429 JUMPI PUSH4 0x4E487B71 PUSH1 0xE0 SHL PUSH1 0x0 MSTORE PUSH1 0x11 PUSH1 0x4 MSTORE PUSH1 0x24 PUSH1 0x0 REVERT JUMPDEST SWAP3 SWAP2 POP POP JUMP JUMPDEST PUSH1 0x80 MLOAD PUSH2 0x201B PUSH3 0x459 PUSH1 0x0 CODECOPY PUSH1 0x0 DUP2 DUP2 PUSH2 0x664 ADD MSTORE DUP2 DUP2 PUSH2 0x1494 ADD MSTORE PUSH2 0x1533 ADD MSTORE PUSH2 0x201B PUSH1 0x0 RETURN INVALID PUSH1 0x80 PUSH1 0x40 MSTORE CALLVALUE DUP1 ISZERO PUSH2 0x10 JUMPI PUSH1 0x0 DUP1 REVERT JUMPDEST POP PUSH1 0x4 CALLDATASIZE LT PUSH2 0x2D7 JUMPI PUSH1 0x0 CALLDATALOAD PUSH1 0xE0 SHR DUP1 PUSH4 0x8DA5CB5B GT PUSH2 0x188 JUMPI DUP1 PUSH4 0xBA558D61 GT PUSH2 0xE4 JUMPI DUP1 PUSH4 0xDF5E8452 GT PUSH2 0x92 JUMPI DUP1 PUSH4 0xDF5E8452 EQ PUSH2 0x686 JUMPI DUP1 PUSH4 0xE2571F5D EQ PUSH2 0x6A1 JUMPI DUP1 PUSH4 0xEB12D61E EQ PUSH2 0x6B3 JUMPI DUP1 PUSH4 0xF2FDE38B EQ PUSH2 0x6C6 JUMPI DUP1 PUSH4 0xF76B8FE2 EQ PUSH2 0x6D9 JUMPI DUP1 PUSH4 0xFD99CBED EQ PUSH2 0x5CD JUMPI DUP1 PUSH4 0xFEEEE007 EQ PUSH2 0x6F9 JUMPI PUSH1 0x0 DUP1 REVERT JUMPDEST DUP1 PUSH4 0xBA558D61 EQ PUSH2 0x5CD JUMPI DUP1 PUSH4 0xBEA06016 EQ PUSH2 0x5E0 JUMPI DUP1 PUSH4 0xCB4B4FF9 EQ PUSH2 0x5FB JUMPI DUP1 PUSH4 0xCEE2A9CF EQ PUSH2 0x60E JUMPI DUP1 PUSH4 0xD95E277A EQ PUSH2 0x631 JUMPI DUP1 PUSH4 0xDD62ED3E EQ PUSH2 0x64C JUMPI DUP1 PUSH4 0xDDAA26AD EQ PUSH2 0x65F JUMPI PUSH1 0x0 DUP1 REVERT JUMPDEST DUP1 PUSH4 0xA9059CBB GT PUSH2 0x141 JUMPI DUP1 PUSH4 0xA9059CBB EQ PUSH2 0x550 JUMPI DUP1 PUSH4 0xAAFF1F18 EQ PUSH2 0x563 JUMPI DUP1 PUSH4 0xAC0B2353 EQ PUSH2 0x56B JUMPI DUP1 PUSH4 0xB16179BF EQ PUSH2 0x576 JUMPI DUP1 PUSH4 0xB179FA72 EQ PUSH2 0x57F JUMPI DUP1 PUSH4 0xB4E5DF40 EQ PUSH2 0x59F JUMPI DUP1 PUSH4 0xB6EF599C EQ PUSH2 0x5B2 JUMPI PUSH1 0x0 DUP1 REVERT JUMPDEST DUP1 PUSH4 0x8DA5CB5B EQ PUSH2 0x4F6 JUMPI DUP1 PUSH4 0x93AD411A EQ PUSH2 0x3B6 JUMPI DUP1 PUSH4 0x95D89B41 EQ PUSH2 0x507 JUMPI DUP1 PUSH4 0x9E3299F2 EQ PUSH2 0x50F JUMPI DUP1 PUSH4 0xA340A017 EQ PUSH2 0x52A JUMPI DUP1 PUSH4 0xA457C2D7 EQ PUSH2 0x53D JUMPI PUSH1 0x0 DUP1 REVERT JUMPDEST DUP1 PUSH4 0x38A418B0 GT PUSH2 0x237 JUMPI DUP1 PUSH4 0x6338C7E9 GT PUSH2 0x1F0 JUMPI DUP1 PUSH4 0x6338C7E9 EQ PUSH2 0x45A JUMPI DUP1 PUSH4 0x70A08231 EQ PUSH2 0x462 JUMPI DUP1 PUSH4 0x715018A6 EQ PUSH2 0x48B JUMPI DUP1 PUSH4 0x7DF73E27 EQ PUSH2 0x493 JUMPI DUP1 PUSH4 0x831EDEBE EQ PUSH2 0x4B6 JUMPI DUP1 PUSH4 0x87BDC093 EQ PUSH2 0x4D1 JUMPI DUP1 PUSH4 0x8C366214 EQ PUSH2 0x4E3 JUMPI PUSH1 0x0 DUP1 REVERT JUMPDEST DUP1 PUSH4 0x38A418B0 EQ PUSH2 0x3FB JUMPI DUP1 PUSH4 0x39509351 EQ PUSH2 0x40E JUMPI DUP1 PUSH4 0x4CA6A094 EQ PUSH2 0x421 JUMPI DUP1 PUSH4 0x4D703B6A EQ PUSH2 0x434 JUMPI DUP1 PUSH4 0x5C5DD222 EQ PUSH2 0x43F JUMPI DUP1 PUSH4 0x5C945227 EQ PUSH2 0x447 JUMPI PUSH1 0x0 DUP1 REVERT JUMPDEST DUP1 PUSH4 0x16A38F1F GT PUSH2 0x294 JUMPI DUP1 PUSH4 0x16A38F1F EQ PUSH2 0x39B JUMPI DUP1 PUSH4 0x18160DDD EQ PUSH2 0x3AE JUMPI DUP1 PUSH4 0x1940CA17 EQ PUSH2 0x3B6 JUMPI DUP1 PUSH4 0x23B872DD EQ PUSH2 0x3BE JUMPI DUP1 PUSH4 0x313CE567 EQ PUSH2 0x3D1 JUMPI DUP1 PUSH4 0x32CB6B0C EQ PUSH2 0x3E0 JUMPI DUP1 PUSH4 0x374B227D EQ PUSH2 0x3F3 JUMPI PUSH1 0x0 DUP1 REVERT JUMPDEST DUP1 PUSH4 0x399516D EQ PUSH2 0x2DC JUMPI DUP1 PUSH4 0x6FDDE03 EQ PUSH2 0x30D JUMPI DUP1 PUSH4 0x95EA7B3 EQ PUSH2 0x322 JUMPI DUP1 PUSH4 0xBD18D7A EQ PUSH2 0x345 JUMPI DUP1 PUSH4 0xE316AB7 EQ PUSH2 0x373 JUMPI DUP1 PUSH4 0xE70306D EQ PUSH2 0x388 JUMPI JUMPDEST PUSH1 0x0 DUP1 REVERT JUMPDEST PUSH2 0x2F7 PUSH20 0xA0B9FE04F0E6E44E42C90CFE30507769E91C1919 DUP2 JUMP JUMPDEST PUSH1 0x40 MLOAD PUSH2 0x304 SWAP2 SWAP1 PUSH2 0x1B32 JUMP JUMPDEST PUSH1 0x40 MLOAD DUP1 SWAP2 SUB SWAP1 RETURN JUMPDEST PUSH2 0x315 PUSH2 0x719 JUMP JUMPDEST PUSH1 0x40 MLOAD PUSH2 0x304 SWAP2 SWAP1 PUSH2 0x1B46 JUMP JUMPDEST PUSH2 0x335 PUSH2 0x330 CALLDATASIZE PUSH1 0x4 PUSH2 0x1BB0 JUMP JUMPDEST PUSH2 0x7AB JUMP JUMPDEST PUSH1 0x40 MLOAD SWAP1 ISZERO ISZERO DUP2 MSTORE PUSH1 0x20 ADD PUSH2 0x304 JUMP JUMPDEST PUSH2 0x365 PUSH2 0x353 CALLDATASIZE PUSH1 0x4 PUSH2 0x1BDA JUMP JUMPDEST PUSH1 0x9 PUSH1 0x20 MSTORE PUSH1 0x0 SWAP1 DUP2 MSTORE PUSH1 0x40 SWAP1 KECCAK256 SLOAD DUP2 JUMP JUMPDEST PUSH1 0x40 MLOAD SWAP1 DUP2 MSTORE PUSH1 0x20 ADD PUSH2 0x304 JUMP JUMPDEST PUSH2 0x386 PUSH2 0x381 CALLDATASIZE PUSH1 0x4 PUSH2 0x1BDA JUMP JUMPDEST PUSH2 0x7C5 JUMP JUMPDEST STOP JUMPDEST PUSH2 0x386 PUSH2 0x396 CALLDATASIZE PUSH1 0x4 PUSH2 0x1BFC JUMP JUMPDEST PUSH2 0x895 JUMP JUMPDEST PUSH2 0x386 PUSH2 0x3A9 CALLDATASIZE PUSH1 0x4 PUSH2 0x1BFC JUMP JUMPDEST PUSH2 0xBA8 JUMP JUMPDEST PUSH1 0x2 SLOAD PUSH2 0x365 JUMP JUMPDEST PUSH2 0x365 PUSH1 0x9C DUP2 JUMP JUMPDEST PUSH2 0x335 PUSH2 0x3CC CALLDATASIZE PUSH1 0x4 PUSH2 0x1C15 JUMP JUMPDEST PUSH2 0xD83 JUMP JUMPDEST PUSH1 0x40 MLOAD PUSH1 0x12 DUP2 MSTORE PUSH1 0x20 ADD PUSH2 0x304 JUMP JUMPDEST PUSH2 0x365 PUSH12 0x1363156BBEE3016D70000000 DUP2 JUMP JUMPDEST PUSH2 0x315 PUSH2 0xDA7 JUMP JUMPDEST PUSH2 0x386 PUSH2 0x409 CALLDATASIZE PUSH1 0x4 PUSH2 0x1C67 JUMP JUMPDEST PUSH2 0xE35 JUMP JUMPDEST PUSH2 0x335 PUSH2 0x41C CALLDATASIZE PUSH1 0x4 PUSH2 0x1BB0 JUMP JUMPDEST PUSH2 0xE79 JUMP JUMPDEST PUSH2 0x365 PUSH12 0xBA1D9A70C21CDA810000000 DUP2 JUMP JUMPDEST PUSH2 0x365 PUSH4 0x3BFC400 DUP2 JUMP JUMPDEST PUSH2 0x315 PUSH2 0xE9B JUMP JUMPDEST PUSH2 0x386 PUSH2 0x455 CALLDATASIZE PUSH1 0x4 PUSH2 0x1BFC JUMP JUMPDEST PUSH2 0xEA8 JUMP JUMPDEST PUSH2 0x365 PUSH1 0x68 DUP2 JUMP JUMPDEST PUSH2 0x365 PUSH2 0x470 CALLDATASIZE PUSH1 0x4 PUSH2 0x1BDA JUMP JUMPDEST PUSH1 0x1 PUSH1 0x1 PUSH1 0xA0 SHL SUB AND PUSH1 0x0 SWAP1 DUP2 MSTORE PUSH1 0x20 DUP2 SWAP1 MSTORE PUSH1 0x40 SWAP1 KECCAK256 SLOAD SWAP1 JUMP JUMPDEST PUSH2 0x386 PUSH2 0xFA4 JUMP JUMPDEST PUSH2 0x335 PUSH2 0x4A1 CALLDATASIZE PUSH1 0x4 PUSH2 0x1BDA JUMP JUMPDEST PUSH1 0xC PUSH1 0x20 MSTORE PUSH1 0x0 SWAP1 DUP2 MSTORE PUSH1 0x40 SWAP1 KECCAK256 SLOAD PUSH1 0xFF AND DUP2 JUMP JUMPDEST PUSH2 0x2F7 PUSH20 0x910BBE8B14DBE813EA3F0E268058B024BF5301D9 DUP2 JUMP JUMPDEST PUSH2 0x365 PUSH11 0x31A17E847807B1BC000000 DUP2 JUMP JUMPDEST PUSH2 0x386 PUSH2 0x4F1 CALLDATASIZE PUSH1 0x4 PUSH2 0x1BFC JUMP JUMPDEST PUSH2 0xFB8 JUMP JUMPDEST PUSH1 0x5 SLOAD PUSH1 0x1 PUSH1 0x1 PUSH1 0xA0 SHL SUB AND PUSH2 0x2F7 JUMP JUMPDEST PUSH2 0x315 PUSH2 0x1076 JUMP JUMPDEST PUSH2 0x2F7 PUSH20 0xF32FB437A2768F02FADA4D97ABE76D8F306F44FE DUP2 JUMP JUMPDEST PUSH2 0x386 PUSH2 0x538 CALLDATASIZE PUSH1 0x4 PUSH2 0x1C67 JUMP JUMPDEST PUSH2 0x1085 JUMP JUMPDEST PUSH2 0x335 PUSH2 0x54B CALLDATASIZE PUSH1 0x4 PUSH2 0x1BB0 JUMP JUMPDEST PUSH2 0x10C9 JUMP JUMPDEST PUSH2 0x335 PUSH2 0x55E CALLDATASIZE PUSH1 0x4 PUSH2 0x1BB0 JUMP JUMPDEST PUSH2 0x1144 JUMP JUMPDEST PUSH2 0x365 PUSH1 0x34 DUP2 JUMP JUMPDEST PUSH2 0x365 PUSH4 0x1DFE200 DUP2 JUMP JUMPDEST PUSH2 0x365 PUSH2 0x208 DUP2 JUMP JUMPDEST PUSH2 0x365 PUSH2 0x58D CALLDATASIZE PUSH1 0x4 PUSH2 0x1BFC JUMP JUMPDEST PUSH1 0x6 PUSH1 0x20 MSTORE PUSH1 0x0 SWAP1 DUP2 MSTORE PUSH1 0x40 SWAP1 KECCAK256 SLOAD DUP2 JUMP JUMPDEST PUSH2 0x365 PUSH12 0x25391EE35A05C54D0000000 DUP2 JUMP JUMPDEST PUSH2 0x2F7 PUSH20 0xD1E532C785DEEC90C1C69C7C5A7DCD28A8F74248 DUP2 JUMP JUMPDEST PUSH2 0x365 PUSH12 0x15B6A759F4835DC24000000 DUP2 JUMP JUMPDEST PUSH2 0x2F7 PUSH20 0x8A83D34FA97910B0786D8DAB29C5F3ACA5C1CC76 DUP2 JUMP JUMPDEST PUSH2 0x365 PUSH12 0x1F04EF12CB04CF158000000 DUP2 JUMP JUMPDEST PUSH2 0x335 PUSH2 0x61C CALLDATASIZE PUSH1 0x4 PUSH2 0x1BDA JUMP JUMPDEST PUSH1 0x8 PUSH1 0x20 MSTORE PUSH1 0x0 SWAP1 DUP2 MSTORE PUSH1 0x40 SWAP1 KECCAK256 SLOAD PUSH1 0xFF AND DUP2 JUMP JUMPDEST PUSH2 0x2F7 PUSH20 0xB54E1C4B3927F4489EAD5C149B7895ECD03A5CE0 DUP2 JUMP JUMPDEST PUSH2 0x365 PUSH2 0x65A CALLDATASIZE PUSH1 0x4 PUSH2 0x1D18 JUMP JUMPDEST PUSH2 0x1152 JUMP JUMPDEST PUSH2 0x365 PUSH32 0x0 DUP2 JUMP JUMPDEST PUSH2 0x2F7 PUSH20 0x8824FE9FA03D3716A762375867FAC2052CD54A8C DUP2 JUMP JUMPDEST PUSH2 0x365 PUSH11 0x94E47B8D68171534000000 DUP2 JUMP JUMPDEST PUSH2 0x386 PUSH2 0x6C1 CALLDATASIZE PUSH1 0x4 PUSH2 0x1BDA JUMP JUMPDEST PUSH2 0x117D JUMP JUMPDEST PUSH2 0x386 PUSH2 0x6D4 CALLDATASIZE PUSH1 0x4 PUSH2 0x1BDA JUMP JUMPDEST PUSH2 0x1297 JUMP JUMPDEST PUSH2 0x365 PUSH2 0x6E7 CALLDATASIZE PUSH1 0x4 PUSH2 0x1BDA JUMP JUMPDEST PUSH1 0xA PUSH1 0x20 MSTORE PUSH1 0x0 SWAP1 DUP2 MSTORE PUSH1 0x40 SWAP1 KECCAK256 SLOAD DUP2 JUMP JUMPDEST PUSH2 0x365 PUSH2 0x707 CALLDATASIZE PUSH1 0x4 PUSH2 0x1BFC JUMP JUMPDEST PUSH1 0x7 PUSH1 0x20 MSTORE PUSH1 0x0 SWAP1 DUP2 MSTORE PUSH1 0x40 SWAP1 KECCAK256 SLOAD DUP2 JUMP JUMPDEST PUSH1 0x60 PUSH1 0x3 DUP1 SLOAD PUSH2 0x728 SWAP1 PUSH2 0x1D4B JUMP JUMPDEST DUP1 PUSH1 0x1F ADD PUSH1 0x20 DUP1 SWAP2 DIV MUL PUSH1 0x20 ADD PUSH1 0x40 MLOAD SWAP1 DUP2 ADD PUSH1 0x40 MSTORE DUP1 SWAP3 SWAP2 SWAP1 DUP2 DUP2 MSTORE PUSH1 0x20 ADD DUP3 DUP1 SLOAD PUSH2 0x754 SWAP1 PUSH2 0x1D4B JUMP JUMPDEST DUP1 ISZERO PUSH2 0x7A1 JUMPI DUP1 PUSH1 0x1F LT PUSH2 0x776 JUMPI PUSH2 0x100 DUP1 DUP4 SLOAD DIV MUL DUP4 MSTORE SWAP2 PUSH1 0x20 ADD SWAP2 PUSH2 0x7A1 JUMP JUMPDEST DUP3 ADD SWAP2 SWAP1 PUSH1 0x0 MSTORE PUSH1 0x20 PUSH1 0x0 KECCAK256 SWAP1 JUMPDEST DUP2 SLOAD DUP2 MSTORE SWAP1 PUSH1 0x1 ADD SWAP1 PUSH1 0x20 ADD DUP1 DUP4 GT PUSH2 0x784 JUMPI DUP3 SWAP1 SUB PUSH1 0x1F AND DUP3 ADD SWAP2 JUMPDEST POP POP POP POP POP SWAP1 POP SWAP1 JUMP JUMPDEST PUSH1 0x0 CALLER PUSH2 0x7B9 DUP2 DUP6 DUP6 PUSH2 0x1310 JUMP JUMPDEST PUSH1 0x1 SWAP2 POP POP JUMPDEST SWAP3 SWAP2 POP POP JUMP JUMPDEST PUSH2 0x7CD PUSH2 0x1434 JUMP JUMPDEST PUSH1 0x1 PUSH1 0x1 PUSH1 0xA0 SHL SUB DUP2 AND PUSH1 0x0 SWAP1 DUP2 MSTORE PUSH1 0xC PUSH1 0x20 MSTORE PUSH1 0x40 SWAP1 KECCAK256 SLOAD PUSH1 0xFF AND PUSH2 0x83A JUMPI PUSH1 0x40 MLOAD PUSH3 0x461BCD PUSH1 0xE5 SHL DUP2 MSTORE PUSH1 0x20 PUSH1 0x4 DUP3 ADD MSTORE PUSH1 0x1A PUSH1 0x24 DUP3 ADD MSTORE PUSH32 0x4D43543A205369676E657220646F6573206E6F74206578697374000000000000 PUSH1 0x44 DUP3 ADD MSTORE PUSH1 0x64 ADD JUMPDEST PUSH1 0x40 MLOAD DUP1 SWAP2 SUB SWAP1 REVERT JUMPDEST PUSH1 0x1 PUSH1 0x1 PUSH1 0xA0 SHL SUB DUP2 AND PUSH1 0x0 SWAP1 DUP2 MSTORE PUSH1 0xC PUSH1 0x20 MSTORE PUSH1 0x40 SWAP1 DUP2 SWAP1 KECCAK256 DUP1 SLOAD PUSH1 0xFF NOT AND SWAP1 SSTORE MLOAD PUSH32 0xCE376785CA01132D547F73809127E07AFEAF9D5E73694947B35137D17332F03A SWAP1 PUSH2 0x88A SWAP1 DUP4 SWAP1 PUSH2 0x1B32 JUMP JUMPDEST PUSH1 0x40 MLOAD DUP1 SWAP2 SUB SWAP1 LOG1 POP JUMP JUMPDEST CALLER PUSH1 0x0 SWAP1 DUP2 MSTORE PUSH1 0xC PUSH1 0x20 MSTORE PUSH1 0x40 SWAP1 KECCAK256 SLOAD PUSH1 0xFF AND PUSH2 0x8C4 JUMPI PUSH1 0x40 MLOAD PUSH3 0x461BCD PUSH1 0xE5 SHL DUP2 MSTORE PUSH1 0x4 ADD PUSH2 0x831 SWAP1 PUSH2 0x1D85 JUMP JUMPDEST PUSH1 0x0 DUP2 DUP2 MSTORE PUSH1 0xE PUSH1 0x20 MSTORE PUSH1 0x40 SWAP1 KECCAK256 SLOAD DUP2 SWAP1 PUSH2 0x8E3 SWAP1 PUSH3 0x2A300 SWAP1 PUSH2 0x1DE3 JUMP JUMPDEST TIMESTAMP GT PUSH2 0x93D JUMPI PUSH1 0x40 MLOAD PUSH3 0x461BCD PUSH1 0xE5 SHL DUP2 MSTORE PUSH1 0x20 PUSH1 0x4 DUP3 ADD MSTORE PUSH1 0x24 DUP1 DUP3 ADD MSTORE PUSH32 0x4D43543A2054696D656C6F636B20706572696F64206E6F742079657420657870 PUSH1 0x44 DUP3 ADD MSTORE PUSH4 0x1A5C9959 PUSH1 0xE2 SHL PUSH1 0x64 DUP3 ADD MSTORE PUSH1 0x84 ADD PUSH2 0x831 JUMP JUMPDEST PUSH1 0x0 DUP3 DUP2 MSTORE PUSH1 0xD PUSH1 0x20 MSTORE PUSH1 0x40 SWAP1 KECCAK256 SLOAD PUSH1 0xFF AND PUSH2 0x96B JUMPI PUSH1 0x40 MLOAD PUSH3 0x461BCD PUSH1 0xE5 SHL DUP2 MSTORE PUSH1 0x4 ADD PUSH2 0x831 SWAP1 PUSH2 0x1DF6 JUMP JUMPDEST PUSH1 0x0 DUP3 DUP2 MSTORE PUSH1 0xF PUSH1 0x20 MSTORE PUSH1 0x40 SWAP1 KECCAK256 SLOAD PUSH1 0x2 GT ISZERO PUSH2 0x9DA JUMPI PUSH1 0x40 MLOAD PUSH3 0x461BCD PUSH1 0xE5 SHL DUP2 MSTORE PUSH1 0x20 PUSH1 0x4 DUP3 ADD MSTORE PUSH1 0x27 PUSH1 0x24 DUP3 ADD MSTORE PUSH32 0x4D43543A204E6F7420656E6F75676820617070726F76616C7320666F72206F70 PUSH1 0x44 DUP3 ADD MSTORE PUSH7 0x32B930BA34B7B7 PUSH1 0xC9 SHL PUSH1 0x64 DUP3 ADD MSTORE PUSH1 0x84 ADD PUSH2 0x831 JUMP JUMPDEST PUSH1 0x0 DUP3 DUP2 MSTORE PUSH1 0xD PUSH1 0x20 SWAP1 DUP2 MSTORE PUSH1 0x40 DUP1 DUP4 KECCAK256 DUP1 SLOAD PUSH1 0xFF NOT AND SWAP1 SSTORE PUSH1 0xE DUP3 MSTORE DUP1 DUP4 KECCAK256 DUP4 SWAP1 SSTORE PUSH1 0xF DUP3 MSTORE DUP1 DUP4 KECCAK256 DUP4 SWAP1 SSTORE PUSH1 0x10 SWAP1 SWAP2 MSTORE DUP2 KECCAK256 PUSH2 0xA17 SWAP2 PUSH2 0x1B00 JUMP JUMPDEST DUP2 PUSH1 0x1 SUB PUSH2 0xA54 JUMPI PUSH2 0xA50 PUSH1 0x1 PUSH1 0x0 PUSH12 0xBA1D9A70C21CDA810000000 PUSH2 0x208 PUSH20 0xB54E1C4B3927F4489EAD5C149B7895ECD03A5CE0 PUSH2 0x148E JUMP JUMPDEST POP POP JUMP JUMPDEST DUP2 PUSH1 0x2 SUB PUSH2 0xA8C JUMPI PUSH2 0xA50 PUSH1 0x2 PUSH1 0x0 PUSH12 0x1F04EF12CB04CF158000000 PUSH1 0x34 PUSH20 0xF32FB437A2768F02FADA4D97ABE76D8F306F44FE PUSH2 0x148E JUMP JUMPDEST DUP2 PUSH1 0x3 SUB PUSH2 0xAC7 JUMPI PUSH2 0xA50 PUSH1 0x3 PUSH4 0x3BFC400 PUSH12 0x25391EE35A05C54D0000000 PUSH1 0x68 PUSH20 0xD1E532C785DEEC90C1C69C7C5A7DCD28A8F74248 PUSH2 0x148E JUMP JUMPDEST DUP2 PUSH1 0x4 SUB PUSH2 0xAFF JUMPI PUSH2 0xA50 PUSH1 0x4 PUSH1 0x0 PUSH12 0x15B6A759F4835DC24000000 PUSH1 0x9C PUSH20 0xA0B9FE04F0E6E44E42C90CFE30507769E91C1919 PUSH2 0x148E JUMP JUMPDEST DUP2 PUSH1 0x5 SUB PUSH2 0xB3A JUMPI PUSH2 0xA50 PUSH1 0x5 PUSH4 0x1DFE200 PUSH12 0x15B6A759F4835DC24000000 PUSH1 0x9C PUSH20 0x8A83D34FA97910B0786D8DAB29C5F3ACA5C1CC76 PUSH2 0x148E JUMP JUMPDEST DUP2 PUSH1 0x6 SUB PUSH2 0xB71 JUMPI PUSH2 0xA50 PUSH1 0x6 PUSH1 0x0 PUSH11 0x31A17E847807B1BC000000 PUSH1 0x1 PUSH20 0x8824FE9FA03D3716A762375867FAC2052CD54A8C PUSH2 0x148E JUMP JUMPDEST DUP2 PUSH1 0x7 SUB PUSH2 0xA50 JUMPI PUSH2 0xA50 PUSH1 0x7 PUSH1 0x0 PUSH11 0x94E47B8D68171534000000 PUSH1 0x1 PUSH20 0x910BBE8B14DBE813EA3F0E268058B024BF5301D9 PUSH2 0x148E JUMP JUMPDEST CALLER PUSH1 0x0 SWAP1 DUP2 MSTORE PUSH1 0xC PUSH1 0x20 MSTORE PUSH1 0x40 SWAP1 KECCAK256 SLOAD PUSH1 0xFF AND PUSH2 0xBD7 JUMPI PUSH1 0x40 MLOAD PUSH3 0x461BCD PUSH1 0xE5 SHL DUP2 MSTORE PUSH1 0x4 ADD PUSH2 0x831 SWAP1 PUSH2 0x1D85 JUMP JUMPDEST PUSH1 0x0 DUP2 DUP2 MSTORE PUSH1 0xD PUSH1 0x20 MSTORE PUSH1 0x40 SWAP1 KECCAK256 SLOAD PUSH1 0xFF AND PUSH2 0xC05 JUMPI PUSH1 0x40 MLOAD PUSH3 0x461BCD PUSH1 0xE5 SHL DUP2 MSTORE PUSH1 0x4 ADD PUSH2 0x831 SWAP1 PUSH2 0x1DF6 JUMP JUMPDEST PUSH1 0x0 DUP2 DUP2 MSTORE PUSH1 0xF PUSH1 0x20 MSTORE PUSH1 0x40 SWAP1 KECCAK256 SLOAD PUSH1 0x2 GT PUSH2 0xC33 JUMPI PUSH1 0x40 MLOAD PUSH3 0x461BCD PUSH1 0xE5 SHL DUP2 MSTORE PUSH1 0x4 ADD PUSH2 0x831 SWAP1 PUSH2 0x1E2D JUMP JUMPDEST PUSH1 0x0 DUP2 DUP2 MSTORE PUSH1 0x10 PUSH1 0x20 SWAP1 DUP2 MSTORE PUSH1 0x40 DUP1 DUP4 KECCAK256 DUP1 SLOAD DUP3 MLOAD DUP2 DUP6 MUL DUP2 ADD DUP6 ADD SWAP1 SWAP4 MSTORE DUP1 DUP4 MSTORE SWAP2 SWAP3 SWAP1 SWAP2 SWAP1 DUP4 ADD DUP3 DUP3 DUP1 ISZERO PUSH2 0xC93 JUMPI PUSH1 0x20 MUL DUP3 ADD SWAP2 SWAP1 PUSH1 0x0 MSTORE PUSH1 0x20 PUSH1 0x0 KECCAK256 SWAP1 JUMPDEST DUP2 SLOAD PUSH1 0x1 PUSH1 0x1 PUSH1 0xA0 SHL SUB AND DUP2 MSTORE PUSH1 0x1 SWAP1 SWAP2 ADD SWAP1 PUSH1 0x20 ADD DUP1 DUP4 GT PUSH2 0xC75 JUMPI JUMPDEST POP POP POP POP POP SWAP1 POP PUSH1 0x0 JUMPDEST DUP2 MLOAD DUP2 LT ISZERO PUSH2 0xD32 JUMPI CALLER PUSH1 0x1 PUSH1 0x1 PUSH1 0xA0 SHL SUB AND DUP3 DUP3 DUP2 MLOAD DUP2 LT PUSH2 0xCC2 JUMPI PUSH2 0xCC2 PUSH2 0x1E64 JUMP JUMPDEST PUSH1 0x20 MUL PUSH1 0x20 ADD ADD MLOAD PUSH1 0x1 PUSH1 0x1 PUSH1 0xA0 SHL SUB AND SUB PUSH2 0xD20 JUMPI PUSH1 0x40 MLOAD PUSH3 0x461BCD PUSH1 0xE5 SHL DUP2 MSTORE PUSH1 0x20 PUSH1 0x4 DUP3 ADD MSTORE PUSH1 0x1A PUSH1 0x24 DUP3 ADD MSTORE PUSH32 0x4D43543A205369676E657220616C7265616479207369676E6564000000000000 PUSH1 0x44 DUP3 ADD MSTORE PUSH1 0x64 ADD PUSH2 0x831 JUMP JUMPDEST DUP1 PUSH2 0xD2A DUP2 PUSH2 0x1E7A JUMP JUMPDEST SWAP2 POP POP PUSH2 0xC9D JUMP JUMPDEST POP PUSH1 0x0 DUP3 DUP2 MSTORE PUSH1 0xF PUSH1 0x20 MSTORE PUSH1 0x40 DUP2 KECCAK256 DUP1 SLOAD SWAP2 PUSH2 0xD4D DUP4 PUSH2 0x1E7A JUMP JUMPDEST SWAP1 SWAP2 SSTORE POP POP POP PUSH1 0x0 SWAP1 DUP2 MSTORE PUSH1 0x10 PUSH1 0x20 SWAP1 DUP2 MSTORE PUSH1 0x40 DUP3 KECCAK256 DUP1 SLOAD PUSH1 0x1 DUP2 ADD DUP3 SSTORE SWAP1 DUP4 MSTORE SWAP2 KECCAK256 ADD DUP1 SLOAD PUSH1 0x1 PUSH1 0x1 PUSH1 0xA0 SHL SUB NOT AND CALLER OR SWAP1 SSTORE JUMP JUMPDEST PUSH1 0x0 CALLER PUSH2 0xD91 DUP6 DUP3 DUP6 PUSH2 0x16F3 JUMP JUMPDEST PUSH2 0xD9C DUP6 DUP6 DUP6 PUSH2 0x176D JUMP JUMPDEST POP PUSH1 0x1 SWAP5 SWAP4 POP POP POP POP JUMP JUMPDEST PUSH1 0x11 DUP1 SLOAD PUSH2 0xDB4 SWAP1 PUSH2 0x1D4B JUMP JUMPDEST DUP1 PUSH1 0x1F ADD PUSH1 0x20 DUP1 SWAP2 DIV MUL PUSH1 0x20 ADD PUSH1 0x40 MLOAD SWAP1 DUP2 ADD PUSH1 0x40 MSTORE DUP1 SWAP3 SWAP2 SWAP1 DUP2 DUP2 MSTORE PUSH1 0x20 ADD DUP3 DUP1 SLOAD PUSH2 0xDE0 SWAP1 PUSH2 0x1D4B JUMP JUMPDEST DUP1 ISZERO PUSH2 0xE2D JUMPI DUP1 PUSH1 0x1F LT PUSH2 0xE02 JUMPI PUSH2 0x100 DUP1 DUP4 SLOAD DIV MUL DUP4 MSTORE SWAP2 PUSH1 0x20 ADD SWAP2 PUSH2 0xE2D JUMP JUMPDEST DUP3 ADD SWAP2 SWAP1 PUSH1 0x0 MSTORE PUSH1 0x20 PUSH1 0x0 KECCAK256 SWAP1 JUMPDEST DUP2 SLOAD DUP2 MSTORE SWAP1 PUSH1 0x1 ADD SWAP1 PUSH1 0x20 ADD DUP1 DUP4 GT PUSH2 0xE10 JUMPI DUP3 SWAP1 SUB PUSH1 0x1F AND DUP3 ADD SWAP2 JUMPDEST POP POP POP POP POP DUP2 JUMP JUMPDEST PUSH2 0xE3D PUSH2 0x1434 JUMP JUMPDEST PUSH1 0x11 PUSH2 0xE49 DUP3 DUP3 PUSH2 0x1ED9 JUMP JUMPDEST POP PUSH32 0x244B98C0DEEF2393EC403278ED60386765B5D6F59F3E4412C8909D0DE66B2021 DUP2 PUSH1 0x40 MLOAD PUSH2 0x88A SWAP2 SWAP1 PUSH2 0x1B46 JUMP JUMPDEST PUSH1 0x0 CALLER PUSH2 0x7B9 DUP2 DUP6 DUP6 PUSH2 0xE8C DUP4 DUP4 PUSH2 0x1152 JUMP JUMPDEST PUSH2 0xE96 SWAP2 SWAP1 PUSH2 0x1DE3 JUMP JUMPDEST PUSH2 0x1310 JUMP JUMPDEST PUSH1 0x12 DUP1 SLOAD PUSH2 0xDB4 SWAP1 PUSH2 0x1D4B JUMP JUMPDEST PUSH2 0xEB0 PUSH2 0x1434 JUMP JUMPDEST PUSH1 0x0 DUP2 DUP2 MSTORE PUSH1 0xE PUSH1 0x20 MSTORE PUSH1 0x40 SWAP1 KECCAK256 SLOAD PUSH2 0xECD SWAP1 PUSH3 0x3F480 SWAP1 PUSH2 0x1DE3 JUMP JUMPDEST TIMESTAMP GT PUSH2 0xF1B JUMPI PUSH1 0x40 MLOAD PUSH3 0x461BCD PUSH1 0xE5 SHL DUP2 MSTORE PUSH1 0x20 PUSH1 0x4 DUP3 ADD DUP2 SWAP1 MSTORE PUSH1 0x24 DUP3 ADD MSTORE PUSH32 0x4D43543A204F7065726174696F6E206F7574206F662074696D6520626F756E64 PUSH1 0x44 DUP3 ADD MSTORE PUSH1 0x64 ADD PUSH2 0x831 JUMP JUMPDEST PUSH1 0x0 DUP2 DUP2 MSTORE PUSH1 0xF PUSH1 0x20 MSTORE PUSH1 0x40 SWAP1 KECCAK256 SLOAD PUSH1 0x2 GT PUSH2 0xF49 JUMPI PUSH1 0x40 MLOAD PUSH3 0x461BCD PUSH1 0xE5 SHL DUP2 MSTORE PUSH1 0x4 ADD PUSH2 0x831 SWAP1 PUSH2 0x1E2D JUMP JUMPDEST PUSH1 0x0 DUP2 DUP2 MSTORE PUSH1 0xD PUSH1 0x20 MSTORE PUSH1 0x40 SWAP1 KECCAK256 SLOAD PUSH1 0xFF AND PUSH2 0xF77 JUMPI PUSH1 0x40 MLOAD PUSH3 0x461BCD PUSH1 0xE5 SHL DUP2 MSTORE PUSH1 0x4 ADD PUSH2 0x831 SWAP1 PUSH2 0x1DF6 JUMP JUMPDEST PUSH1 0x0 SWAP1 DUP2 MSTORE PUSH1 0xD PUSH1 0x20 SWAP1 DUP2 MSTORE PUSH1 0x40 DUP1 DUP4 KECCAK256 DUP1 SLOAD PUSH1 0xFF NOT AND SWAP1 SSTORE PUSH1 0xE DUP3 MSTORE DUP1 DUP4 KECCAK256 DUP4 SWAP1 SSTORE PUSH1 0xF SWAP1 SWAP2 MSTORE DUP2 KECCAK256 SSTORE JUMP JUMPDEST PUSH2 0xFAC PUSH2 0x1434 JUMP JUMPDEST PUSH2 0xFB6 PUSH1 0x0 PUSH2 0x1911 JUMP JUMPDEST JUMP JUMPDEST CALLER PUSH1 0x0 SWAP1 DUP2 MSTORE PUSH1 0xC PUSH1 0x20 MSTORE PUSH1 0x40 SWAP1 KECCAK256 SLOAD PUSH1 0xFF AND PUSH2 0xFE7 JUMPI PUSH1 0x40 MLOAD PUSH3 0x461BCD PUSH1 0xE5 SHL DUP2 MSTORE PUSH1 0x4 ADD PUSH2 0x831 SWAP1 PUSH2 0x1D85 JUMP JUMPDEST PUSH1 0x0 DUP2 DUP2 MSTORE PUSH1 0xD PUSH1 0x20 MSTORE PUSH1 0x40 SWAP1 KECCAK256 SLOAD PUSH1 0xFF AND ISZERO PUSH2 0x1046 JUMPI PUSH1 0x40 MLOAD PUSH3 0x461BCD PUSH1 0xE5 SHL DUP2 MSTORE PUSH1 0x20 PUSH1 0x4 DUP3 ADD MSTORE PUSH1 0x1F PUSH1 0x24 DUP3 ADD MSTORE PUSH32 0x4D43543A204F7065726174696F6E20616C72656164792070726F706F73656400 PUSH1 0x44 DUP3 ADD MSTORE PUSH1 0x64 ADD PUSH2 0x831 JUMP JUMPDEST PUSH1 0x0 SWAP1 DUP2 MSTORE PUSH1 0xD PUSH1 0x20 SWAP1 DUP2 MSTORE PUSH1 0x40 DUP1 DUP4 KECCAK256 DUP1 SLOAD PUSH1 0xFF NOT AND PUSH1 0x1 OR SWAP1 SSTORE PUSH1 0xE DUP3 MSTORE DUP1 DUP4 KECCAK256 TIMESTAMP SWAP1 SSTORE PUSH1 0xF SWAP1 SWAP2 MSTORE DUP2 KECCAK256 SSTORE JUMP JUMPDEST PUSH1 0x60 PUSH1 0x4 DUP1 SLOAD PUSH2 0x728 SWAP1 PUSH2 0x1D4B JUMP JUMPDEST PUSH2 0x108D PUSH2 0x1434 JUMP JUMPDEST PUSH1 0x12 PUSH2 0x1099 DUP3 DUP3 PUSH2 0x1ED9 JUMP JUMPDEST POP PUSH32 0xE0AB386401771F5A4E068348A2D8E279B1530D152681890B0D3243C96B2CC78B DUP2 PUSH1 0x40 MLOAD PUSH2 0x88A SWAP2 SWAP1 PUSH2 0x1B46 JUMP JUMPDEST PUSH1 0x0 CALLER DUP2 PUSH2 0x10D7 DUP3 DUP7 PUSH2 0x1152 JUMP JUMPDEST SWAP1 POP DUP4 DUP2 LT ISZERO PUSH2 0x1137 JUMPI PUSH1 0x40 MLOAD PUSH3 0x461BCD PUSH1 0xE5 SHL DUP2 MSTORE PUSH1 0x20 PUSH1 0x4 DUP3 ADD MSTORE PUSH1 0x25 PUSH1 0x24 DUP3 ADD MSTORE PUSH32 0x45524332303A2064656372656173656420616C6C6F77616E63652062656C6F77 PUSH1 0x44 DUP3 ADD MSTORE PUSH5 0x207A65726F PUSH1 0xD8 SHL PUSH1 0x64 DUP3 ADD MSTORE PUSH1 0x84 ADD PUSH2 0x831 JUMP JUMPDEST PUSH2 0xD9C DUP3 DUP7 DUP7 DUP5 SUB PUSH2 0x1310 JUMP JUMPDEST PUSH1 0x0 CALLER PUSH2 0x7B9 DUP2 DUP6 DUP6 PUSH2 0x176D JUMP JUMPDEST PUSH1 0x1 PUSH1 0x1 PUSH1 0xA0 SHL SUB SWAP2 DUP3 AND PUSH1 0x0 SWAP1 DUP2 MSTORE PUSH1 0x1 PUSH1 0x20 SWAP1 DUP2 MSTORE PUSH1 0x40 DUP1 DUP4 KECCAK256 SWAP4 SWAP1 SWAP5 AND DUP3 MSTORE SWAP2 SWAP1 SWAP2 MSTORE KECCAK256 SLOAD SWAP1 JUMP JUMPDEST PUSH2 0x1185 PUSH2 0x1434 JUMP JUMPDEST PUSH1 0x1 PUSH1 0x1 PUSH1 0xA0 SHL SUB DUP2 AND PUSH2 0x11DB JUMPI PUSH1 0x40 MLOAD PUSH3 0x461BCD PUSH1 0xE5 SHL DUP2 MSTORE PUSH1 0x20 PUSH1 0x4 DUP3 ADD MSTORE PUSH1 0x1B PUSH1 0x24 DUP3 ADD MSTORE PUSH32 0x4D43543A20496E76616C6964207369676E657220616464726573730000000000 PUSH1 0x44 DUP3 ADD MSTORE PUSH1 0x64 ADD PUSH2 0x831 JUMP JUMPDEST PUSH1 0x1 PUSH1 0x1 PUSH1 0xA0 SHL SUB DUP2 AND PUSH1 0x0 SWAP1 DUP2 MSTORE PUSH1 0xC PUSH1 0x20 MSTORE PUSH1 0x40 SWAP1 KECCAK256 SLOAD PUSH1 0xFF AND ISZERO PUSH2 0x1244 JUMPI PUSH1 0x40 MLOAD PUSH3 0x461BCD PUSH1 0xE5 SHL DUP2 MSTORE PUSH1 0x20 PUSH1 0x4 DUP3 ADD MSTORE PUSH1 0x1A PUSH1 0x24 DUP3 ADD MSTORE PUSH32 0x4D43543A205369676E657220616C726561647920657869737473000000000000 PUSH1 0x44 DUP3 ADD MSTORE PUSH1 0x64 ADD PUSH2 0x831 JUMP JUMPDEST PUSH1 0x1 PUSH1 0x1 PUSH1 0xA0 SHL SUB DUP2 AND PUSH1 0x0 SWAP1 DUP2 MSTORE PUSH1 0xC PUSH1 0x20 MSTORE PUSH1 0x40 SWAP1 DUP2 SWAP1 KECCAK256 DUP1 SLOAD PUSH1 0xFF NOT AND PUSH1 0x1 OR SWAP1 SSTORE MLOAD PUSH32 0x72D4003E8F1AD99F4F488C703A1D183DEE364A6337CB77F8FBA50088CB0FBFA3 SWAP1 PUSH2 0x88A SWAP1 DUP4 SWAP1 PUSH2 0x1B32 JUMP JUMPDEST PUSH2 0x129F PUSH2 0x1434 JUMP JUMPDEST PUSH1 0x1 PUSH1 0x1 PUSH1 0xA0 SHL SUB DUP2 AND PUSH2 0x1304 JUMPI PUSH1 0x40 MLOAD PUSH3 0x461BCD PUSH1 0xE5 SHL DUP2 MSTORE PUSH1 0x20 PUSH1 0x4 DUP3 ADD MSTORE PUSH1 0x26 PUSH1 0x24 DUP3 ADD MSTORE PUSH32 0x4F776E61626C653A206E6577206F776E657220697320746865207A65726F2061 PUSH1 0x44 DUP3 ADD MSTORE PUSH6 0x646472657373 PUSH1 0xD0 SHL PUSH1 0x64 DUP3 ADD MSTORE PUSH1 0x84 ADD PUSH2 0x831 JUMP JUMPDEST PUSH2 0x130D DUP2 PUSH2 0x1911 JUMP JUMPDEST POP JUMP JUMPDEST PUSH1 0x1 PUSH1 0x1 PUSH1 0xA0 SHL SUB DUP4 AND PUSH2 0x1372 JUMPI PUSH1 0x40 MLOAD PUSH3 0x461BCD PUSH1 0xE5 SHL DUP2 MSTORE PUSH1 0x20 PUSH1 0x4 DUP3 ADD MSTORE PUSH1 0x24 DUP1 DUP3 ADD MSTORE PUSH32 0x45524332303A20617070726F76652066726F6D20746865207A65726F20616464 PUSH1 0x44 DUP3 ADD MSTORE PUSH4 0x72657373 PUSH1 0xE0 SHL PUSH1 0x64 DUP3 ADD MSTORE PUSH1 0x84 ADD PUSH2 0x831 JUMP JUMPDEST PUSH1 0x1 PUSH1 0x1 PUSH1 0xA0 SHL SUB DUP3 AND PUSH2 0x13D3 JUMPI PUSH1 0x40 MLOAD PUSH3 0x461BCD PUSH1 0xE5 SHL DUP2 MSTORE PUSH1 0x20 PUSH1 0x4 DUP3 ADD MSTORE PUSH1 0x22 PUSH1 0x24 DUP3 ADD MSTORE PUSH32 0x45524332303A20617070726F766520746F20746865207A65726F206164647265 PUSH1 0x44 DUP3 ADD MSTORE PUSH2 0x7373 PUSH1 0xF0 SHL PUSH1 0x64 DUP3 ADD MSTORE PUSH1 0x84 ADD PUSH2 0x831 JUMP JUMPDEST PUSH1 0x1 PUSH1 0x1 PUSH1 0xA0 SHL SUB DUP4 DUP2 AND PUSH1 0x0 DUP2 DUP2 MSTORE PUSH1 0x1 PUSH1 0x20 SWAP1 DUP2 MSTORE PUSH1 0x40 DUP1 DUP4 KECCAK256 SWAP5 DUP8 AND DUP1 DUP5 MSTORE SWAP5 DUP3 MSTORE SWAP2 DUP3 SWAP1 KECCAK256 DUP6 SWAP1 SSTORE SWAP1 MLOAD DUP5 DUP2 MSTORE PUSH32 0x8C5BE1E5EBEC7D5BD14F71427D1E84F3DD0314C0F7B2291E5B200AC8C7C3B925 SWAP2 ADD PUSH1 0x40 MLOAD DUP1 SWAP2 SUB SWAP1 LOG3 POP POP POP JUMP JUMPDEST PUSH1 0x5 SLOAD PUSH1 0x1 PUSH1 0x1 PUSH1 0xA0 SHL SUB AND CALLER EQ PUSH2 0xFB6 JUMPI PUSH1 0x40 MLOAD PUSH3 0x461BCD PUSH1 0xE5 SHL DUP2 MSTORE PUSH1 0x20 PUSH1 0x4 DUP3 ADD DUP2 SWAP1 MSTORE PUSH1 0x24 DUP3 ADD MSTORE PUSH32 0x4F776E61626C653A2063616C6C6572206973206E6F7420746865206F776E6572 PUSH1 0x44 DUP3 ADD MSTORE PUSH1 0x64 ADD PUSH2 0x831 JUMP JUMPDEST PUSH2 0x14B8 DUP5 PUSH32 0x0 PUSH2 0x1DE3 JUMP JUMPDEST TIMESTAMP GT PUSH2 0x14FC JUMPI PUSH1 0x40 MLOAD PUSH3 0x461BCD PUSH1 0xE5 SHL DUP2 MSTORE PUSH1 0x20 PUSH1 0x4 DUP3 ADD MSTORE PUSH1 0x13 PUSH1 0x24 DUP3 ADD MSTORE PUSH19 0x1350D50E88131BD8DACB5A5B8814195C9A5BD9 PUSH1 0x6A SHL PUSH1 0x44 DUP3 ADD MSTORE PUSH1 0x64 ADD PUSH2 0x831 JUMP JUMPDEST PUSH1 0x0 DUP6 PUSH1 0x6 EQ DUP1 PUSH2 0x150D JUMPI POP DUP6 PUSH1 0x7 EQ JUMPDEST ISZERO PUSH2 0x1519 JUMPI POP DUP3 PUSH2 0x15FF JUMP JUMPDEST PUSH1 0x0 DUP7 DUP2 MSTORE PUSH1 0x6 PUSH1 0x20 MSTORE PUSH1 0x40 DUP2 KECCAK256 SLOAD DUP2 SUB PUSH2 0x155F JUMPI PUSH2 0x1558 PUSH32 0x0 TIMESTAMP PUSH2 0x1F99 JUMP JUMPDEST SWAP1 POP PUSH2 0x157B JUMP JUMPDEST PUSH1 0x0 DUP8 DUP2 MSTORE PUSH1 0x6 PUSH1 0x20 MSTORE PUSH1 0x40 SWAP1 KECCAK256 SLOAD PUSH2 0x1578 SWAP1 TIMESTAMP PUSH2 0x1F99 JUMP JUMPDEST SWAP1 POP JUMPDEST PUSH1 0x0 PUSH2 0x158A PUSH3 0x93A80 DUP4 PUSH2 0x1FAC JUMP JUMPDEST SWAP1 POP PUSH2 0x1595 DUP2 PUSH2 0x1963 JUMP JUMPDEST PUSH1 0x0 DUP2 GT PUSH2 0x15E1 JUMPI PUSH1 0x40 MLOAD PUSH3 0x461BCD PUSH1 0xE5 SHL DUP2 MSTORE PUSH1 0x20 PUSH1 0x4 DUP3 ADD MSTORE PUSH1 0x19 PUSH1 0x24 DUP3 ADD MSTORE PUSH25 0x1350D50E8810DB185A5B4814195C9A5BD908125B9D985B1A59 PUSH1 0x3A SHL PUSH1 0x44 DUP3 ADD MSTORE PUSH1 0x64 ADD PUSH2 0x831 JUMP JUMPDEST PUSH1 0x0 PUSH2 0x15ED DUP7 DUP9 PUSH2 0x1FAC JUMP JUMPDEST SWAP1 POP PUSH2 0x15F9 DUP2 DUP4 PUSH2 0x1FCE JUMP JUMPDEST SWAP4 POP POP POP POP JUMPDEST PUSH1 0x0 DUP2 GT PUSH2 0x1648 JUMPI PUSH1 0x40 MLOAD PUSH3 0x461BCD PUSH1 0xE5 SHL DUP2 MSTORE PUSH1 0x20 PUSH1 0x4 DUP3 ADD MSTORE PUSH1 0x16 PUSH1 0x24 DUP3 ADD MSTORE PUSH22 0x1350D50E8816995C9BC810DB185A5B48105B5BDD5B9D PUSH1 0x52 SHL PUSH1 0x44 DUP3 ADD MSTORE PUSH1 0x64 ADD PUSH2 0x831 JUMP JUMPDEST PUSH1 0x0 DUP7 DUP2 MSTORE PUSH1 0x7 PUSH1 0x20 MSTORE PUSH1 0x40 SWAP1 KECCAK256 SLOAD DUP5 SWAP1 PUSH2 0x1664 SWAP1 DUP4 SWAP1 PUSH2 0x1DE3 JUMP JUMPDEST GT ISZERO PUSH2 0x16AD JUMPI PUSH1 0x40 MLOAD PUSH3 0x461BCD PUSH1 0xE5 SHL DUP2 MSTORE PUSH1 0x20 PUSH1 0x4 DUP3 ADD MSTORE PUSH1 0x18 PUSH1 0x24 DUP3 ADD MSTORE PUSH24 0x1350D50E8810DB185A5B48131A5B5A5D0814995858DA1959 PUSH1 0x42 SHL PUSH1 0x44 DUP3 ADD MSTORE PUSH1 0x64 ADD PUSH2 0x831 JUMP JUMPDEST PUSH1 0x0 DUP7 DUP2 MSTORE PUSH1 0x7 PUSH1 0x20 MSTORE PUSH1 0x40 DUP2 KECCAK256 DUP1 SLOAD DUP4 SWAP3 SWAP1 PUSH2 0x16CB SWAP1 DUP5 SWAP1 PUSH2 0x1DE3 JUMP JUMPDEST SWAP1 SWAP2 SSTORE POP POP PUSH1 0x0 DUP7 DUP2 MSTORE PUSH1 0x6 PUSH1 0x20 MSTORE PUSH1 0x40 SWAP1 KECCAK256 TIMESTAMP SWAP1 SSTORE PUSH2 0x16EB DUP3 DUP3 PUSH2 0x19A8 JUMP JUMPDEST POP POP POP POP POP POP JUMP JUMPDEST PUSH1 0x0 PUSH2 0x16FF DUP5 DUP5 PUSH2 0x1152 JUMP JUMPDEST SWAP1 POP PUSH1 0x0 NOT DUP2 EQ PUSH2 0x1767 JUMPI DUP2 DUP2 LT ISZERO PUSH2 0x175A JUMPI PUSH1 0x40 MLOAD PUSH3 0x461BCD PUSH1 0xE5 SHL DUP2 MSTORE PUSH1 0x20 PUSH1 0x4 DUP3 ADD MSTORE PUSH1 0x1D PUSH1 0x24 DUP3 ADD MSTORE PUSH32 0x45524332303A20696E73756666696369656E7420616C6C6F77616E6365000000 PUSH1 0x44 DUP3 ADD MSTORE PUSH1 0x64 ADD PUSH2 0x831 JUMP JUMPDEST PUSH2 0x1767 DUP5 DUP5 DUP5 DUP5 SUB PUSH2 0x1310 JUMP JUMPDEST POP POP POP POP JUMP JUMPDEST PUSH1 0x1 PUSH1 0x1 PUSH1 0xA0 SHL SUB DUP4 AND PUSH2 0x17D1 JUMPI PUSH1 0x40 MLOAD PUSH3 0x461BCD PUSH1 0xE5 SHL DUP2 MSTORE PUSH1 0x20 PUSH1 0x4 DUP3 ADD MSTORE PUSH1 0x25 PUSH1 0x24 DUP3 ADD MSTORE PUSH32 0x45524332303A207472616E736665722066726F6D20746865207A65726F206164 PUSH1 0x44 DUP3 ADD MSTORE PUSH5 0x6472657373 PUSH1 0xD8 SHL PUSH1 0x64 DUP3 ADD MSTORE PUSH1 0x84 ADD PUSH2 0x831 JUMP JUMPDEST PUSH1 0x1 PUSH1 0x1 PUSH1 0xA0 SHL SUB DUP3 AND PUSH2 0x1833 JUMPI PUSH1 0x40 MLOAD PUSH3 0x461BCD PUSH1 0xE5 SHL DUP2 MSTORE PUSH1 0x20 PUSH1 0x4 DUP3 ADD MSTORE PUSH1 0x23 PUSH1 0x24 DUP3 ADD MSTORE PUSH32 0x45524332303A207472616E7366657220746F20746865207A65726F2061646472 PUSH1 0x44 DUP3 ADD MSTORE PUSH3 0x657373 PUSH1 0xE8 SHL PUSH1 0x64 DUP3 ADD MSTORE PUSH1 0x84 ADD PUSH2 0x831 JUMP JUMPDEST PUSH1 0x1 PUSH1 0x1 PUSH1 0xA0 SHL SUB DUP4 AND PUSH1 0x0 SWAP1 DUP2 MSTORE PUSH1 0x20 DUP2 SWAP1 MSTORE PUSH1 0x40 SWAP1 KECCAK256 SLOAD DUP2 DUP2 LT ISZERO PUSH2 0x18AB JUMPI PUSH1 0x40 MLOAD PUSH3 0x461BCD PUSH1 0xE5 SHL DUP2 MSTORE PUSH1 0x20 PUSH1 0x4 DUP3 ADD MSTORE PUSH1 0x26 PUSH1 0x24 DUP3 ADD MSTORE PUSH32 0x45524332303A207472616E7366657220616D6F756E7420657863656564732062 PUSH1 0x44 DUP3 ADD MSTORE PUSH6 0x616C616E6365 PUSH1 0xD0 SHL PUSH1 0x64 DUP3 ADD MSTORE PUSH1 0x84 ADD PUSH2 0x831 JUMP JUMPDEST PUSH1 0x1 PUSH1 0x1 PUSH1 0xA0 SHL SUB DUP5 DUP2 AND PUSH1 0x0 DUP2 DUP2 MSTORE PUSH1 0x20 DUP2 DUP2 MSTORE PUSH1 0x40 DUP1 DUP4 KECCAK256 DUP8 DUP8 SUB SWAP1 SSTORE SWAP4 DUP8 AND DUP1 DUP4 MSTORE SWAP2 DUP5 SWAP1 KECCAK256 DUP1 SLOAD DUP8 ADD SWAP1 SSTORE SWAP3 MLOAD DUP6 DUP2 MSTORE SWAP1 SWAP3 PUSH32 0xDDF252AD1BE2C89B69C2B068FC378DAA952BA7F163C4A11628F55A4DF523B3EF SWAP2 ADD PUSH1 0x40 MLOAD DUP1 SWAP2 SUB SWAP1 LOG3 PUSH2 0x1767 JUMP JUMPDEST PUSH1 0x5 DUP1 SLOAD PUSH1 0x1 PUSH1 0x1 PUSH1 0xA0 SHL SUB DUP4 DUP2 AND PUSH1 0x1 PUSH1 0x1 PUSH1 0xA0 SHL SUB NOT DUP4 AND DUP2 OR SWAP1 SWAP4 SSTORE PUSH1 0x40 MLOAD SWAP2 AND SWAP2 SWAP1 DUP3 SWAP1 PUSH32 0x8BE0079C531659141344CD1FD0A4F28419497F9722A3DAAFE3B4186F6B6457E0 SWAP1 PUSH1 0x0 SWAP1 LOG3 POP POP JUMP JUMPDEST PUSH2 0x130D DUP2 PUSH1 0x40 MLOAD PUSH1 0x24 ADD PUSH2 0x1979 SWAP2 DUP2 MSTORE PUSH1 0x20 ADD SWAP1 JUMP JUMPDEST PUSH1 0x40 DUP1 MLOAD PUSH1 0x1F NOT DUP2 DUP5 SUB ADD DUP2 MSTORE SWAP2 SWAP1 MSTORE PUSH1 0x20 DUP2 ADD DUP1 MLOAD PUSH1 0x1 PUSH1 0x1 PUSH1 0xE0 SHL SUB AND PUSH4 0xF82C50F1 PUSH1 0xE0 SHL OR SWAP1 MSTORE PUSH2 0x1A20 JUMP JUMPDEST PUSH12 0x1363156BBEE3016D70000000 DUP2 PUSH2 0x19BF PUSH1 0x2 SLOAD SWAP1 JUMP JUMPDEST PUSH2 0x19C9 SWAP2 SWAP1 PUSH2 0x1DE3 JUMP JUMPDEST GT ISZERO PUSH2 0x1A11 JUMPI PUSH1 0x40 MLOAD PUSH3 0x461BCD PUSH1 0xE5 SHL DUP2 MSTORE PUSH1 0x20 PUSH1 0x4 DUP3 ADD MSTORE PUSH1 0x17 PUSH1 0x24 DUP3 ADD MSTORE PUSH23 0x1350D50E8813585E0814DD5C1C1B1E4814995858DA1959 PUSH1 0x4A SHL PUSH1 0x44 DUP3 ADD MSTORE PUSH1 0x64 ADD PUSH2 0x831 JUMP JUMPDEST PUSH2 0xA50 DUP3 DUP3 PUSH2 0x1A41 JUMP JUMPDEST POP POP POP JUMP JUMPDEST DUP1 MLOAD PUSH11 0x636F6E736F6C652E6C6F67 PUSH1 0x20 DUP4 ADD PUSH1 0x0 DUP1 DUP5 DUP4 DUP6 GAS STATICCALL POP POP POP POP POP JUMP JUMPDEST PUSH1 0x1 PUSH1 0x1 PUSH1 0xA0 SHL SUB DUP3 AND PUSH2 0x1A97 JUMPI PUSH1 0x40 MLOAD PUSH3 0x461BCD PUSH1 0xE5 SHL DUP2 MSTORE PUSH1 0x20 PUSH1 0x4 DUP3 ADD MSTORE PUSH1 0x1F PUSH1 0x24 DUP3 ADD MSTORE PUSH32 0x45524332303A206D696E7420746F20746865207A65726F206164647265737300 PUSH1 0x44 DUP3 ADD MSTORE PUSH1 0x64 ADD PUSH2 0x831 JUMP JUMPDEST DUP1 PUSH1 0x2 PUSH1 0x0 DUP3 DUP3 SLOAD PUSH2 0x1AA9 SWAP2 SWAP1 PUSH2 0x1DE3 JUMP JUMPDEST SWAP1 SWAP2 SSTORE POP POP PUSH1 0x1 PUSH1 0x1 PUSH1 0xA0 SHL SUB DUP3 AND PUSH1 0x0 DUP2 DUP2 MSTORE PUSH1 0x20 DUP2 DUP2 MSTORE PUSH1 0x40 DUP1 DUP4 KECCAK256 DUP1 SLOAD DUP7 ADD SWAP1 SSTORE MLOAD DUP5 DUP2 MSTORE PUSH32 0xDDF252AD1BE2C89B69C2B068FC378DAA952BA7F163C4A11628F55A4DF523B3EF SWAP2 ADD PUSH1 0x40 MLOAD DUP1 SWAP2 SUB SWAP1 LOG3 POP POP JUMP JUMPDEST POP DUP1 SLOAD PUSH1 0x0 DUP3 SSTORE SWAP1 PUSH1 0x0 MSTORE PUSH1 0x20 PUSH1 0x0 KECCAK256 SWAP1 DUP2 ADD SWAP1 PUSH2 0x130D SWAP2 SWAP1 JUMPDEST DUP1 DUP3 GT ISZERO PUSH2 0x1B2E JUMPI PUSH1 0x0 DUP2 SSTORE PUSH1 0x1 ADD PUSH2 0x1B1A JUMP JUMPDEST POP SWAP1 JUMP JUMPDEST PUSH1 0x1 PUSH1 0x1 PUSH1 0xA0 SHL SUB SWAP2 SWAP1 SWAP2 AND DUP2 MSTORE PUSH1 0x20 ADD SWAP1 JUMP JUMPDEST PUSH1 0x0 PUSH1 0x20 DUP1 DUP4 MSTORE DUP4 MLOAD DUP1 DUP3 DUP6 ADD MSTORE PUSH1 0x0 JUMPDEST DUP2 DUP2 LT ISZERO PUSH2 0x1B73 JUMPI DUP6 DUP2 ADD DUP4 ADD MLOAD DUP6 DUP3 ADD PUSH1 0x40 ADD MSTORE DUP3 ADD PUSH2 0x1B57 JUMP JUMPDEST POP PUSH1 0x0 PUSH1 0x40 DUP3 DUP7 ADD ADD MSTORE PUSH1 0x40 PUSH1 0x1F NOT PUSH1 0x1F DUP4 ADD AND DUP6 ADD ADD SWAP3 POP POP POP SWAP3 SWAP2 POP POP JUMP JUMPDEST DUP1 CALLDATALOAD PUSH1 0x1 PUSH1 0x1 PUSH1 0xA0 SHL SUB DUP2 AND DUP2 EQ PUSH2 0x1BAB JUMPI PUSH1 0x0 DUP1 REVERT JUMPDEST SWAP2 SWAP1 POP JUMP JUMPDEST PUSH1 0x0 DUP1 PUSH1 0x40 DUP4 DUP6 SUB SLT ISZERO PUSH2 0x1BC3 JUMPI PUSH1 0x0 DUP1 REVERT JUMPDEST PUSH2 0x1BCC DUP4 PUSH2 0x1B94 JUMP JUMPDEST SWAP5 PUSH1 0x20 SWAP4 SWAP1 SWAP4 ADD CALLDATALOAD SWAP4 POP POP POP JUMP JUMPDEST PUSH1 0x0 PUSH1 0x20 DUP3 DUP5 SUB SLT ISZERO PUSH2 0x1BEC JUMPI PUSH1 0x0 DUP1 REVERT JUMPDEST PUSH2 0x1BF5 DUP3 PUSH2 0x1B94 JUMP JUMPDEST SWAP4 SWAP3 POP POP POP JUMP JUMPDEST PUSH1 0x0 PUSH1 0x20 DUP3 DUP5 SUB SLT ISZERO PUSH2 0x1C0E JUMPI PUSH1 0x0 DUP1 REVERT JUMPDEST POP CALLDATALOAD SWAP2 SWAP1 POP JUMP JUMPDEST PUSH1 0x0 DUP1 PUSH1 0x0 PUSH1 0x60 DUP5 DUP7 SUB SLT ISZERO PUSH2 0x1C2A JUMPI PUSH1 0x0 DUP1 REVERT JUMPDEST PUSH2 0x1C33 DUP5 PUSH2 0x1B94 JUMP JUMPDEST SWAP3 POP PUSH2 0x1C41 PUSH1 0x20 DUP6 ADD PUSH2 0x1B94 JUMP JUMPDEST SWAP2 POP PUSH1 0x40 DUP5 ADD CALLDATALOAD SWAP1 POP SWAP3 POP SWAP3 POP SWAP3 JUMP JUMPDEST PUSH4 0x4E487B71 PUSH1 0xE0 SHL PUSH1 0x0 MSTORE PUSH1 0x41 PUSH1 0x4 MSTORE PUSH1 0x24 PUSH1 0x0 REVERT JUMPDEST PUSH1 0x0 PUSH1 0x20 DUP3 DUP5 SUB SLT ISZERO PUSH2 0x1C79 JUMPI PUSH1 0x0 DUP1 REVERT JUMPDEST DUP2 CALLDATALOAD PUSH8 0xFFFFFFFFFFFFFFFF DUP1 DUP3 GT ISZERO PUSH2 0x1C91 JUMPI PUSH1 0x0 DUP1 REVERT JUMPDEST DUP2 DUP5 ADD SWAP2 POP DUP5 PUSH1 0x1F DUP4 ADD SLT PUSH2 0x1CA5 JUMPI PUSH1 0x0 DUP1 REVERT JUMPDEST DUP2 CALLDATALOAD DUP2 DUP2 GT ISZERO PUSH2 0x1CB7 JUMPI PUSH2 0x1CB7 PUSH2 0x1C51 JUMP JUMPDEST PUSH1 0x40 MLOAD PUSH1 0x1F DUP3 ADD PUSH1 0x1F NOT SWAP1 DUP2 AND PUSH1 0x3F ADD AND DUP2 ADD SWAP1 DUP4 DUP3 GT DUP2 DUP4 LT OR ISZERO PUSH2 0x1CDF JUMPI PUSH2 0x1CDF PUSH2 0x1C51 JUMP JUMPDEST DUP2 PUSH1 0x40 MSTORE DUP3 DUP2 MSTORE DUP8 PUSH1 0x20 DUP5 DUP8 ADD ADD GT ISZERO PUSH2 0x1CF8 JUMPI PUSH1 0x0 DUP1 REVERT JUMPDEST DUP3 PUSH1 0x20 DUP7 ADD PUSH1 0x20 DUP4 ADD CALLDATACOPY PUSH1 0x0 SWAP3 DUP2 ADD PUSH1 0x20 ADD SWAP3 SWAP1 SWAP3 MSTORE POP SWAP6 SWAP5 POP POP POP POP POP JUMP JUMPDEST PUSH1 0x0 DUP1 PUSH1 0x40 DUP4 DUP6 SUB SLT ISZERO PUSH2 0x1D2B JUMPI PUSH1 0x0 DUP1 REVERT JUMPDEST PUSH2 0x1D34 DUP4 PUSH2 0x1B94 JUMP JUMPDEST SWAP2 POP PUSH2 0x1D42 PUSH1 0x20 DUP5 ADD PUSH2 0x1B94 JUMP JUMPDEST SWAP1 POP SWAP3 POP SWAP3 SWAP1 POP JUMP JUMPDEST PUSH1 0x1 DUP2 DUP2 SHR SWAP1 DUP3 AND DUP1 PUSH2 0x1D5F JUMPI PUSH1 0x7F DUP3 AND SWAP2 POP JUMPDEST PUSH1 0x20 DUP3 LT DUP2 SUB PUSH2 0x1D7F JUMPI PUSH4 0x4E487B71 PUSH1 0xE0 SHL PUSH1 0x0 MSTORE PUSH1 0x22 PUSH1 0x4 MSTORE PUSH1 0x24 PUSH1 0x0 REVERT JUMPDEST POP SWAP2 SWAP1 POP JUMP JUMPDEST PUSH1 0x20 DUP1 DUP3 MSTORE PUSH1 0x28 SWAP1 DUP3 ADD MSTORE PUSH32 0x4D43543A204F6E6C79207369676E6572732063616E2063616C6C207468697320 PUSH1 0x40 DUP3 ADD MSTORE PUSH8 0x333AB731BA34B7B7 PUSH1 0xC1 SHL PUSH1 0x60 DUP3 ADD MSTORE PUSH1 0x80 ADD SWAP1 JUMP JUMPDEST PUSH4 0x4E487B71 PUSH1 0xE0 SHL PUSH1 0x0 MSTORE PUSH1 0x11 PUSH1 0x4 MSTORE PUSH1 0x24 PUSH1 0x0 REVERT JUMPDEST DUP1 DUP3 ADD DUP1 DUP3 GT ISZERO PUSH2 0x7BF JUMPI PUSH2 0x7BF PUSH2 0x1DCD JUMP JUMPDEST PUSH1 0x20 DUP1 DUP3 MSTORE PUSH1 0x1B SWAP1 DUP3 ADD MSTORE PUSH32 0x4D43543A204F7065726174696F6E206E6F742070726F706F7365640000000000 PUSH1 0x40 DUP3 ADD MSTORE PUSH1 0x60 ADD SWAP1 JUMP JUMPDEST PUSH1 0x20 DUP1 DUP3 MSTORE PUSH1 0x1F SWAP1 DUP3 ADD MSTORE PUSH32 0x4D43543A204F7065726174696F6E20616C726561647920617070726F76656400 PUSH1 0x40 DUP3 ADD MSTORE PUSH1 0x60 ADD SWAP1 JUMP JUMPDEST PUSH4 0x4E487B71 PUSH1 0xE0 SHL PUSH1 0x0 MSTORE PUSH1 0x32 PUSH1 0x4 MSTORE PUSH1 0x24 PUSH1 0x0 REVERT JUMPDEST PUSH1 0x0 PUSH1 0x1 DUP3 ADD PUSH2 0x1E8C JUMPI PUSH2 0x1E8C PUSH2 0x1DCD JUMP JUMPDEST POP PUSH1 0x1 ADD SWAP1 JUMP JUMPDEST PUSH1 0x1F DUP3 GT ISZERO PUSH2 0x1A1B JUMPI PUSH1 0x0 DUP2 DUP2 MSTORE PUSH1 0x20 DUP2 KECCAK256 PUSH1 0x1F DUP6 ADD PUSH1 0x5 SHR DUP2 ADD PUSH1 0x20 DUP7 LT ISZERO PUSH2 0x1EBA JUMPI POP DUP1 JUMPDEST PUSH1 0x1F DUP6 ADD PUSH1 0x5 SHR DUP3 ADD SWAP2 POP JUMPDEST DUP2 DUP2 LT ISZERO PUSH2 0x16EB JUMPI DUP3 DUP2 SSTORE PUSH1 0x1 ADD PUSH2 0x1EC6 JUMP JUMPDEST DUP2 MLOAD PUSH8 0xFFFFFFFFFFFFFFFF DUP2 GT ISZERO PUSH2 0x1EF3 JUMPI PUSH2 0x1EF3 PUSH2 0x1C51 JUMP JUMPDEST PUSH2 0x1F07 DUP2 PUSH2 0x1F01 DUP5 SLOAD PUSH2 0x1D4B JUMP JUMPDEST DUP5 PUSH2 0x1E93 JUMP JUMPDEST PUSH1 0x20 DUP1 PUSH1 0x1F DUP4 GT PUSH1 0x1 DUP2 EQ PUSH2 0x1F3C JUMPI PUSH1 0x0 DUP5 ISZERO PUSH2 0x1F24 JUMPI POP DUP6 DUP4 ADD MLOAD JUMPDEST PUSH1 0x0 NOT PUSH1 0x3 DUP7 SWAP1 SHL SHR NOT AND PUSH1 0x1 DUP6 SWAP1 SHL OR DUP6 SSTORE PUSH2 0x16EB JUMP JUMPDEST PUSH1 0x0 DUP6 DUP2 MSTORE PUSH1 0x20 DUP2 KECCAK256 PUSH1 0x1F NOT DUP7 AND SWAP2 JUMPDEST DUP3 DUP2 LT ISZERO PUSH2 0x1F6B JUMPI DUP9 DUP7 ADD MLOAD DUP3 SSTORE SWAP5 DUP5 ADD SWAP5 PUSH1 0x1 SWAP1 SWAP2 ADD SWAP1 DUP5 ADD PUSH2 0x1F4C JUMP JUMPDEST POP DUP6 DUP3 LT ISZERO PUSH2 0x1F89 JUMPI DUP8 DUP6 ADD MLOAD PUSH1 0x0 NOT PUSH1 0x3 DUP9 SWAP1 SHL PUSH1 0xF8 AND SHR NOT AND DUP2 SSTORE JUMPDEST POP POP POP POP POP PUSH1 0x1 SWAP1 DUP2 SHL ADD SWAP1 SSTORE POP JUMP JUMPDEST DUP2 DUP2 SUB DUP2 DUP2 GT ISZERO PUSH2 0x7BF JUMPI PUSH2 0x7BF PUSH2 0x1DCD JUMP JUMPDEST PUSH1 0x0 DUP3 PUSH2 0x1FC9 JUMPI PUSH4 0x4E487B71 PUSH1 0xE0 SHL PUSH1 0x0 MSTORE PUSH1 0x12 PUSH1 0x4 MSTORE PUSH1 0x24 PUSH1 0x0 REVERT JUMPDEST POP DIV SWAP1 JUMP JUMPDEST DUP1 DUP3 MUL DUP2 ISZERO DUP3 DUP3 DIV DUP5 EQ OR PUSH2 0x7BF JUMPI PUSH2 0x7BF PUSH2 0x1DCD JUMP INVALID LOG2 PUSH5 0x6970667358 0x22 SLT KECCAK256 DIFFICULTY CHAINID CALLER 0xE1 CALLVALUE PUSH4 0x9B42A554 0x22 EXP 0xCF 0xEE 0xAD TIMESTAMP SWAP7 0xC9 RETURNDATASIZE 0x2A 0x4E JUMPDEST 0xD2 0x26 0xC8 STOP PUSH10 0x64A2721B8464736F6C63 NUMBER STOP ADDMOD GT STOP CALLER "},"methodIdentifiers":{"AIRDROP_ALLOCATION()":"cb4b4ff9","AIRDROP_POOL_RECEIVER()":"9e3299f2","AIRDROP_VESTING()":"aaff1f18","INITIAL_SUPPLY_ALLOCATION()":"87bdc093","INITIAL_SUPPLY_RECEIVER()":"df5e8452","INVESTOR_ALLOCATION()":"e2571f5d","INVESTOR_POOL_RECEIVER()":"831edebe","MAX_SUPPLY()":"32cb6b0c","MINING_POOL_ALLOCATION()":"4ca6a094","MINING_POOL_RECEIVER()":"d95e277a","MINING_POOL_VESTING()":"b16179bf","OPERATIONAL_POOL_ALLOCATION()":"ba558d61","OPERATIONAL_POOL_RECEIVER()":"0399516d","OPERATIONAL_POOL_VESTING()":"93ad411a","RESERVE_POOL_ALLOCATION()":"b4e5df40","RESERVE_POOL_LOCKUP()":"4d703b6a","RESERVE_POOL_RECEIVER()":"b6ef599c","RESERVE_POOL_VESTING()":"6338c7e9","START_TIME()":"ddaa26ad","TEAM_ALLOCATION()":"fd99cbed","TEAM_LOCKUP()":"ac0b2353","TEAM_RECEIVER()":"bea06016","TEAM_VESTING()":"1940ca17","addSigner(address)":"eb12d61e","allowance(address,address)":"dd62ed3e","approve(address,uint256)":"095ea7b3","approveOperation(uint256)":"16a38f1f","balanceOf(address)":"70a08231","cancelOperation(uint256)":"5c945227","decimals()":"313ce567","decreaseAllowance(address,uint256)":"a457c2d7","executeOperation(uint256)":"0e70306d","increaseAllowance(address,uint256)":"39509351","investedAt(address)":"f76b8fe2","investment(address)":"0bd18d7a","isInvestor(address)":"cee2a9cf","isSigner(address)":"7df73e27","multiSigAddressesLink()":"374b227d","name()":"06fdde03","owner()":"8da5cb5b","poolClaimedAmount(uint256)":"feeee007","poolLastClaimTime(uint256)":"b179fa72","proposeOperation(uint256)":"8c366214","removeSigner(address)":"0e316ab7","renounceOwnership()":"715018a6","setMultiSigAddressesLink(string)":"38a418b0","setTokenDistributionPlanLink(string)":"a340a017","symbol()":"95d89b41","tokenDistributionPlanLink()":"5c5dd222","totalSupply()":"18160ddd","transfer(address,uint256)":"a9059cbb","transferFrom(address,address,uint256)":"23b872dd","transferOwnership(address)":"f2fde38b"}},"userdoc":{"kind":"user","methods":{},"notice":"fixed supply token","version":1}}}}