{
  "_format": "hh-sol-artifact-1",
  "contractName": "MCT",
  "sourceName": "contracts/token/MCT.sol",
  "abi": [
    {
      "inputs": [
        {
          "internalType": "string",
          "name": "name_",
          "type": "string"
        },
        {
          "internalType": "string",
          "name": "symbol_",
          "type": "string"
        }
      ],
      "stateMutability": "nonpayable",
      "type": "constructor"
    },
    {
      "anonymous": false,
      "inputs": [
        {
          "indexed": true,
          "internalType": "address",
          "name": "owner",
          "type": "address"
        },
        {
          "indexed": true,
          "internalType": "address",
          "name": "spender",
          "type": "address"
        },
        {
          "indexed": false,
          "internalType": "uint256",
          "name": "value",
          "type": "uint256"
        }
      ],
      "name": "Approval",
      "type": "event"
    },
    {
      "anonymous": false,
      "inputs": [
        {
          "indexed": false,
          "internalType": "string",
          "name": "addresses",
          "type": "string"
        }
      ],
      "name": "MultiSignerAddressesUpdated",
      "type": "event"
    },
    {
      "anonymous": false,
      "inputs": [
        {
          "indexed": false,
          "internalType": "address",
          "name": "newSigner",
          "type": "address"
        }
      ],
      "name": "NewSignerAdded",
      "type": "event"
    },
    {
      "anonymous": false,
      "inputs": [
        {
          "indexed": false,
          "internalType": "address",
          "name": "oldSigner",
          "type": "address"
        }
      ],
      "name": "OldSignerRemoved",
      "type": "event"
    },
    {
      "anonymous": false,
      "inputs": [
        {
          "indexed": true,
          "internalType": "address",
          "name": "previousOwner",
          "type": "address"
        },
        {
          "indexed": true,
          "internalType": "address",
          "name": "newOwner",
          "type": "address"
        }
      ],
      "name": "OwnershipTransferred",
      "type": "event"
    },
    {
      "anonymous": false,
      "inputs": [
        {
          "indexed": false,
          "internalType": "string",
          "name": "newPlan",
          "type": "string"
        }
      ],
      "name": "TokenDistributionPlanUpdate",
      "type": "event"
    },
    {
      "anonymous": false,
      "inputs": [
        {
          "indexed": true,
          "internalType": "address",
          "name": "from",
          "type": "address"
        },
        {
          "indexed": true,
          "internalType": "address",
          "name": "to",
          "type": "address"
        },
        {
          "indexed": false,
          "internalType": "uint256",
          "name": "value",
          "type": "uint256"
        }
      ],
      "name": "Transfer",
      "type": "event"
    },
    {
      "inputs": [],
      "name": "AIRDROP_ALLOCATION",
      "outputs": [
        {
          "internalType": "uint256",
          "name": "",
          "type": "uint256"
        }
      ],
      "stateMutability": "view",
      "type": "function"
    },
    {
      "inputs": [],
      "name": "AIRDROP_POOL_RECEIVER",
      "outputs": [
        {
          "internalType": "address",
          "name": "",
          "type": "address"
        }
      ],
      "stateMutability": "view",
      "type": "function"
    },
    {
      "inputs": [],
      "name": "AIRDROP_VESTING",
      "outputs": [
        {
          "internalType": "uint256",
          "name": "",
          "type": "uint256"
        }
      ],
      "stateMutability": "view",
      "type": "function"
    },
    {
      "inputs": [],
      "name": "INITIAL_SUPPLY_ALLOCATION",
      "outputs": [
        {
          "internalType": "uint256",
          "name": "",
          "type": "uint256"
        }
      ],
      "stateMutability": "view",
      "type": "function"
    },
    {
      "inputs": [],
      "name": "INITIAL_SUPPLY_RECEIVER",
      "outputs": [
        {
          "internalType": "address",
          "name": "",
          "type": "address"
        }
      ],
      "stateMutability": "view",
      "type": "function"
    },
    {
      "inputs": [],
      "name": "INVESTOR_ALLOCATION",
      "outputs": [
        {
          "internalType": "uint256",
          "name": "",
          "type": "uint256"
        }
      ],
      "stateMutability": "view",
      "type": "function"
    },
    {
      "inputs": [],
      "name": "INVESTOR_POOL_RECEIVER",
      "outputs": [
        {
          "internalType": "address",
          "name": "",
          "type": "address"
        }
      ],
      "stateMutability": "view",
      "type": "function"
    },
    {
      "inputs": [],
      "name": "MAX_SUPPLY",
      "outputs": [
        {
          "internalType": "uint256",
          "name": "",
          "type": "uint256"
        }
      ],
      "stateMutability": "view",
      "type": "function"
    },
    {
      "inputs": [],
      "name": "MINING_POOL_ALLOCATION",
      "outputs": [
        {
          "internalType": "uint256",
          "name": "",
          "type": "uint256"
        }
      ],
      "stateMutability": "view",
      "type": "function"
    },
    {
      "inputs": [],
      "name": "MINING_POOL_RECEIVER",
      "outputs": [
        {
          "internalType": "address",
          "name": "",
          "type": "address"
        }
      ],
      "stateMutability": "view",
      "type": "function"
    },
    {
      "inputs": [],
      "name": "MINING_POOL_VESTING",
      "outputs": [
        {
          "internalType": "uint256",
          "name": "",
          "type": "uint256"
        }
      ],
      "stateMutability": "view",
      "type": "function"
    },
    {
      "inputs": [],
      "name": "OPERATIONAL_POOL_ALLOCATION",
      "outputs": [
        {
          "internalType": "uint256",
          "name": "",
          "type": "uint256"
        }
      ],
      "stateMutability": "view",
      "type": "function"
    },
    {
      "inputs": [],
      "name": "OPERATIONAL_POOL_RECEIVER",
      "outputs": [
        {
          "internalType": "address",
          "name": "",
          "type": "address"
        }
      ],
      "stateMutability": "view",
      "type": "function"
    },
    {
      "inputs": [],
      "name": "OPERATIONAL_POOL_VESTING",
      "outputs": [
        {
          "internalType": "uint256",
          "name": "",
          "type": "uint256"
        }
      ],
      "stateMutability": "view",
      "type": "function"
    },
    {
      "inputs": [],
      "name": "RESERVE_POOL_ALLOCATION",
      "outputs": [
        {
          "internalType": "uint256",
          "name": "",
          "type": "uint256"
        }
      ],
      "stateMutability": "view",
      "type": "function"
    },
    {
      "inputs": [],
      "name": "RESERVE_POOL_LOCKUP",
      "outputs": [
        {
          "internalType": "uint256",
          "name": "",
          "type": "uint256"
        }
      ],
      "stateMutability": "view",
      "type": "function"
    },
    {
      "inputs": [],
      "name": "RESERVE_POOL_RECEIVER",
      "outputs": [
        {
          "internalType": "address",
          "name": "",
          "type": "address"
        }
      ],
      "stateMutability": "view",
      "type": "function"
    },
    {
      "inputs": [],
      "name": "RESERVE_POOL_VESTING",
      "outputs": [
        {
          "internalType": "uint256",
          "name": "",
          "type": "uint256"
        }
      ],
      "stateMutability": "view",
      "type": "function"
    },
    {
      "inputs": [],
      "name": "START_TIME",
      "outputs": [
        {
          "internalType": "uint256",
          "name": "",
          "type": "uint256"
        }
      ],
      "stateMutability": "view",
      "type": "function"
    },
    {
      "inputs": [],
      "name": "TEAM_ALLOCATION",
      "outputs": [
        {
          "internalType": "uint256",
          "name": "",
          "type": "uint256"
        }
      ],
      "stateMutability": "view",
      "type": "function"
    },
    {
      "inputs": [],
      "name": "TEAM_LOCKUP",
      "outputs": [
        {
          "internalType": "uint256",
          "name": "",
          "type": "uint256"
        }
      ],
      "stateMutability": "view",
      "type": "function"
    },
    {
      "inputs": [],
      "name": "TEAM_RECEIVER",
      "outputs": [
        {
          "internalType": "address",
          "name": "",
          "type": "address"
        }
      ],
      "stateMutability": "view",
      "type": "function"
    },
    {
      "inputs": [],
      "name": "TEAM_VESTING",
      "outputs": [
        {
          "internalType": "uint256",
          "name": "",
          "type": "uint256"
        }
      ],
      "stateMutability": "view",
      "type": "function"
    },
    {
      "inputs": [
        {
          "internalType": "address",
          "name": "newSigner",
          "type": "address"
        }
      ],
      "name": "addSigner",
      "outputs": [],
      "stateMutability": "nonpayable",
      "type": "function"
    },
    {
      "inputs": [
        {
          "internalType": "address",
          "name": "owner",
          "type": "address"
        },
        {
          "internalType": "address",
          "name": "spender",
          "type": "address"
        }
      ],
      "name": "allowance",
      "outputs": [
        {
          "internalType": "uint256",
          "name": "",
          "type": "uint256"
        }
      ],
      "stateMutability": "view",
      "type": "function"
    },
    {
      "inputs": [
        {
          "internalType": "address",
          "name": "spender",
          "type": "address"
        },
        {
          "internalType": "uint256",
          "name": "amount",
          "type": "uint256"
        }
      ],
      "name": "approve",
      "outputs": [
        {
          "internalType": "bool",
          "name": "",
          "type": "bool"
        }
      ],
      "stateMutability": "nonpayable",
      "type": "function"
    },
    {
      "inputs": [
        {
          "internalType": "uint256",
          "name": "operationId",
          "type": "uint256"
        }
      ],
      "name": "approveOperation",
      "outputs": [],
      "stateMutability": "nonpayable",
      "type": "function"
    },
    {
      "inputs": [
        {
          "internalType": "address",
          "name": "account",
          "type": "address"
        }
      ],
      "name": "balanceOf",
      "outputs": [
        {
          "internalType": "uint256",
          "name": "",
          "type": "uint256"
        }
      ],
      "stateMutability": "view",
      "type": "function"
    },
    {
      "inputs": [
        {
          "internalType": "uint256",
          "name": "operationId",
          "type": "uint256"
        }
      ],
      "name": "cancelOperation",
      "outputs": [],
      "stateMutability": "nonpayable",
      "type": "function"
    },
    {
      "inputs": [],
      "name": "decimals",
      "outputs": [
        {
          "internalType": "uint8",
          "name": "",
          "type": "uint8"
        }
      ],
      "stateMutability": "view",
      "type": "function"
    },
    {
      "inputs": [
        {
          "internalType": "address",
          "name": "spender",
          "type": "address"
        },
        {
          "internalType": "uint256",
          "name": "subtractedValue",
          "type": "uint256"
        }
      ],
      "name": "decreaseAllowance",
      "outputs": [
        {
          "internalType": "bool",
          "name": "",
          "type": "bool"
        }
      ],
      "stateMutability": "nonpayable",
      "type": "function"
    },
    {
      "inputs": [
        {
          "internalType": "uint256",
          "name": "operationId",
          "type": "uint256"
        }
      ],
      "name": "executeOperation",
      "outputs": [],
      "stateMutability": "nonpayable",
      "type": "function"
    },
    {
      "inputs": [
        {
          "internalType": "address",
          "name": "spender",
          "type": "address"
        },
        {
          "internalType": "uint256",
          "name": "addedValue",
          "type": "uint256"
        }
      ],
      "name": "increaseAllowance",
      "outputs": [
        {
          "internalType": "bool",
          "name": "",
          "type": "bool"
        }
      ],
      "stateMutability": "nonpayable",
      "type": "function"
    },
    {
      "inputs": [
        {
          "internalType": "address",
          "name": "",
          "type": "address"
        }
      ],
      "name": "investedAmountTransferred",
      "outputs": [
        {
          "internalType": "uint256",
          "name": "",
          "type": "uint256"
        }
      ],
      "stateMutability": "view",
      "type": "function"
    },
    {
      "inputs": [
        {
          "internalType": "address",
          "name": "",
          "type": "address"
        }
      ],
      "name": "investedAt",
      "outputs": [
        {
          "internalType": "uint256",
          "name": "",
          "type": "uint256"
        }
      ],
      "stateMutability": "view",
      "type": "function"
    },
    {
      "inputs": [
        {
          "internalType": "address",
          "name": "",
          "type": "address"
        }
      ],
      "name": "investment",
      "outputs": [
        {
          "internalType": "uint256",
          "name": "",
          "type": "uint256"
        }
      ],
      "stateMutability": "view",
      "type": "function"
    },
    {
      "inputs": [
        {
          "internalType": "address",
          "name": "",
          "type": "address"
        }
      ],
      "name": "isSigner",
      "outputs": [
        {
          "internalType": "bool",
          "name": "",
          "type": "bool"
        }
      ],
      "stateMutability": "view",
      "type": "function"
    },
    {
      "inputs": [],
      "name": "multiSigAddressesLink",
      "outputs": [
        {
          "internalType": "string",
          "name": "",
          "type": "string"
        }
      ],
      "stateMutability": "view",
      "type": "function"
    },
    {
      "inputs": [],
      "name": "name",
      "outputs": [
        {
          "internalType": "string",
          "name": "",
          "type": "string"
        }
      ],
      "stateMutability": "view",
      "type": "function"
    },
    {
      "inputs": [],
      "name": "owner",
      "outputs": [
        {
          "internalType": "address",
          "name": "",
          "type": "address"
        }
      ],
      "stateMutability": "view",
      "type": "function"
    },
    {
      "inputs": [
        {
          "internalType": "uint256",
          "name": "",
          "type": "uint256"
        }
      ],
      "name": "poolClaimedAmount",
      "outputs": [
        {
          "internalType": "uint256",
          "name": "",
          "type": "uint256"
        }
      ],
      "stateMutability": "view",
      "type": "function"
    },
    {
      "inputs": [
        {
          "internalType": "uint256",
          "name": "",
          "type": "uint256"
        }
      ],
      "name": "poolLastClaimTime",
      "outputs": [
        {
          "internalType": "uint256",
          "name": "",
          "type": "uint256"
        }
      ],
      "stateMutability": "view",
      "type": "function"
    },
    {
      "inputs": [
        {
          "internalType": "uint256",
          "name": "operationId",
          "type": "uint256"
        }
      ],
      "name": "proposeOperation",
      "outputs": [],
      "stateMutability": "nonpayable",
      "type": "function"
    },
    {
      "inputs": [
        {
          "internalType": "address",
          "name": "signerToBeRemoved",
          "type": "address"
        }
      ],
      "name": "removeSigner",
      "outputs": [],
      "stateMutability": "nonpayable",
      "type": "function"
    },
    {
      "inputs": [],
      "name": "renounceOwnership",
      "outputs": [],
      "stateMutability": "nonpayable",
      "type": "function"
    },
    {
      "inputs": [
        {
          "internalType": "string",
          "name": "link",
          "type": "string"
        }
      ],
      "name": "setMultiSigAddressesLink",
      "outputs": [],
      "stateMutability": "nonpayable",
      "type": "function"
    },
    {
      "inputs": [
        {
          "internalType": "string",
          "name": "link",
          "type": "string"
        }
      ],
      "name": "setTokenDistributionPlanLink",
      "outputs": [],
      "stateMutability": "nonpayable",
      "type": "function"
    },
    {
      "inputs": [],
      "name": "signersCount",
      "outputs": [
        {
          "internalType": "uint256",
          "name": "",
          "type": "uint256"
        }
      ],
      "stateMutability": "view",
      "type": "function"
    },
    {
      "inputs": [],
      "name": "symbol",
      "outputs": [
        {
          "internalType": "string",
          "name": "",
          "type": "string"
        }
      ],
      "stateMutability": "view",
      "type": "function"
    },
    {
      "inputs": [],
      "name": "tokenDistributionPlanLink",
      "outputs": [
        {
          "internalType": "string",
          "name": "",
          "type": "string"
        }
      ],
      "stateMutability": "view",
      "type": "function"
    },
    {
      "inputs": [],
      "name": "totalSupply",
      "outputs": [
        {
          "internalType": "uint256",
          "name": "",
          "type": "uint256"
        }
      ],
      "stateMutability": "view",
      "type": "function"
    },
    {
      "inputs": [
        {
          "internalType": "address",
          "name": "to",
          "type": "address"
        },
        {
          "internalType": "uint256",
          "name": "amount",
          "type": "uint256"
        }
      ],
      "name": "transfer",
      "outputs": [
        {
          "internalType": "bool",
          "name": "",
          "type": "bool"
        }
      ],
      "stateMutability": "nonpayable",
      "type": "function"
    },
    {
      "inputs": [
        {
          "internalType": "address",
          "name": "from",
          "type": "address"
        },
        {
          "internalType": "address",
          "name": "to",
          "type": "address"
        },
        {
          "internalType": "uint256",
          "name": "amount",
          "type": "uint256"
        }
      ],
      "name": "transferFrom",
      "outputs": [
        {
          "internalType": "bool",
          "name": "",
          "type": "bool"
        }
      ],
      "stateMutability": "nonpayable",
      "type": "function"
    },
    {
      "inputs": [
        {
          "internalType": "address",
          "name": "newOwner",
          "type": "address"
        }
      ],
      "name": "transferOwnership",
      "outputs": [],
      "stateMutability": "nonpayable",
      "type": "function"
    }
  ],
  "bytecode": "0x60a06040523480156200001157600080fd5b5060405162002ac438038062002ac4833981016040819052620000349162000242565b818160036200004483826200033b565b5060046200005382826200033b565b505050620000706200006a6200012760201b60201c565b6200012b565b6b1363156bbee3016d700000006a94e47b8d681715340000006a31a17e847807b1bc0000006b015b6a759f4835dc24000000806b025391ee35a05c54d0000000620000d46b01f04ef12cb04cf1580000006b0ba1d9a70c21cda81000000062000407565b620000e0919062000407565b620000ec919062000407565b620000f8919062000407565b62000104919062000407565b62000110919062000407565b146200011b57600080fd5b5050426080526200042f565b3390565b600580546001600160a01b038381166001600160a01b0319831681179093556040519116919082907f8be0079c531659141344cd1fd0a4f28419497f9722a3daafe3b4186f6b6457e090600090a35050565b634e487b7160e01b600052604160045260246000fd5b600082601f830112620001a557600080fd5b81516001600160401b0380821115620001c257620001c26200017d565b604051601f8301601f19908116603f01168101908282118183101715620001ed57620001ed6200017d565b816040528381526020925086838588010111156200020a57600080fd5b600091505b838210156200022e57858201830151818301840152908201906200020f565b600093810190920192909252949350505050565b600080604083850312156200025657600080fd5b82516001600160401b03808211156200026e57600080fd5b6200027c8683870162000193565b935060208501519150808211156200029357600080fd5b50620002a28582860162000193565b9150509250929050565b600181811c90821680620002c157607f821691505b602082108103620002e257634e487b7160e01b600052602260045260246000fd5b50919050565b601f8211156200033657600081815260208120601f850160051c81016020861015620003115750805b601f850160051c820191505b8181101562000332578281556001016200031d565b5050505b505050565b81516001600160401b038111156200035757620003576200017d565b6200036f81620003688454620002ac565b84620002e8565b602080601f831160018114620003a757600084156200038e5750858301515b600019600386901b1c1916600185901b17855562000332565b600085815260208120601f198616915b82811015620003d857888601518255948401946001909101908401620003b7565b5085821015620003f75787850151600019600388901b60f8161c191681555b5050505050600190811b01905550565b808201808211156200042957634e487b7160e01b600052601160045260246000fd5b92915050565b608051612664620004606000396000818161066c01528181611506015281816115a8015261174501526126646000f3fe608060405234801561001057600080fd5b50600436106102e25760003560e01c80638da5cb5b11610188578063ba558d61116100e4578063e2571f5d11610092578063e2571f5d146106a9578063e40956b1146106bb578063eb12d61e146106c4578063f2fde38b146106d7578063f76b8fe2146106ea578063fd99cbed146105f8578063feeee0071461070a57600080fd5b8063ba558d61146105f8578063bea060161461060b578063cb4b4ff914610626578063d95e277a14610639578063dd62ed3e14610654578063ddaa26ad14610667578063df5e84521461068e57600080fd5b8063a9059cbb11610141578063a9059cbb1461057b578063aaff1f181461058e578063ac0b235314610596578063b16179bf146105a1578063b179fa72146105aa578063b4e5df40146105ca578063b6ef599c146105dd57600080fd5b80638da5cb5b1461052157806393ad411a146103c157806395d89b41146105325780639e3299f21461053a578063a340a01714610555578063a457c2d71461056857600080fd5b8063374b227d116102425780636338c7e9116101f05780636338c7e91461048557806370a082311461048d578063715018a6146104b65780637df73e27146104be578063831edebe146104e157806387bdc093146104fc5780638c3662141461050e57600080fd5b8063374b227d1461041e57806338a418b01461042657806339509351146104395780634ca6a0941461044c5780634d703b6a1461045f5780635c5dd2221461046a5780635c9452271461047257600080fd5b806316a38f1f1161029f57806316a38f1f146103a657806318160ddd146103b95780631940ca17146103c157806323b872dd146103c9578063313ce567146103dc57806332cb6b0c146103eb57806334ab8299146103fe57600080fd5b80630399516d146102e757806306fdde0314610318578063095ea7b31461032d5780630bd18d7a146103505780630e316ab71461037e5780630e70306d14610393575b600080fd5b61030273a0b9fe04f0e6e44e42c90cfe30507769e91c191981565b60405161030f9190612125565b60405180910390f35b61032061072a565b60405161030f9190612139565b61034061033b3660046121a3565b6107bc565b604051901515815260200161030f565b61037061035e3660046121cd565b60086020526000908152604090205481565b60405190815260200161030f565b61039161038c3660046121cd565b6107d6565b005b6103916103a13660046121ef565b6108ad565b6103916103b43660046121ef565b610bdd565b600254610370565b610370609c81565b6103406103d7366004612208565b610db8565b6040516012815260200161030f565b6103706b1363156bbee3016d7000000081565b61037061040c3660046121cd565b600a6020526000908152604090205481565b610320610ddc565b61039161043436600461225a565b610e6a565b6103406104473660046121a3565b610eb9565b6103706b0ba1d9a70c21cda81000000081565b6103706303bfc40081565b610320610edb565b6103916104803660046121ef565b610ee8565b610370606881565b61037061049b3660046121cd565b6001600160a01b031660009081526020819052604090205490565b610391610fe4565b6103406104cc3660046121cd565b600d6020526000908152604090205460ff1681565b61030273910bbe8b14dbe813ea3f0e268058b024bf5301d981565b6103706a31a17e847807b1bc00000081565b61039161051c3660046121ef565b610ff8565b6005546001600160a01b0316610302565b6103206110de565b61030273f32fb437a2768f02fada4d97abe76d8f306f44fe81565b61039161056336600461225a565b6110ed565b6103406105763660046121a3565b611131565b6103406105893660046121a3565b6111ac565b610370603481565b6103706301dfe20081565b61037061020881565b6103706105b83660046121ef565b60066020526000908152604090205481565b6103706b025391ee35a05c54d000000081565b61030273d1e532c785deec90c1c69c7c5a7dcd28a8f7424881565b6103706b015b6a759f4835dc2400000081565b610302738a83d34fa97910b0786d8dab29c5f3aca5c1cc7681565b6103706b01f04ef12cb04cf15800000081565b61030273b54e1c4b3927f4489ead5c149b7895ecd03a5ce081565b61037061066236600461230b565b6111ba565b6103707f000000000000000000000000000000000000000000000000000000000000000081565b610302738824fe9fa03d3716a762375867fac2052cd54a8c81565b6103706a94e47b8d6817153400000081565b610370600c5481565b6103916106d23660046121cd565b6111e5565b6103916106e53660046121cd565b611363565b6103706106f83660046121cd565b60096020526000908152604090205481565b6103706107183660046121ef565b60076020526000908152604090205481565b6060600380546107399061233e565b80601f01602080910402602001604051908101604052809291908181526020018280546107659061233e565b80156107b25780601f10610787576101008083540402835291602001916107b2565b820191906000526020600020905b81548152906001019060200180831161079557829003601f168201915b5050505050905090565b6000336107ca8185856113dc565b60019150505b92915050565b336000908152600d602052604090205460ff1661080e5760405162461bcd60e51b815260040161080590612378565b60405180910390fd5b60086000819052600e6020527feab6bc3746954d8a0719de62c86ea908d362be2a58c781ada1046727253f9df25460ff161561085c5760405162461bcd60e51b8152600401610805906123c0565b6000908152600e60209081526040808320805460ff19166001179055600f82528083204290556010909152812055600b80546001600160a01b039092166001600160a01b0319909216919091179055565b336000908152600d602052604090205460ff166108dc5760405162461bcd60e51b815260040161080590612378565b6000818152600f602052604090205481906108fb906202a3009061240d565b42116109555760405162461bcd60e51b8152602060048201526024808201527f4d43543a2054696d656c6f636b20706572696f64206e6f7420796574206578706044820152631a5c995960e21b6064820152608401610805565b6000828152600e602052604090205460ff166109835760405162461bcd60e51b815260040161080590612420565b600082815260106020526040902054600211156109f25760405162461bcd60e51b815260206004820152602760248201527f4d43543a204e6f7420656e6f75676820617070726f76616c7320666f72206f7060448201526632b930ba34b7b760c91b6064820152608401610805565b6000828152600e60209081526040808320805460ff19169055600f82528083208390556010825280832083905560119091528120610a2f916120f3565b81600103610a6c57610a68600160006b0ba1d9a70c21cda81000000061020873b54e1c4b3927f4489ead5c149b7895ecd03a5ce0611500565b5050565b81600203610aa457610a68600260006b01f04ef12cb04cf158000000603473f32fb437a2768f02fada4d97abe76d8f306f44fe611500565b81600303610adf57610a6860036303bfc4006b025391ee35a05c54d0000000606873d1e532c785deec90c1c69c7c5a7dcd28a8f74248611500565b81600403610b1757610a68600460006b015b6a759f4835dc24000000609c73a0b9fe04f0e6e44e42c90cfe30507769e91c1919611500565b81600503610b5257610a6860056301dfe2006b015b6a759f4835dc24000000609c738a83d34fa97910b0786d8dab29c5f3aca5c1cc76611500565b81600603610b8957610a68600660006a31a17e847807b1bc0000006001738824fe9fa03d3716a762375867fac2052cd54a8c611500565b81600703610bc057610a68600760006a94e47b8d68171534000000600173910bbe8b14dbe813ea3f0e268058b024bf5301d9611500565b81600803610a6857600b54610a68906001600160a01b03166117dc565b336000908152600d602052604090205460ff16610c0c5760405162461bcd60e51b815260040161080590612378565b6000818152600e602052604090205460ff16610c3a5760405162461bcd60e51b815260040161080590612420565b600081815260106020526040902054600211610c685760405162461bcd60e51b815260040161080590612457565b600081815260116020908152604080832080548251818502810185019093528083529192909190830182828015610cc857602002820191906000526020600020905b81546001600160a01b03168152600190910190602001808311610caa575b5050505050905060005b8151811015610d6757336001600160a01b0316828281518110610cf757610cf761248e565b60200260200101516001600160a01b031603610d555760405162461bcd60e51b815260206004820152601a60248201527f4d43543a205369676e657220616c7265616479207369676e65640000000000006044820152606401610805565b80610d5f816124a4565b915050610cd2565b506000828152601060205260408120805491610d82836124a4565b90915550505060009081526011602090815260408220805460018101825590835291200180546001600160a01b03191633179055565b600033610dc68582856119cd565b610dd1858585611a47565b506001949350505050565b60128054610de99061233e565b80601f0160208091040260200160405190810160405280929190818152602001828054610e159061233e565b8015610e625780601f10610e3757610100808354040283529160200191610e62565b820191906000526020600020905b815481529060010190602001808311610e4557829003601f168201915b505050505081565b610e72611bf6565b6012610e7e828261250b565b507f244b98c0deef2393ec403278ed60386765b5d6f59f3e4412c8909d0de66b202181604051610eae9190612139565b60405180910390a150565b6000336107ca818585610ecc83836111ba565b610ed6919061240d565b6113dc565b60138054610de99061233e565b610ef0611bf6565b6000818152600f6020526040902054610f0d906203f4809061240d565b4211610f5b5760405162461bcd60e51b815260206004820181905260248201527f4d43543a204f7065726174696f6e206f7574206f662074696d6520626f756e646044820152606401610805565b600081815260106020526040902054600211610f895760405162461bcd60e51b815260040161080590612457565b6000818152600e602052604090205460ff16610fb75760405162461bcd60e51b815260040161080590612420565b6000908152600e60209081526040808320805460ff19169055600f82528083208390556010909152812055565b610fec611bf6565b610ff66000611c50565b565b336000908152600d602052604090205460ff166110275760405162461bcd60e51b815260040161080590612378565b6000818152600e602052604090205460ff16156110565760405162461bcd60e51b8152600401610805906123c0565b600081118015611067575060078111155b6110ae5760405162461bcd60e51b81526020600482015260186024820152771350d50e88125b9d985b1a59081bdc19585d1a5bdb881a5960421b6044820152606401610805565b6000908152600e60209081526040808320805460ff19166001179055600f82528083204290556010909152812055565b6060600480546107399061233e565b6110f5611bf6565b6013611101828261250b565b507fe0ab386401771f5a4e068348a2d8e279b1530d152681890b0d3243c96b2cc78b81604051610eae9190612139565b6000338161113f82866111ba565b90508381101561119f5760405162461bcd60e51b815260206004820152602560248201527f45524332303a2064656372656173656420616c6c6f77616e63652062656c6f77604482015264207a65726f60d81b6064820152608401610805565b610dd182868684036113dc565b6000336107ca818585611a47565b6001600160a01b03918216600090815260016020908152604080832093909416825291909152205490565b6111ed611bf6565b6001600160a01b0381166112435760405162461bcd60e51b815260206004820152601b60248201527f4d43543a20496e76616c6964207369676e6572206164647265737300000000006044820152606401610805565b6001600160a01b0381166000908152600d602052604090205460ff16156112ac5760405162461bcd60e51b815260206004820152601a60248201527f4d43543a205369676e657220616c7265616479206578697374730000000000006044820152606401610805565b6003600c600081546112bd906124a4565b918290555011156113105760405162461bcd60e51b815260206004820152601b60248201527f4d43543a2043616e204f6e6c79204164642033205369676e65727300000000006044820152606401610805565b6001600160a01b0381166000908152600d602052604090819020805460ff19166001179055517f72d4003e8f1ad99f4f488c703a1d183dee364a6337cb77f8fba50088cb0fbfa390610eae908390612125565b61136b611bf6565b6001600160a01b0381166113d05760405162461bcd60e51b815260206004820152602660248201527f4f776e61626c653a206e6577206f776e657220697320746865207a65726f206160448201526564647265737360d01b6064820152608401610805565b6113d981611c50565b50565b6001600160a01b03831661143e5760405162461bcd60e51b8152602060048201526024808201527f45524332303a20617070726f76652066726f6d20746865207a65726f206164646044820152637265737360e01b6064820152608401610805565b6001600160a01b03821661149f5760405162461bcd60e51b815260206004820152602260248201527f45524332303a20617070726f766520746f20746865207a65726f206164647265604482015261737360f01b6064820152608401610805565b6001600160a01b0383811660008181526001602090815260408083209487168084529482529182902085905590518481527f8c5be1e5ebec7d5bd14f71427d1e84f3dd0314c0f7b2291e5b200ac8c7c3b925910160405180910390a3505050565b61152a847f000000000000000000000000000000000000000000000000000000000000000061240d565b421161156e5760405162461bcd60e51b81526020600482015260136024820152721350d50e88131bd8dacb5a5b8814195c9a5bd9606a1b6044820152606401610805565b60008086600614806115805750866007145b1561158d57849150611671565b60008781526006602052604081205481036115dd576115cc877f000000000000000000000000000000000000000000000000000000000000000061240d565b6115d690426125cb565b90506115f9565b6000888152600660205260409020546115f690426125cb565b90505b61160662093a80826125de565b9150600082116116545760405162461bcd60e51b81526020600482015260196024820152781350d50e8810db185a5b4814195c9a5bd908125b9d985b1a59603a1b6044820152606401610805565b600061166086886125de565b905061166c8184612600565b935050505b848211156116955760008781526007602052604090205461169290866125cb565b91505b60008781526007602052604090205485906116b190849061240d565b11156116fa5760405162461bcd60e51b81526020600482015260186024820152771350d50e8810db185a5b48131a5b5a5d0814995858da195960421b6044820152606401610805565b6000878152600760205260408120805484929061171890849061240d565b909155505060008781526006602052604081205490036117875761173f8162093a80612600565b611769877f000000000000000000000000000000000000000000000000000000000000000061240d565b611773919061240d565b6000888152600660205260409020556117b8565b6117948162093a80612600565b600088815260066020526040812080549091906117b290849061240d565b90915550505b60008781526006602052604090204290556117d38383611ca2565b50505050505050565b6001600160a01b0381166000908152600d602052604090205460ff166118445760405162461bcd60e51b815260206004820152601a60248201527f4d43543a205369676e657220646f6573206e6f742065786973740000000000006044820152606401610805565b6002600c6000815461185590612617565b918290555010156118bb5760405162461bcd60e51b815260206004820152602a60248201527f4d43543a205369676e6572732066616c6c2062656c6f77207265717569726564604482015269081d1a1c995cda1bdb1960b21b6064820152608401610805565b60015b600881101561196c57600081815260116020908152604080832080548251818502810185019093528083526119319383018282801561192657602002820191906000526020600020905b81546001600160a01b03168152600190910190602001808311611908575b505050505084611d15565b9050801561195957600082815260106020526040812080549161195383612617565b91905055505b5080611964816124a4565b9150506118be565b50600b80546001600160a01b03191690556001600160a01b0381166000908152600d602052604090819020805460ff19169055517fce376785ca01132d547f73809127e07afeaf9d5e73694947b35137d17332f03a90610eae908390612125565b60006119d984846111ba565b90506000198114611a415781811015611a345760405162461bcd60e51b815260206004820152601d60248201527f45524332303a20696e73756666696369656e7420616c6c6f77616e63650000006044820152606401610805565b611a4184848484036113dc565b50505050565b6001600160a01b038316611aab5760405162461bcd60e51b815260206004820152602560248201527f45524332303a207472616e736665722066726f6d20746865207a65726f206164604482015264647265737360d81b6064820152608401610805565b6001600160a01b038216611b0d5760405162461bcd60e51b815260206004820152602360248201527f45524332303a207472616e7366657220746f20746865207a65726f206164647260448201526265737360e81b6064820152608401610805565b611b18838383611d7a565b6001600160a01b03831660009081526020819052604090205481811015611b905760405162461bcd60e51b815260206004820152602660248201527f45524332303a207472616e7366657220616d6f756e7420657863656564732062604482015265616c616e636560d01b6064820152608401610805565b6001600160a01b03848116600081815260208181526040808320878703905593871680835291849020805487019055925185815290927fddf252ad1be2c89b69c2b068fc378daa952ba7f163c4a11628f55a4df523b3ef910160405180910390a3611a41565b6005546001600160a01b03163314610ff65760405162461bcd60e51b815260206004820181905260248201527f4f776e61626c653a2063616c6c6572206973206e6f7420746865206f776e65726044820152606401610805565b600580546001600160a01b038381166001600160a01b0319831681179093556040519116919082907f8be0079c531659141344cd1fd0a4f28419497f9722a3daafe3b4186f6b6457e090600090a35050565b6b1363156bbee3016d7000000081611cb960025490565b611cc3919061240d565b1115611d0b5760405162461bcd60e51b81526020600482015260176024820152761350d50e8813585e0814dd5c1c1b1e4814995858da1959604a1b6044820152606401610805565b610a688282612028565b6000805b8351811015611d7057826001600160a01b0316848281518110611d3e57611d3e61248e565b60200260200101516001600160a01b031603611d5e5760019150506107d0565b80611d68816124a4565b915050611d19565b5060009392505050565b6001600160a01b03831673910bbe8b14dbe813ea3f0e268058b024bf5301d9148015611db85750826001600160a01b0316826001600160a01b031614155b15611e45576001600160a01b03821660009081526008602052604090205415611e1c5760405162461bcd60e51b815260206004820152601660248201527526a1aa1d1022bc34b9ba34b7339024b73b32b9ba37b960511b6044820152606401610805565b6001600160a01b0382166000908152600860209081526040808320849055600990915290204290555b6001600160a01b03831660009081526008602052604090205415612023576001600160a01b038316600090815260096020526040902054611e899062eff10061240d565b4211611ecd5760405162461bcd60e51b81526020600482015260136024820152721350d50e88131bd8dacb525b8814195c9a5bd9606a1b6044820152606401610805565b6001600160a01b038316600090815260096020526040812054611ef090426125cb565b90506000611f0162093a80836125de565b905060348110611f3c576001600160a01b038516600090815260086020908152604080832083905560098252808320839055600a9091528120555b6034811015612020576001600160a01b038516600090815260086020526040812054611f6a906034906125de565b90506000611f788284612600565b6001600160a01b0388166000908152600a6020526040812080549293508792909190611fa590849061240d565b90915550506001600160a01b0387166000908152600a60205260409020548110156117d35760405162461bcd60e51b815260206004820152602560248201527f4d43543a20457863656564732070726576696f75736c792076657374656420616044820152641b5bdd5b9d60da1b6064820152608401610805565b50505b505050565b6001600160a01b03821661207e5760405162461bcd60e51b815260206004820152601f60248201527f45524332303a206d696e7420746f20746865207a65726f2061646472657373006044820152606401610805565b61208a60008383611d7a565b806002600082825461209c919061240d565b90915550506001600160a01b038216600081815260208181526040808320805486019055518481527fddf252ad1be2c89b69c2b068fc378daa952ba7f163c4a11628f55a4df523b3ef910160405180910390a35050565b50805460008255906000526020600020908101906113d991905b80821115612121576000815560010161210d565b5090565b6001600160a01b0391909116815260200190565b600060208083528351808285015260005b818110156121665785810183015185820160400152820161214a565b506000604082860101526040601f19601f8301168501019250505092915050565b80356001600160a01b038116811461219e57600080fd5b919050565b600080604083850312156121b657600080fd5b6121bf83612187565b946020939093013593505050565b6000602082840312156121df57600080fd5b6121e882612187565b9392505050565b60006020828403121561220157600080fd5b5035919050565b60008060006060848603121561221d57600080fd5b61222684612187565b925061223460208501612187565b9150604084013590509250925092565b634e487b7160e01b600052604160045260246000fd5b60006020828403121561226c57600080fd5b813567ffffffffffffffff8082111561228457600080fd5b818401915084601f83011261229857600080fd5b8135818111156122aa576122aa612244565b604051601f8201601f19908116603f011681019083821181831017156122d2576122d2612244565b816040528281528760208487010111156122eb57600080fd5b826020860160208301376000928101602001929092525095945050505050565b6000806040838503121561231e57600080fd5b61232783612187565b915061233560208401612187565b90509250929050565b600181811c9082168061235257607f821691505b60208210810361237257634e487b7160e01b600052602260045260246000fd5b50919050565b60208082526028908201527f4d43543a204f6e6c79207369676e6572732063616e2063616c6c207468697320604082015267333ab731ba34b7b760c11b606082015260800190565b6020808252601f908201527f4d43543a204f7065726174696f6e20616c72656164792070726f706f73656400604082015260600190565b634e487b7160e01b600052601160045260246000fd5b808201808211156107d0576107d06123f7565b6020808252601b908201527f4d43543a204f7065726174696f6e206e6f742070726f706f7365640000000000604082015260600190565b6020808252601f908201527f4d43543a204f7065726174696f6e20616c726561647920617070726f76656400604082015260600190565b634e487b7160e01b600052603260045260246000fd5b6000600182016124b6576124b66123f7565b5060010190565b601f82111561202357600081815260208120601f850160051c810160208610156124e45750805b601f850160051c820191505b81811015612503578281556001016124f0565b505050505050565b815167ffffffffffffffff81111561252557612525612244565b61253981612533845461233e565b846124bd565b602080601f83116001811461256e57600084156125565750858301515b600019600386901b1c1916600185901b178555612503565b600085815260208120601f198616915b8281101561259d5788860151825594840194600190910190840161257e565b50858210156125bb5787850151600019600388901b60f8161c191681555b5050505050600190811b01905550565b818103818111156107d0576107d06123f7565b6000826125fb57634e487b7160e01b600052601260045260246000fd5b500490565b80820281158282048414176107d0576107d06123f7565b600081612626576126266123f7565b50600019019056fea2646970667358221220ffeac35f2fc0fb82719700658bd1181eee8e9b122f4c166e595a7a575c7ce8a364736f6c63430008110033",
  "linkReferences": {},
  "deployedLinkReferences": {}
}