{
  "_format": "hh-sol-artifact-1",
  "contractName": "MCT",
  "sourceName": "contracts/token/MCT.sol",
  "abi": [
    {
      "inputs": [
        {
          "internalType": "string",
          "name": "name_",
          "type": "string"
        },
        {
          "internalType": "string",
          "name": "symbol_",
          "type": "string"
        }
      ],
      "stateMutability": "nonpayable",
      "type": "constructor"
    },
    {
      "anonymous": false,
      "inputs": [
        {
          "indexed": true,
          "internalType": "address",
          "name": "owner",
          "type": "address"
        },
        {
          "indexed": true,
          "internalType": "address",
          "name": "spender",
          "type": "address"
        },
        {
          "indexed": false,
          "internalType": "uint256",
          "name": "value",
          "type": "uint256"
        }
      ],
      "name": "Approval",
      "type": "event"
    },
    {
      "anonymous": false,
      "inputs": [
        {
          "indexed": false,
          "internalType": "string",
          "name": "addresses",
          "type": "string"
        }
      ],
      "name": "MultiSignerAddressesUpdated",
      "type": "event"
    },
    {
      "anonymous": false,
      "inputs": [
        {
          "indexed": false,
          "internalType": "address",
          "name": "newSigner",
          "type": "address"
        }
      ],
      "name": "NewSignerAdded",
      "type": "event"
    },
    {
      "anonymous": false,
      "inputs": [
        {
          "indexed": false,
          "internalType": "address",
          "name": "oldSigner",
          "type": "address"
        }
      ],
      "name": "OldSignerRemoved",
      "type": "event"
    },
    {
      "anonymous": false,
      "inputs": [
        {
          "indexed": true,
          "internalType": "address",
          "name": "previousOwner",
          "type": "address"
        },
        {
          "indexed": true,
          "internalType": "address",
          "name": "newOwner",
          "type": "address"
        }
      ],
      "name": "OwnershipTransferred",
      "type": "event"
    },
    {
      "anonymous": false,
      "inputs": [
        {
          "indexed": false,
          "internalType": "string",
          "name": "newPlan",
          "type": "string"
        }
      ],
      "name": "TokenDistributionPlanUpdate",
      "type": "event"
    },
    {
      "anonymous": false,
      "inputs": [
        {
          "indexed": true,
          "internalType": "address",
          "name": "from",
          "type": "address"
        },
        {
          "indexed": true,
          "internalType": "address",
          "name": "to",
          "type": "address"
        },
        {
          "indexed": false,
          "internalType": "uint256",
          "name": "value",
          "type": "uint256"
        }
      ],
      "name": "Transfer",
      "type": "event"
    },
    {
      "inputs": [],
      "name": "AIRDROP_ALLOCATION",
      "outputs": [
        {
          "internalType": "uint256",
          "name": "",
          "type": "uint256"
        }
      ],
      "stateMutability": "view",
      "type": "function"
    },
    {
      "inputs": [],
      "name": "AIRDROP_POOL_RECEIVER",
      "outputs": [
        {
          "internalType": "address",
          "name": "",
          "type": "address"
        }
      ],
      "stateMutability": "view",
      "type": "function"
    },
    {
      "inputs": [],
      "name": "AIRDROP_VESTING",
      "outputs": [
        {
          "internalType": "uint256",
          "name": "",
          "type": "uint256"
        }
      ],
      "stateMutability": "view",
      "type": "function"
    },
    {
      "inputs": [],
      "name": "INITIAL_SUPPLY_ALLOCATION",
      "outputs": [
        {
          "internalType": "uint256",
          "name": "",
          "type": "uint256"
        }
      ],
      "stateMutability": "view",
      "type": "function"
    },
    {
      "inputs": [],
      "name": "INITIAL_SUPPLY_RECEIVER",
      "outputs": [
        {
          "internalType": "address",
          "name": "",
          "type": "address"
        }
      ],
      "stateMutability": "view",
      "type": "function"
    },
    {
      "inputs": [],
      "name": "INVESTOR_ALLOCATION",
      "outputs": [
        {
          "internalType": "uint256",
          "name": "",
          "type": "uint256"
        }
      ],
      "stateMutability": "view",
      "type": "function"
    },
    {
      "inputs": [],
      "name": "INVESTOR_POOL_RECEIVER",
      "outputs": [
        {
          "internalType": "address",
          "name": "",
          "type": "address"
        }
      ],
      "stateMutability": "view",
      "type": "function"
    },
    {
      "inputs": [],
      "name": "MAX_SUPPLY",
      "outputs": [
        {
          "internalType": "uint256",
          "name": "",
          "type": "uint256"
        }
      ],
      "stateMutability": "view",
      "type": "function"
    },
    {
      "inputs": [],
      "name": "MINING_POOL_ALLOCATION",
      "outputs": [
        {
          "internalType": "uint256",
          "name": "",
          "type": "uint256"
        }
      ],
      "stateMutability": "view",
      "type": "function"
    },
    {
      "inputs": [],
      "name": "MINING_POOL_RECEIVER",
      "outputs": [
        {
          "internalType": "address",
          "name": "",
          "type": "address"
        }
      ],
      "stateMutability": "view",
      "type": "function"
    },
    {
      "inputs": [],
      "name": "MINING_POOL_VESTING",
      "outputs": [
        {
          "internalType": "uint256",
          "name": "",
          "type": "uint256"
        }
      ],
      "stateMutability": "view",
      "type": "function"
    },
    {
      "inputs": [],
      "name": "OPERATIONAL_POOL_ALLOCATION",
      "outputs": [
        {
          "internalType": "uint256",
          "name": "",
          "type": "uint256"
        }
      ],
      "stateMutability": "view",
      "type": "function"
    },
    {
      "inputs": [],
      "name": "OPERATIONAL_POOL_RECEIVER",
      "outputs": [
        {
          "internalType": "address",
          "name": "",
          "type": "address"
        }
      ],
      "stateMutability": "view",
      "type": "function"
    },
    {
      "inputs": [],
      "name": "OPERATIONAL_POOL_VESTING",
      "outputs": [
        {
          "internalType": "uint256",
          "name": "",
          "type": "uint256"
        }
      ],
      "stateMutability": "view",
      "type": "function"
    },
    {
      "inputs": [],
      "name": "RESERVE_POOL_ALLOCATION",
      "outputs": [
        {
          "internalType": "uint256",
          "name": "",
          "type": "uint256"
        }
      ],
      "stateMutability": "view",
      "type": "function"
    },
    {
      "inputs": [],
      "name": "RESERVE_POOL_LOCKUP",
      "outputs": [
        {
          "internalType": "uint256",
          "name": "",
          "type": "uint256"
        }
      ],
      "stateMutability": "view",
      "type": "function"
    },
    {
      "inputs": [],
      "name": "RESERVE_POOL_RECEIVER",
      "outputs": [
        {
          "internalType": "address",
          "name": "",
          "type": "address"
        }
      ],
      "stateMutability": "view",
      "type": "function"
    },
    {
      "inputs": [],
      "name": "RESERVE_POOL_VESTING",
      "outputs": [
        {
          "internalType": "uint256",
          "name": "",
          "type": "uint256"
        }
      ],
      "stateMutability": "view",
      "type": "function"
    },
    {
      "inputs": [],
      "name": "START_TIME",
      "outputs": [
        {
          "internalType": "uint256",
          "name": "",
          "type": "uint256"
        }
      ],
      "stateMutability": "view",
      "type": "function"
    },
    {
      "inputs": [],
      "name": "TEAM_ALLOCATION",
      "outputs": [
        {
          "internalType": "uint256",
          "name": "",
          "type": "uint256"
        }
      ],
      "stateMutability": "view",
      "type": "function"
    },
    {
      "inputs": [],
      "name": "TEAM_LOCKUP",
      "outputs": [
        {
          "internalType": "uint256",
          "name": "",
          "type": "uint256"
        }
      ],
      "stateMutability": "view",
      "type": "function"
    },
    {
      "inputs": [],
      "name": "TEAM_RECEIVER",
      "outputs": [
        {
          "internalType": "address",
          "name": "",
          "type": "address"
        }
      ],
      "stateMutability": "view",
      "type": "function"
    },
    {
      "inputs": [],
      "name": "TEAM_VESTING",
      "outputs": [
        {
          "internalType": "uint256",
          "name": "",
          "type": "uint256"
        }
      ],
      "stateMutability": "view",
      "type": "function"
    },
    {
      "inputs": [
        {
          "internalType": "address",
          "name": "newSigner",
          "type": "address"
        }
      ],
      "name": "addSigner",
      "outputs": [],
      "stateMutability": "nonpayable",
      "type": "function"
    },
    {
      "inputs": [
        {
          "internalType": "address",
          "name": "owner",
          "type": "address"
        },
        {
          "internalType": "address",
          "name": "spender",
          "type": "address"
        }
      ],
      "name": "allowance",
      "outputs": [
        {
          "internalType": "uint256",
          "name": "",
          "type": "uint256"
        }
      ],
      "stateMutability": "view",
      "type": "function"
    },
    {
      "inputs": [
        {
          "internalType": "address",
          "name": "spender",
          "type": "address"
        },
        {
          "internalType": "uint256",
          "name": "amount",
          "type": "uint256"
        }
      ],
      "name": "approve",
      "outputs": [
        {
          "internalType": "bool",
          "name": "",
          "type": "bool"
        }
      ],
      "stateMutability": "nonpayable",
      "type": "function"
    },
    {
      "inputs": [
        {
          "internalType": "uint256",
          "name": "operationId",
          "type": "uint256"
        }
      ],
      "name": "approveOperation",
      "outputs": [],
      "stateMutability": "nonpayable",
      "type": "function"
    },
    {
      "inputs": [
        {
          "internalType": "address",
          "name": "account",
          "type": "address"
        }
      ],
      "name": "balanceOf",
      "outputs": [
        {
          "internalType": "uint256",
          "name": "",
          "type": "uint256"
        }
      ],
      "stateMutability": "view",
      "type": "function"
    },
    {
      "inputs": [
        {
          "internalType": "uint256",
          "name": "operationId",
          "type": "uint256"
        }
      ],
      "name": "cancelOperation",
      "outputs": [],
      "stateMutability": "nonpayable",
      "type": "function"
    },
    {
      "inputs": [],
      "name": "decimals",
      "outputs": [
        {
          "internalType": "uint8",
          "name": "",
          "type": "uint8"
        }
      ],
      "stateMutability": "view",
      "type": "function"
    },
    {
      "inputs": [
        {
          "internalType": "address",
          "name": "spender",
          "type": "address"
        },
        {
          "internalType": "uint256",
          "name": "subtractedValue",
          "type": "uint256"
        }
      ],
      "name": "decreaseAllowance",
      "outputs": [
        {
          "internalType": "bool",
          "name": "",
          "type": "bool"
        }
      ],
      "stateMutability": "nonpayable",
      "type": "function"
    },
    {
      "inputs": [
        {
          "internalType": "uint256",
          "name": "operationId",
          "type": "uint256"
        }
      ],
      "name": "executeOperation",
      "outputs": [],
      "stateMutability": "nonpayable",
      "type": "function"
    },
    {
      "inputs": [
        {
          "internalType": "address",
          "name": "spender",
          "type": "address"
        },
        {
          "internalType": "uint256",
          "name": "addedValue",
          "type": "uint256"
        }
      ],
      "name": "increaseAllowance",
      "outputs": [
        {
          "internalType": "bool",
          "name": "",
          "type": "bool"
        }
      ],
      "stateMutability": "nonpayable",
      "type": "function"
    },
    {
      "inputs": [
        {
          "internalType": "address",
          "name": "",
          "type": "address"
        }
      ],
      "name": "investedAmountTransferred",
      "outputs": [
        {
          "internalType": "uint256",
          "name": "",
          "type": "uint256"
        }
      ],
      "stateMutability": "view",
      "type": "function"
    },
    {
      "inputs": [
        {
          "internalType": "address",
          "name": "",
          "type": "address"
        }
      ],
      "name": "investedAt",
      "outputs": [
        {
          "internalType": "uint256",
          "name": "",
          "type": "uint256"
        }
      ],
      "stateMutability": "view",
      "type": "function"
    },
    {
      "inputs": [
        {
          "internalType": "address",
          "name": "",
          "type": "address"
        }
      ],
      "name": "investment",
      "outputs": [
        {
          "internalType": "uint256",
          "name": "",
          "type": "uint256"
        }
      ],
      "stateMutability": "view",
      "type": "function"
    },
    {
      "inputs": [
        {
          "internalType": "address",
          "name": "",
          "type": "address"
        }
      ],
      "name": "isSigner",
      "outputs": [
        {
          "internalType": "bool",
          "name": "",
          "type": "bool"
        }
      ],
      "stateMutability": "view",
      "type": "function"
    },
    {
      "inputs": [],
      "name": "multiSigAddressesLink",
      "outputs": [
        {
          "internalType": "string",
          "name": "",
          "type": "string"
        }
      ],
      "stateMutability": "view",
      "type": "function"
    },
    {
      "inputs": [],
      "name": "name",
      "outputs": [
        {
          "internalType": "string",
          "name": "",
          "type": "string"
        }
      ],
      "stateMutability": "view",
      "type": "function"
    },
    {
      "inputs": [],
      "name": "owner",
      "outputs": [
        {
          "internalType": "address",
          "name": "",
          "type": "address"
        }
      ],
      "stateMutability": "view",
      "type": "function"
    },
    {
      "inputs": [
        {
          "internalType": "uint256",
          "name": "",
          "type": "uint256"
        }
      ],
      "name": "poolClaimedAmount",
      "outputs": [
        {
          "internalType": "uint256",
          "name": "",
          "type": "uint256"
        }
      ],
      "stateMutability": "view",
      "type": "function"
    },
    {
      "inputs": [
        {
          "internalType": "uint256",
          "name": "",
          "type": "uint256"
        }
      ],
      "name": "poolLastClaimTime",
      "outputs": [
        {
          "internalType": "uint256",
          "name": "",
          "type": "uint256"
        }
      ],
      "stateMutability": "view",
      "type": "function"
    },
    {
      "inputs": [
        {
          "internalType": "uint256",
          "name": "operationId",
          "type": "uint256"
        }
      ],
      "name": "proposeOperation",
      "outputs": [],
      "stateMutability": "nonpayable",
      "type": "function"
    },
    {
      "inputs": [
        {
          "internalType": "address",
          "name": "signerToRemove",
          "type": "address"
        }
      ],
      "name": "removeSigner",
      "outputs": [],
      "stateMutability": "nonpayable",
      "type": "function"
    },
    {
      "inputs": [],
      "name": "renounceOwnership",
      "outputs": [],
      "stateMutability": "nonpayable",
      "type": "function"
    },
    {
      "inputs": [
        {
          "internalType": "string",
          "name": "link",
          "type": "string"
        }
      ],
      "name": "setMultiSigAddressesLink",
      "outputs": [],
      "stateMutability": "nonpayable",
      "type": "function"
    },
    {
      "inputs": [
        {
          "internalType": "string",
          "name": "link",
          "type": "string"
        }
      ],
      "name": "setTokenDistributionPlanLink",
      "outputs": [],
      "stateMutability": "nonpayable",
      "type": "function"
    },
    {
      "inputs": [],
      "name": "signersCount",
      "outputs": [
        {
          "internalType": "uint256",
          "name": "",
          "type": "uint256"
        }
      ],
      "stateMutability": "view",
      "type": "function"
    },
    {
      "inputs": [],
      "name": "symbol",
      "outputs": [
        {
          "internalType": "string",
          "name": "",
          "type": "string"
        }
      ],
      "stateMutability": "view",
      "type": "function"
    },
    {
      "inputs": [],
      "name": "tokenDistributionPlanLink",
      "outputs": [
        {
          "internalType": "string",
          "name": "",
          "type": "string"
        }
      ],
      "stateMutability": "view",
      "type": "function"
    },
    {
      "inputs": [],
      "name": "totalSupply",
      "outputs": [
        {
          "internalType": "uint256",
          "name": "",
          "type": "uint256"
        }
      ],
      "stateMutability": "view",
      "type": "function"
    },
    {
      "inputs": [
        {
          "internalType": "address",
          "name": "to",
          "type": "address"
        },
        {
          "internalType": "uint256",
          "name": "amount",
          "type": "uint256"
        }
      ],
      "name": "transfer",
      "outputs": [
        {
          "internalType": "bool",
          "name": "",
          "type": "bool"
        }
      ],
      "stateMutability": "nonpayable",
      "type": "function"
    },
    {
      "inputs": [
        {
          "internalType": "address",
          "name": "from",
          "type": "address"
        },
        {
          "internalType": "address",
          "name": "to",
          "type": "address"
        },
        {
          "internalType": "uint256",
          "name": "amount",
          "type": "uint256"
        }
      ],
      "name": "transferFrom",
      "outputs": [
        {
          "internalType": "bool",
          "name": "",
          "type": "bool"
        }
      ],
      "stateMutability": "nonpayable",
      "type": "function"
    },
    {
      "inputs": [
        {
          "internalType": "address",
          "name": "newOwner",
          "type": "address"
        }
      ],
      "name": "transferOwnership",
      "outputs": [],
      "stateMutability": "nonpayable",
      "type": "function"
    }
  ],
  "bytecode": "0x60a06040523480156200001157600080fd5b50604051620027bb380380620027bb833981016040819052620000349162000242565b818160036200004483826200033b565b5060046200005382826200033b565b505050620000706200006a6200012760201b60201c565b6200012b565b6b1363156bbee3016d700000006a94e47b8d681715340000006a31a17e847807b1bc0000006b015b6a759f4835dc24000000806b025391ee35a05c54d0000000620000d46b01f04ef12cb04cf1580000006b0ba1d9a70c21cda81000000062000407565b620000e0919062000407565b620000ec919062000407565b620000f8919062000407565b62000104919062000407565b62000110919062000407565b146200011b57600080fd5b5050426080526200042f565b3390565b600580546001600160a01b038381166001600160a01b0319831681179093556040519116919082907f8be0079c531659141344cd1fd0a4f28419497f9722a3daafe3b4186f6b6457e090600090a35050565b634e487b7160e01b600052604160045260246000fd5b600082601f830112620001a557600080fd5b81516001600160401b0380821115620001c257620001c26200017d565b604051601f8301601f19908116603f01168101908282118183101715620001ed57620001ed6200017d565b816040528381526020925086838588010111156200020a57600080fd5b600091505b838210156200022e57858201830151818301840152908201906200020f565b600093810190920192909252949350505050565b600080604083850312156200025657600080fd5b82516001600160401b03808211156200026e57600080fd5b6200027c8683870162000193565b935060208501519150808211156200029357600080fd5b50620002a28582860162000193565b9150509250929050565b600181811c90821680620002c157607f821691505b602082108103620002e257634e487b7160e01b600052602260045260246000fd5b50919050565b601f8211156200033657600081815260208120601f850160051c81016020861015620003115750805b601f850160051c820191505b8181101562000332578281556001016200031d565b5050505b505050565b81516001600160401b038111156200035757620003576200017d565b6200036f81620003688454620002ac565b84620002e8565b602080601f831160018114620003a757600084156200038e5750858301515b600019600386901b1c1916600185901b17855562000332565b600085815260208120601f198616915b82811015620003d857888601518255948401946001909101908401620003b7565b5085821015620003f75787850151600019600388901b60f8161c191681555b5050505050600190811b01905550565b808201808211156200042957634e487b7160e01b600052601160045260246000fd5b92915050565b608051612362620004596000396000818161066c01528181611580015261162001526123626000f3fe608060405234801561001057600080fd5b50600436106102e25760003560e01c80638da5cb5b11610188578063ba558d61116100e4578063e2571f5d11610092578063e2571f5d146106a9578063e40956b1146106bb578063eb12d61e146106c4578063f2fde38b146106d7578063f76b8fe2146106ea578063fd99cbed146105f8578063feeee0071461070a57600080fd5b8063ba558d61146105f8578063bea060161461060b578063cb4b4ff914610626578063d95e277a14610639578063dd62ed3e14610654578063ddaa26ad14610667578063df5e84521461068e57600080fd5b8063a9059cbb11610141578063a9059cbb1461057b578063aaff1f181461058e578063ac0b235314610596578063b16179bf146105a1578063b179fa72146105aa578063b4e5df40146105ca578063b6ef599c146105dd57600080fd5b80638da5cb5b1461052157806393ad411a146103c157806395d89b41146105325780639e3299f21461053a578063a340a01714610555578063a457c2d71461056857600080fd5b8063374b227d116102425780636338c7e9116101f05780636338c7e91461048557806370a082311461048d578063715018a6146104b65780637df73e27146104be578063831edebe146104e157806387bdc093146104fc5780638c3662141461050e57600080fd5b8063374b227d1461041e57806338a418b01461042657806339509351146104395780634ca6a0941461044c5780634d703b6a1461045f5780635c5dd2221461046a5780635c9452271461047257600080fd5b806316a38f1f1161029f57806316a38f1f146103a657806318160ddd146103b95780631940ca17146103c157806323b872dd146103c9578063313ce567146103dc57806332cb6b0c146103eb57806334ab8299146103fe57600080fd5b80630399516d146102e757806306fdde0314610318578063095ea7b31461032d5780630bd18d7a146103505780630e316ab71461037e5780630e70306d14610393575b600080fd5b61030273a0b9fe04f0e6e44e42c90cfe30507769e91c191981565b60405161030f9190611e62565b60405180910390f35b61032061072a565b60405161030f9190611e76565b61034061033b366004611ee0565b6107bc565b604051901515815260200161030f565b61037061035e366004611f0a565b60086020526000908152604090205481565b60405190815260200161030f565b61039161038c366004611f0a565b6107d6565b005b6103916103a1366004611f2c565b61091d565b6103916103b4366004611f2c565b610c30565b600254610370565b610370609c81565b6103406103d7366004611f45565b610e0b565b6040516012815260200161030f565b6103706b1363156bbee3016d7000000081565b61037061040c366004611f0a565b600a6020526000908152604090205481565b610320610e2f565b610391610434366004611f97565b610ebd565b610340610447366004611ee0565b610f01565b6103706b0ba1d9a70c21cda81000000081565b6103706303bfc40081565b610320610f23565b610391610480366004611f2c565b610f30565b610370606881565b61037061049b366004611f0a565b6001600160a01b031660009081526020819052604090205490565b61039161102c565b6103406104cc366004611f0a565b600d6020526000908152604090205460ff1681565b61030273910bbe8b14dbe813ea3f0e268058b024bf5301d981565b6103706a31a17e847807b1bc00000081565b61039161051c366004611f2c565b611040565b6005546001600160a01b0316610302565b6103206110fe565b61030273f32fb437a2768f02fada4d97abe76d8f306f44fe81565b610391610563366004611f97565b61110d565b610340610576366004611ee0565b611151565b610340610589366004611ee0565b6111cc565b610370603481565b6103706301dfe20081565b61037061020881565b6103706105b8366004611f2c565b60066020526000908152604090205481565b6103706b025391ee35a05c54d000000081565b61030273d1e532c785deec90c1c69c7c5a7dcd28a8f7424881565b6103706b015b6a759f4835dc2400000081565b610302738a83d34fa97910b0786d8dab29c5f3aca5c1cc7681565b6103706b01f04ef12cb04cf15800000081565b61030273b54e1c4b3927f4489ead5c149b7895ecd03a5ce081565b610370610662366004612048565b6111da565b6103707f000000000000000000000000000000000000000000000000000000000000000081565b610302738824fe9fa03d3716a762375867fac2052cd54a8c81565b6103706a94e47b8d6817153400000081565b610370600b5481565b6103916106d2366004611f0a565b611205565b6103916106e5366004611f0a565b611383565b6103706106f8366004611f0a565b60096020526000908152604090205481565b610370610718366004611f2c565b60076020526000908152604090205481565b6060600380546107399061207b565b80601f01602080910402602001604051908101604052809291908181526020018280546107659061207b565b80156107b25780601f10610787576101008083540402835291602001916107b2565b820191906000526020600020905b81548152906001019060200180831161079557829003601f168201915b5050505050905090565b6000336107ca8185856113fc565b60019150505b92915050565b6107de611520565b6001600160a01b0381166000908152600d602052604090205460ff1661084b5760405162461bcd60e51b815260206004820152601a60248201527f4d43543a205369676e657220646f6573206e6f7420657869737400000000000060448201526064015b60405180910390fd5b6002600b6000815461085c906120cb565b918290555010156108c25760405162461bcd60e51b815260206004820152602a60248201527f4d43543a205369676e6572732066616c6c2062656c6f77207265717569726564604482015269081d1a1c995cda1bdb1960b21b6064820152608401610842565b6001600160a01b0381166000908152600d602052604090819020805460ff19169055517fce376785ca01132d547f73809127e07afeaf9d5e73694947b35137d17332f03a90610912908390611e62565b60405180910390a150565b336000908152600d602052604090205460ff1661094c5760405162461bcd60e51b8152600401610842906120e2565b6000818152600f6020526040902054819061096b906202a3009061212a565b42116109c55760405162461bcd60e51b8152602060048201526024808201527f4d43543a2054696d656c6f636b20706572696f64206e6f7420796574206578706044820152631a5c995960e21b6064820152608401610842565b6000828152600e602052604090205460ff166109f35760405162461bcd60e51b81526004016108429061213d565b60008281526010602052604090205460021115610a625760405162461bcd60e51b815260206004820152602760248201527f4d43543a204e6f7420656e6f75676820617070726f76616c7320666f72206f7060448201526632b930ba34b7b760c91b6064820152608401610842565b6000828152600e60209081526040808320805460ff19169055600f82528083208390556010825280832083905560119091528120610a9f91611e30565b81600103610adc57610ad8600160006b0ba1d9a70c21cda81000000061020873b54e1c4b3927f4489ead5c149b7895ecd03a5ce061157a565b5050565b81600203610b1457610ad8600260006b01f04ef12cb04cf158000000603473f32fb437a2768f02fada4d97abe76d8f306f44fe61157a565b81600303610b4f57610ad860036303bfc4006b025391ee35a05c54d0000000606873d1e532c785deec90c1c69c7c5a7dcd28a8f7424861157a565b81600403610b8757610ad8600460006b015b6a759f4835dc24000000609c73a0b9fe04f0e6e44e42c90cfe30507769e91c191961157a565b81600503610bc257610ad860056301dfe2006b015b6a759f4835dc24000000609c738a83d34fa97910b0786d8dab29c5f3aca5c1cc7661157a565b81600603610bf957610ad8600660006a31a17e847807b1bc0000006001738824fe9fa03d3716a762375867fac2052cd54a8c61157a565b81600703610ad857610ad8600760006a94e47b8d68171534000000600173910bbe8b14dbe813ea3f0e268058b024bf5301d961157a565b336000908152600d602052604090205460ff16610c5f5760405162461bcd60e51b8152600401610842906120e2565b6000818152600e602052604090205460ff16610c8d5760405162461bcd60e51b81526004016108429061213d565b600081815260106020526040902054600211610cbb5760405162461bcd60e51b815260040161084290612174565b600081815260116020908152604080832080548251818502810185019093528083529192909190830182828015610d1b57602002820191906000526020600020905b81546001600160a01b03168152600190910190602001808311610cfd575b5050505050905060005b8151811015610dba57336001600160a01b0316828281518110610d4a57610d4a6121ab565b60200260200101516001600160a01b031603610da85760405162461bcd60e51b815260206004820152601a60248201527f4d43543a205369676e657220616c7265616479207369676e65640000000000006044820152606401610842565b80610db2816121c1565b915050610d25565b506000828152601060205260408120805491610dd5836121c1565b90915550505060009081526011602090815260408220805460018101825590835291200180546001600160a01b03191633179055565b600033610e198582856117c6565b610e24858585611840565b506001949350505050565b60128054610e3c9061207b565b80601f0160208091040260200160405190810160405280929190818152602001828054610e689061207b565b8015610eb55780601f10610e8a57610100808354040283529160200191610eb5565b820191906000526020600020905b815481529060010190602001808311610e9857829003601f168201915b505050505081565b610ec5611520565b6012610ed18282612220565b507f244b98c0deef2393ec403278ed60386765b5d6f59f3e4412c8909d0de66b2021816040516109129190611e76565b6000336107ca818585610f1483836111da565b610f1e919061212a565b6113fc565b60138054610e3c9061207b565b610f38611520565b6000818152600f6020526040902054610f55906203f4809061212a565b4211610fa35760405162461bcd60e51b815260206004820181905260248201527f4d43543a204f7065726174696f6e206f7574206f662074696d6520626f756e646044820152606401610842565b600081815260106020526040902054600211610fd15760405162461bcd60e51b815260040161084290612174565b6000818152600e602052604090205460ff16610fff5760405162461bcd60e51b81526004016108429061213d565b6000908152600e60209081526040808320805460ff19169055600f82528083208390556010909152812055565b611034611520565b61103e60006119ef565b565b336000908152600d602052604090205460ff1661106f5760405162461bcd60e51b8152600401610842906120e2565b6000818152600e602052604090205460ff16156110ce5760405162461bcd60e51b815260206004820152601f60248201527f4d43543a204f7065726174696f6e20616c72656164792070726f706f736564006044820152606401610842565b6000908152600e60209081526040808320805460ff19166001179055600f82528083204290556010909152812055565b6060600480546107399061207b565b611115611520565b60136111218282612220565b507fe0ab386401771f5a4e068348a2d8e279b1530d152681890b0d3243c96b2cc78b816040516109129190611e76565b6000338161115f82866111da565b9050838110156111bf5760405162461bcd60e51b815260206004820152602560248201527f45524332303a2064656372656173656420616c6c6f77616e63652062656c6f77604482015264207a65726f60d81b6064820152608401610842565b610e2482868684036113fc565b6000336107ca818585611840565b6001600160a01b03918216600090815260016020908152604080832093909416825291909152205490565b61120d611520565b6001600160a01b0381166112635760405162461bcd60e51b815260206004820152601b60248201527f4d43543a20496e76616c6964207369676e6572206164647265737300000000006044820152606401610842565b6001600160a01b0381166000908152600d602052604090205460ff16156112cc5760405162461bcd60e51b815260206004820152601a60248201527f4d43543a205369676e657220616c7265616479206578697374730000000000006044820152606401610842565b6003600b600081546112dd906121c1565b918290555011156113305760405162461bcd60e51b815260206004820152601b60248201527f4d43543a2043616e204f6e6c79204164642033205369676e65727300000000006044820152606401610842565b6001600160a01b0381166000908152600d602052604090819020805460ff19166001179055517f72d4003e8f1ad99f4f488c703a1d183dee364a6337cb77f8fba50088cb0fbfa390610912908390611e62565b61138b611520565b6001600160a01b0381166113f05760405162461bcd60e51b815260206004820152602660248201527f4f776e61626c653a206e6577206f776e657220697320746865207a65726f206160448201526564647265737360d01b6064820152608401610842565b6113f9816119ef565b50565b6001600160a01b03831661145e5760405162461bcd60e51b8152602060048201526024808201527f45524332303a20617070726f76652066726f6d20746865207a65726f206164646044820152637265737360e01b6064820152608401610842565b6001600160a01b0382166114bf5760405162461bcd60e51b815260206004820152602260248201527f45524332303a20617070726f766520746f20746865207a65726f206164647265604482015261737360f01b6064820152608401610842565b6001600160a01b0383811660008181526001602090815260408083209487168084529482529182902085905590518481527f8c5be1e5ebec7d5bd14f71427d1e84f3dd0314c0f7b2291e5b200ac8c7c3b925910160405180910390a3505050565b6005546001600160a01b0316331461103e5760405162461bcd60e51b815260206004820181905260248201527f4f776e61626c653a2063616c6c6572206973206e6f7420746865206f776e65726044820152606401610842565b6115a4847f000000000000000000000000000000000000000000000000000000000000000061212a565b42116115e85760405162461bcd60e51b81526020600482015260136024820152721350d50e88131bd8dacb5a5b8814195c9a5bd9606a1b6044820152606401610842565b600085600614806115f95750856007145b156116055750826116f7565b600086815260066020526040812054810361165557611644867f000000000000000000000000000000000000000000000000000000000000000061212a565b61164e90426122e0565b905061167c565b60008781526006602052604090205461166f90879061212a565b61167990426122e0565b90505b600061168b62093a80836122f3565b9050600081116116d95760405162461bcd60e51b81526020600482015260196024820152781350d50e8810db185a5b4814195c9a5bd908125b9d985b1a59603a1b6044820152606401610842565b60006116e586886122f3565b90506116f18183612315565b93505050505b8381111561171b5760008681526007602052604090205461171890856122e0565b90505b600086815260076020526040902054849061173790839061212a565b11156117805760405162461bcd60e51b81526020600482015260186024820152771350d50e8810db185a5b48131a5b5a5d0814995858da195960421b6044820152606401610842565b6000868152600760205260408120805483929061179e90849061212a565b909155505060008681526006602052604090204290556117be8282611a41565b505050505050565b60006117d284846111da565b9050600019811461183a578181101561182d5760405162461bcd60e51b815260206004820152601d60248201527f45524332303a20696e73756666696369656e7420616c6c6f77616e63650000006044820152606401610842565b61183a84848484036113fc565b50505050565b6001600160a01b0383166118a45760405162461bcd60e51b815260206004820152602560248201527f45524332303a207472616e736665722066726f6d20746865207a65726f206164604482015264647265737360d81b6064820152608401610842565b6001600160a01b0382166119065760405162461bcd60e51b815260206004820152602360248201527f45524332303a207472616e7366657220746f20746865207a65726f206164647260448201526265737360e81b6064820152608401610842565b611911838383611ab4565b6001600160a01b038316600090815260208190526040902054818110156119895760405162461bcd60e51b815260206004820152602660248201527f45524332303a207472616e7366657220616d6f756e7420657863656564732062604482015265616c616e636560d01b6064820152608401610842565b6001600160a01b03848116600081815260208181526040808320878703905593871680835291849020805487019055925185815290927fddf252ad1be2c89b69c2b068fc378daa952ba7f163c4a11628f55a4df523b3ef910160405180910390a361183a565b600580546001600160a01b038381166001600160a01b0319831681179093556040519116919082907f8be0079c531659141344cd1fd0a4f28419497f9722a3daafe3b4186f6b6457e090600090a35050565b6b1363156bbee3016d7000000081611a5860025490565b611a62919061212a565b1115611aaa5760405162461bcd60e51b81526020600482015260176024820152761350d50e8813585e0814dd5c1c1b1e4814995858da1959604a1b6044820152606401610842565b610ad88282611d65565b6001600160a01b03831673910bbe8b14dbe813ea3f0e268058b024bf5301d9148015611af25750826001600160a01b0316826001600160a01b031614155b15611b7f576001600160a01b03821660009081526008602052604090205415611b565760405162461bcd60e51b815260206004820152601660248201527526a1aa1d1022bc34b9ba34b7339024b73b32b9ba37b960511b6044820152606401610842565b6001600160a01b0382166000908152600860209081526040808320849055600990915290204290555b6001600160a01b03831660009081526008602052604090205415611d60576001600160a01b038316600090815260096020526040902054611bc39062eff10061212a565b4211611c075760405162461bcd60e51b81526020600482015260136024820152721350d50e88131bd8dacb525b8814195c9a5bd9606a1b6044820152606401610842565b6001600160a01b038316600090815260096020526040812054611c2a90426122e0565b90506000611c3b62093a80836122f3565b905060348110611c76576001600160a01b038516600090815260086020908152604080832083905560098252808320839055600a9091528120555b6034811015611d5d576001600160a01b038516600090815260086020526040812054611ca4906034906122f3565b90506000611cb28284612315565b6001600160a01b0388166000908152600a6020526040812080549293508792909190611cdf90849061212a565b90915550506001600160a01b0387166000908152600a6020526040902054811015611d5a5760405162461bcd60e51b815260206004820152602560248201527f4d43543a20457863656564732070726576696f75736c792076657374656420616044820152641b5bdd5b9d60da1b6064820152608401610842565b50505b50505b505050565b6001600160a01b038216611dbb5760405162461bcd60e51b815260206004820152601f60248201527f45524332303a206d696e7420746f20746865207a65726f2061646472657373006044820152606401610842565b611dc760008383611ab4565b8060026000828254611dd9919061212a565b90915550506001600160a01b038216600081815260208181526040808320805486019055518481527fddf252ad1be2c89b69c2b068fc378daa952ba7f163c4a11628f55a4df523b3ef910160405180910390a35050565b50805460008255906000526020600020908101906113f991905b80821115611e5e5760008155600101611e4a565b5090565b6001600160a01b0391909116815260200190565b600060208083528351808285015260005b81811015611ea357858101830151858201604001528201611e87565b506000604082860101526040601f19601f8301168501019250505092915050565b80356001600160a01b0381168114611edb57600080fd5b919050565b60008060408385031215611ef357600080fd5b611efc83611ec4565b946020939093013593505050565b600060208284031215611f1c57600080fd5b611f2582611ec4565b9392505050565b600060208284031215611f3e57600080fd5b5035919050565b600080600060608486031215611f5a57600080fd5b611f6384611ec4565b9250611f7160208501611ec4565b9150604084013590509250925092565b634e487b7160e01b600052604160045260246000fd5b600060208284031215611fa957600080fd5b813567ffffffffffffffff80821115611fc157600080fd5b818401915084601f830112611fd557600080fd5b813581811115611fe757611fe7611f81565b604051601f8201601f19908116603f0116810190838211818310171561200f5761200f611f81565b8160405282815287602084870101111561202857600080fd5b826020860160208301376000928101602001929092525095945050505050565b6000806040838503121561205b57600080fd5b61206483611ec4565b915061207260208401611ec4565b90509250929050565b600181811c9082168061208f57607f821691505b6020821081036120af57634e487b7160e01b600052602260045260246000fd5b50919050565b634e487b7160e01b600052601160045260246000fd5b6000816120da576120da6120b5565b506000190190565b60208082526028908201527f4d43543a204f6e6c79207369676e6572732063616e2063616c6c207468697320604082015267333ab731ba34b7b760c11b606082015260800190565b808201808211156107d0576107d06120b5565b6020808252601b908201527f4d43543a204f7065726174696f6e206e6f742070726f706f7365640000000000604082015260600190565b6020808252601f908201527f4d43543a204f7065726174696f6e20616c726561647920617070726f76656400604082015260600190565b634e487b7160e01b600052603260045260246000fd5b6000600182016121d3576121d36120b5565b5060010190565b601f821115611d6057600081815260208120601f850160051c810160208610156122015750805b601f850160051c820191505b818110156117be5782815560010161220d565b815167ffffffffffffffff81111561223a5761223a611f81565b61224e81612248845461207b565b846121da565b602080601f831160018114612283576000841561226b5750858301515b600019600386901b1c1916600185901b1785556117be565b600085815260208120601f198616915b828110156122b257888601518255948401946001909101908401612293565b50858210156122d05787850151600019600388901b60f8161c191681555b5050505050600190811b01905550565b818103818111156107d0576107d06120b5565b60008261231057634e487b7160e01b600052601260045260246000fd5b500490565b80820281158282048414176107d0576107d06120b556fea264697066735822122075910c1db84513f9c5290057d3266b59629ed2b198d043fe873ca70200f51ae164736f6c63430008110033",
  "linkReferences": {},
  "deployedLinkReferences": {}
}